:020000040002F8
:10700000F85F0020D5F902002F830200938302006D
:107010003B8402006B8602000F8802000000000023
:10702000000000000000000000000000AF88020027
:10703000DF880200000000001B8A0200578A02005D
:107040003FF202007B8A020081E902005F8B0200AE
:10705000A78D0200F38D020069E60200FB97020093
:107060000FC402009BCA0200A7E1020033E2020043
:107070002FF60200E1F8020007F9020017F90200FA
:1070800067F90200BBDF0200A3FA0200B1FA0200B6
:10709000B3FA0200B5FA02008FBE0200B7FA02008E
:1070A000B9FA0200BBFA0200BDFA0200BFFA020000
:1070B000C1FA0200C3FA0200000000000000000054
:1070C000C5FA0200C7FA0200C9FA0200CBFA0200B0
:1070D000CDFA0200CFFA0200D1FA0200D3FA020080
:1070E000D5FA0200D7FA0200D9FA02000000000027
:1070F00000000000DBFA020000000000DDFA0200E0
:10710000000000000000000000000000000000007F
:10711000000000000000000000000000000000006F
:10712000000000000000000000000000000000005F
:10713000000000000000000000000000000000004F
:10714000000000000000000000000000000000003F
:10715000000000000000000000000000000000002F
:10716000000000000000000000000000000000001F
:10717000000000000000000000000000000000000F
:1071800000000000000000000000000000000000FF
:1071900000000000000000000000000000000000EF
:1071A00000000000000000000000000000000000DF
:1071B00000000000000000000000000000000000CF
:1071C00000000000000000000000000000000000BF
:1071D00000000000000000000000000000000000AF
:1071E000000000000000000000000000000000009F
:1071F000000000000000000000000000000000008F
:107200002DE9F84F74A7A2B0D7E90045CDE90045B4
:107210002C9EDFF8307C04918DF843605FF0000114
:107220006FA40D9112944FF0FF3682469046994616
:107230000FE0C3462C461BF8011B0498D0470028DA
:10724000049000F0B2800D98401C641E0D90F2D1A5
:10725000A84498F80000252807D10021079108913B
:1072600009910A910B910C910DE06A463146404616
:1072700000F0FEFF050001D10D98B5E0D9D501253C
:10728000E6E741F0010118F8010F2028F9D0232882
:107290000CD02B2804D02D2805D0302809D086E02A
:1072A00041F00201EFE741F00401ECE741F0080191
:1072B000E9E741F01001E6E700200F900AE00F989F
:1072C000B84205DA00EB800302EB4302303A0F923A
:1072D00008F1010898F80020A2F130000A28EED346
:1072E00098F800002E2818BF0E9629D118F8010F23
:1072F0002A280BD1D9F80000C9F8000008F10108CC
:1073000050F8042BC9F800000E9219E02D280CBF8C
:1073100018F8010B002000220E920BE040B90E9AE3
:10732000BA4205DA02EB820403EB4403303B0E93CE
:1073300008F1010898F80030A3F130020A2AEDD3D1
:10734000ADF84010129898F8001000F09BFF08B1BB
:1073500018F8010B8DF842009DF84200682804BF20
:1073600098F80010682903D162208DF8420008E0E7
:107370006C2804BF98F800006C2804D171218DF8A6
:10738000421008F1010813A806904A4618F8013B7C
:1073900002A9504600F068F838B913AA02A950466D
:1073A00000F0CAF900287FF554AF30461CE02A28C7
:1073B00082D1D9F80020C9F8002052F8040BC9F88E
:1073C000002000280F9003D540420F9041F00401A7
:1073D00008F1010884E70000000000000000000040
:1073E000686A6C747A4C000023B0BDE8F08F6228A4
:1073F00020D0682811D06A2803D06C2827D07128A3
:1074000025D10868C01D20F007000860D0E90023DE
:1074100008300860194610467047002A0A680A605A
:10742000106803D0121D0A6000B217E0121D0A6036
:1074300080B217E0002A0A680A60106803D0121DA3
:107440000A6040B20AE0121D0A60C0B20AE0002AD7
:107450000A680A60106803D0121D0A60C1177047DD
:10746000121D0A60002170477CB50D4611461C466E
:107470002E69B4F1250200F04D811C3A00F086809F
:10748000121F022A40F282800E3A00F00781521F3A
:107490005AD0093A7AD0921E16D0521E35D0521EBA
:1074A000022A73D9121F30D0521F00F09A80521E48
:1074B0004AD0521E00F0E480D21E00F0FD80921EE1
:1074C00042D0D21E40D02BE195F83A206C2A09D048
:1074D0006869421C6A610A680A6052F8043B0A60E3
:1074E000335427E10A680A6052F8043B0A6000211D
:1074F000009301914FF0FF322A6329466A4600F05B
:1075000096F9002840F1168101E195F83A00012230
:10751000FFF76DFFC5E900010023994204DA6869AD
:10752000411C69612D210DE0288F810704D5686910
:10753000411C69612B2105E0C00722D56869411C07
:107540006961202131541CE095F83A000022FFF7D0
:107550004EFFC5E9000195F83800010711D5D5E9BE
:1075600000230020834208BF82420AD044F020005A
:10757000782806D1686930213154401C411C69616A
:107580003454214668693044E86083E00868C01DCF
:1075900020F007000860D0E9002308300860C5E942
:1075A0000023D5E90001C80F04D06869411C696156
:1075B0002D210DE0288F810704D56869411C696180
:1075C0002B2105E0C00704D56869411C69612021B1
:1075D000315468693044E8602146284600F032FAA8
:1075E000A8E005F13A02507820B14FF0FF340FF6D1
:1075F000243070E01078622808D0682824D06A28E7
:1076000012D06C282ED071280ED02BE00A680A60A8
:1076100052F8040B0A6020B94FF0FF340FF60C301B
:1076200059E0E96A017085E00A680A6052F8040BC3
:107630000A6020B94FF0FF340FF6F0204BE0EA6A01
:10764000D317C0E9002375E00A680A6052F8040BFA
:107650000A6020B94FF0FF340FF6D0203BE0E96A12
:10766000018067E00A680A6052F8040B0A6020B9DA
:107670004FF0FF340FF6B4202DE0E96A016059E0C5
:107680000A680A6052F8040B0A600021C5E900018B
:10769000EE607821284600F029F94BE06C2285F84D
:1076A0003A200B680B6053F8042B0B6052BB4FF071
:1076B000FF340FF6AC200EE095F83A206C2AF0D09B
:1076C0000868086050F8044B0860EC603CB94FF063
:1076D000FF340FF6702000F0EFFD201A76BD2E6B00
:1076E000002E04D5204600F007FE044608E032468E
:1076F0000021204600F01CFE002814BF041B344665
:10770000AC6117E0294600F092F8002812D54FF03E
:10771000FF3076BD6869411C69612521315409E05B
:107720006969481C686125227254210002D0411CFD
:1077300069613454002076BD2DE9F0410E460546BE
:10774000716B7069B46A091A306A091AB069091A4A
:10775000706A091AF069091A96F838000C1B41077B
:1077600090460DD4002C0BDD2746B0682021A84799
:107770000028B06057D0F06A401C7F1EF062F4D140
:10778000736942463146284600F0ACFC00284AD1D5
:10779000376A002F0ADDB0683021A8470028B060A2
:1077A00041D0F06A401C7F1EF062F4D1B369F268E8
:1077B0003146284600F096FCA8BB776A002F09DD09
:1077C000B0683021A847B06068B3F06A401C7F1EE3
:1077D000F062F5D1F068B169F36942183146284684
:1077E00000F080FCF8B9B76A002F09DDB0683021DD
:1077F000A847B060B8B1F06A401C7F1EF062F5D1B6
:1078000096F8380041070BD5002C09DDB06820211F
:10781000A847B06038B1F06A401C641EF062F5D130
:107820000020BDE8F0814FF0FF30BDE8F0812DE988
:10783000F8470D46A3B02F6B002F8146904648BFF6
:107840006FF0004700F0A0FD696B40180FF62C1197
:107850008128D1E90023CDE9012328BF4FF0FF3073
:107860003ED20024002F2FDDD8F8001001AA684670
:1078700000F000FD0646002E35D4D8F8000008B907
:10788000761E30D4B7421FDB6869301881280AD3CE
:107890000020686303AA29464846FFF74DFF04000D
:1078A00012D40020686103A8D5F814A032466946B6
:1078B000504400F06FFDB244C5F814A058F8040B12
:1078C000002818BFBF1BCDD12CB903AA29464846B2
:1078D000FFF732FF044614B9002068616863204650
:1078E00024B0BDE8F0874FF0FF34F8E72DE9FC47FE
:1078F00007468A463E69BAF16F0F08BF082405D0D3
:107900004AF02001782914BF0A2410243C25D7E925
:107910000023BAF1640F18BFBAF1690F9046994677
:1079200006D100218B4203DAD8F1000869EB49093E
:107930000020814508BF80451FD1386BE8B9082C6D
:107940004CD197F83800010748D530203B2586F800
:107950003B0043E000280ED597F8380000F01400F3
:10796000102808D17A6B7869121A386A121A511ADB
:107970000029C8BF3962BDE8F3878DF800A04046F2
:1079800049462246E31700F059FD3032D0B26D1E51
:107990003A28019504DB9DF80000A0F151018A18F6
:1079A0007255404649462246E31700F047FD80469F
:1079B00089460020814508BF804503D0F8687119C9
:1079C0008842DCD3082C09D197F83800010705D587
:1079D000715D302902D06D1E30207055C5F13C011B
:1079E000B9617019F860386B8142B3DA411A3962B3
:1079F0004FF6EF70398F01403987BDE8F3872DE9E5
:107A0000D04306460F4614464FF00008DFF838947E
:107A100012E0E00707D542464B463046394600F0B3
:107A200025FE06460F464046494642464B4600F074
:107A30001DFE641080468946002CEAD13046394646
:107A4000BDE8D0832DE9F34F054641F020048DB009
:107A5000D5E90089612C02AE09D0286B002848BF07
:107A6000062003D408BF672C01D101202863D5E983
:107A7000002358004015401C0ED119030CD00320E0
:107A8000A8619DF8380061381A2802D20FF2F4611B
:107A900011E00FF2F4610EE058004015401C0FD1C8
:107AA00019030DD10320A8619DF8380061381A2808
:107AB00014D30FF2DC61E868032200F06BFCD3E121
:107AC000194621F00043B3F5801F10460DD2002760
:107AD000BB4208BFBA42019703D111E00FF2AC617B
:107AE000E9E701AA00F094FE0AE0DFF8607307EB13
:107AF0001352DFF85C3301921940DFF85833194311
:107B0000C5E90001612C0ED1E86830210170811CAB
:107B1000E9609DF8381061290CBF78215821417027
:107B20006869801C6861D5E900AB2BF00043002038
:107B30002AF00002834204BF8242002300F05A81EF
:107B4000612C40F0A980286B00284CBF2120401CEC
:107B500000904046009F7F1C49460022002300F011
:107B60008FFED94601988DF8082038BF89F000496A
:107B7000001F0190002FD0460DF1090040F349810C
:107B800040F2FF71DFF8D0B20C91064640464946FC
:107B90000022002300F08CFE80F03A814800400D66
:107BA00000F11C0210D0002A0EDD0C98824205DB89
:107BB00009F0004040EA0B01002013E0A44808400F
:107BC00040EA025140460DE029F00043002028F031
:107BD0000002834208BF82420FBF40461C2240463B
:107BE00000F07EFE8046894600F018FFFF1F002F40
:107BF000044609DD00F030FF02460B464046494688
:107C000000F03CFF80468946F01D072104E004F0A7
:107C10000F0200F8012D2411002C01DD491EF6D5BC
:107C2000491E5CBF002200F8012DF9D5ECE00020D0
:107C3000194602AA0A4400E05B1E12F80149491ED7
:107C40008442F9D00F2804D10DF10900425C521C86
:107C50004254002904D50198001D02AE5B1C01901E
:107C6000591E12D49DF838007218147804F13008A7
:107C70005FFA88F4392CC4BFA0F13A04A044491E2D
:107C800002F80189F1D58DF83800286B002840F101
:107C9000B080591E2963ACE04046494600220023CB
:107CA00000F0EEFD019938BF89F0004947F2975086
:107CB00041436A4A91FBF2F20192D2F1070204DDDC
:107CC00040464946FFF79BFE0AE0524200206449C5
:107CD000FFF795FE02460B464046494600F040FF3E
:107CE0008046662C286BDFF87CB106BF019F0A37FF
:107CF00006273F18142FC8BF142730208DF808001E
:107D000089460DF1090000E03046002F34DD0646BB
:107D10004046494601F048F801460A4606F1080384
:107D200004200A26B2FBF6F606EB860EA2EB4E0204
:107D3000303203F8012C0A22B6FBF2F202EB820E7B
:107D4000A6EB4E063036401E03F8026DE9D1083F1F
:107D5000002F03F10806D7DD084601F039F8024686
:107D60000B464046494600F089FE00225B4600F083
:107D70007DFC80468946CBE70DF10901401A0DF1E3
:107D8000090604E00199491E401E0191761C3178D4
:107D90003029F7D0662C02D10199491C03E0652CEB
:107DA0000CBF012100212B6BCB189842B8BF431E9A
:107DB000002B1ED4834204DAF05C3528A8BF39209A
:107DC00000DA30201946721E02EB010800E05B1E4B
:107DD00018F80199491E8145F9D0392802D1705C03
:107DE000401C7054002904D50198401C16465B1CA9
:107DF0000190019800B200901BB29DF838103246F5
:107E0000284600F035F82FE0C61D002F3FF7BEAE24
:107E100030460DF10901401A009903468842C8BF57
:107E20000B46002B0DF109063FF52FAF8342BFF63D
:107E3000FEAE0DF10900C05C07287FF7F8AE0F20F9
:107E4000F6E60000CBCCCC0C0000244002FCFFFF87
:107E5000FFFF0F800000E03F0000F07FA0860100E0
:107E60000000F03F84D797410FB0BDE8F08F0000CD
:107E70002DE9F84783B006468A461746984600F033
:107E8000FBF9B8F1000F406A356B90F8009002DC06
:107E90004FF00108BFA7BDF930404AF02000662826
:107EA00008BF641C15D0672840F0848014F1040FCB
:107EB000C0F28680AC4280F2838096F83800641C61
:107EC000010702D4A845B8BF454620B22D1A48BFC5
:107ED00000250FFA84FAF068B169BAF1000F25DCC9
:107EE0004A1C30234354002D03DC96F83800010768
:107EF00003D5F06800F80290521C15EB0A0FB8BFCA
:107F00006C4220B2441941424445B8BFA046B26118
:107F100071620FFA88F5F561F068B3692A4639464F
:107F2000184400F037FA641BB462C4E022B29045F2
:107F3000084417DA4246394600F02CFAB06940444A
:107F4000B061AAEB0801002D716203DC96F83810CD
:107F50000A0705D5F16801F80090F069401CF0614E
:107F6000B562A8E0394600F015FAB069002D50441A
:107F7000A8EB040803DC96F838100A0703D5F1686B
:107F800001F80090401CB0610FFA88F08542F0685B
:107F9000B369B8BFA8460FFA88F207EB0A01184484
:107FA00000F0F8F9B0690FFA88F10844B061681A76
:107FB000706280E0BAF1610F14D14FF0700A16E0E0
:107FC000A84504DA96F838100A0758BF45466D1ED2
:107FD00048BF0025BAF1670F14BF4FF0450A4FF0B4
:107FE000650A04E0BAF1410F08BF4FF0500AB169C9
:107FF000F368481CB061002D17F8012B5A5403DCBC
:1080000096F838100A071BD5F168431CB36101F8D4
:108010000090002D14DDA8F101080FFA88F08542C8
:10802000F068B8BFA8460FFA88F23946184400F045
:10803000B1F9B0690FFA88F108446D1AB061756240
:10804000F068B1690844002C80F800A003D42B210B
:108050004170811C03E02D2141706442811C00208D
:108060006A460AE023460A2493FBF4F404EB8405F1
:10807000A3EB450302F8013B401C24B2002CF1DCC9
:10808000012806DC4AF02002652A04BF302201F8EC
:10809000012B48B9302001F8010B07E0401E1DF804
:1080A0000020303201F8012B0028F7DCF068B269BB
:1080B0001044091AF16196F8380000F014001028F5
:1080C0000DD17169B0694118706A4118F0694118A1
:1080D000B06A4118706B8142BCBF411A316204B072
:1080E000BDE8F087F8B505460E4617461C46002049
:1080F00074B117F8011BB068A847B06030B1F06ADE
:10810000401CF0620020641EF3D1F2BD4FF0FF303E
:10811000F2BD00007072696E74665F733A20256E5E
:1081200020646973616C6C6F776564007072696E4E
:1081300074663A2062616420256E20617267756DF5
:10814000656E74007072696E74665F733A20626166
:108150006420257320617267756D656E7400000080
:108160007072696E74665F733A2062616420256C78
:108170007320617267756D656E7400000000000009
:10818000000000006E616E004E414E00696E660098
:10819000494E46003000F0B4024610689568131846
:1081A000506803EB5004C00721D54D441FE0F0BCDC
:1081B00002F10C00704713F8017B05F8017B491EA2
:1081C000F9D1A0B1B60813F8011B06F00306032E7F
:1081D00008BF13F8016B01EB06214942801C2944BA
:1081E00005D011F8016B05F8016B401EF9D1A342CF
:1081F000DDD013F8016B16F0030104BF13F8011B67
:10820000C91C30090F28DAD113F8010B0F30D6E75B
:108210001A48704730B45368D418042B09DA41B1B6
:10822000057804F8015B10F8015B15B15B1C491E71
:10823000F3E7536030BC704738B514461D4661B152
:10824000FFF7E8FF61686A6B204690476FF0010214
:10825000811A02D0491E03D005E06FF0010032BD43
:108260004FF0FF3032BD0021616032BDDA6B104744
:10827000024BE1E7014BF9E701487047B0330020BA
:10828000783300200278C9B28A421AB11CBF10F8B4
:10829000012FF9E718BF00207047B1F5807F02D3A6
:1082A0004FF0FF3070470170012070470078401E8A
:1082B0008041C043C00F704780B500B906A0054992
:1082C0000B681BB122220021984701E000F08DFDD0
:1082D000222002BDEC3F0020636F6E7374726169EF
:1082E0006E742068616E646C65723A20626164200D
:1082F0006D6573736167650000F10103810704D048
:1083000010F8011B89B18107FAD10268B2F101317D
:10831000914311F0803F04BF50F8042FF6E710F8A6
:10832000011B11B110F8011BFBE7C01A7047FEE7F3
:10833000C9B2830706D0521E22D310F8013B9942DE
:10834000F7D11FE0083A13D302F1040241EA0121F8
:1083500041EA014150F8043B121F21BF4B40A3F1F9
:10836000013C2CEA030C1CF0803FF3D0C9B2001F83
:10837000083210F8013B521E28BF91EA030FF8D8CB
:1083800018BF0120401E704780B5FFF741FF006C09
:1083900002BDFEE762B38B0708D0521E11F8013B05
:1083A00000F8013B00F024808B07F6D1830740F0F2
:1083B000208000BF103A07D330B4B1E83810103A2B
:1083C000A0E83810F9D230BC530724BFB1E8081038
:1083D000A0E8081044BF51F8043B40F8043BD20722
:1083E00024BF31F8022B20F8022B44BF0B78037016
:1083F0007047121F17D35B0009D151F8043B20F8D6
:10840000023B1B0C121F20F8023BF6D20BE051F886
:10841000043B00F8013B1B0A20F8023B1B0C121F17
:1084200000F8013BF3D238BF121D521E24BF11F8D1
:10843000013B00F8013BF8D87047FEE7B3BBD9B168
:10844000B2F5803F7DD2022A1ED98C46B1FBF2F1F3
:1084500002FB11C31B0443EA1043B3FBF2FC02FB13
:108460001C3380B240EA0343B3FBF2F002FB10324C
:1084700040EA0C4000237047022A05D98446B0FB2D
:10848000F2F002FB10C270474AB105D100F00102C0
:1084900049085FEA3000704700220023704700F06F
:1084A000A7BC0B000200002100207047904271EB36
:1084B000030CF6D3B3F5803F2FD2F0B5B3FA83F7B0
:1084C000B1FA81F4A7F10F0E3D1B5340CEF1200607
:1084D00002FA0EF2F3415340B5F10F0746D80F3CB4
:1084E0002C444140C4F12006A040F1414140B1FB81
:1084F000F3F603FB1611A2FB0645001BA94102D2AD
:10850000761E8018594180EA010221FA0EF362FAC0
:108510000EF200215A403046F0BD30B4B1FBF3FCFE
:1085200003FB1C11A2FB0C45001BA94103D2ACF1BB
:10853000010C8018594130BC02460B4660460021B0
:108540007047B2F1807F65D3F0B5B2FA82F7B1FA25
:1085500081F4C7F10F063D1B22FA06F307F1110E55
:10856000F24120355A40B5F10F07B8D94140C4F166
:108570002006A040F1414140B1FBF3FC03FB1C117C
:10858000A2FB0C45001BA94103D2BCF1010C8018D1
:1085900059410F2F12D30F3FC90341EA5041B1FB9C
:1085A000F3F603FB1611A2FB0645D4EBC030A9413C
:1085B00002D2761E8018594146EACC3C07B34140AE
:1085C000C7F12006B840F1414140B1FBF3F603FB8F
:1085D0001611A2FB0645001BA94102D2761E801887
:1085E000594180EA010221FA0EF3C7F1200462FA30
:1085F0000EF20CFA07F05A402CFA04F13043F0BDA9
:1086000080EA010221FA0EF3002162FA0EF26046BE
:108610005A40F0BD8C46B1FBF2F102FB11C31B02C4
:1086200043EA1063B3FBF2FC02FB1C331B024CEA6F
:10863000002043EA1063B3FBF2FC02FB1C331B0275
:108640004CEA002043EA1063B3FBF2FC02FB1C334C
:108650001B024CEA002043EA1063B3FBF2FC02FB6E
:108660001C324CEA002000237047FEE7B0B581EAD7
:10867000030C0CF0004C40F2FF7515EA11541DBFBD
:1086800015EA1357AC42AF4239E0E41923EA4553E7
:1086900043F48013C90241F0004141EA505EC70231
:1086A0001100A7FB020200284FF00000EEFB0120A2
:1086B0004FF00001E3FB072118BF42F00102401810
:1086C00000214941E3FB0E01A4F580640F0302D2AF
:1086D00052004041494154F101046CDD470872F1F8
:1086E000004250F1000051EB0451A1F580115CBF34
:1086F00041EA0C01B0BD4CEA05510020B0BD05EACD
:108700001357AC4214BFAF4241E050EA410E1CBFC8
:1087100052EA430E02E061460020B0BD24423C44D0
:108720001BD15FEA070EF6D0090302BF0146002005
:10873000AEF1140EB1FA81F7AEEB070401FA07FEB1
:108740000C37C7F1200100FA07F7C8404EEA000EC7
:1087500023EA455343F48013A2E733F00043B3FA0E
:1087600083F704BFB2FA82FE77440B3FE41BB7F1F4
:10877000200E2FBF02FA0EF3BB40C7F1200E22FAE3
:108780000EFE38BF43EA0E03BA40641C82E750EA8B
:10879000410E14BF52EA430E6FF000014FF4001770
:1087A00017EB430F8ABF194617EB410FB5E74CEAA9
:1087B00005510020B0BDD4F10104B4F120070FDA57
:1087C000C4F12007520828BF42F0010210FA07F551
:1087D00001FA07F7E1BF2A43E0403843E1400FE0E8
:1087E000352C98DCC7F1200452EA400220FA07F247
:1087F00018BF42F0010231FA07F0A1400A430021FC
:1088000072F1004250F1000051EB0C01B0BDFEE7E7
:1088100010B5144600F002F8226010BDC1F30A53EF
:1088200043B14A0012F5001F28D2A3F2FE32A1EB99
:108830000251704750EA410C20D001F0004C31EA5F
:108840000C01B1FA81F204BFB0FA80F3D2180B3AEE
:10885000B2F120032CBF00FA03F1914041EA0C0170
:108860003EBFC2F1200C20FA0CF319439040524253
:1088700040F2FD33D21A01EB0351704700227047DA
:108880004FF4001C1CEB410F94BF1CEB430F09E09D
:1088900041EA030C50EA4C0C52EA0C0C03D2994208
:1088A00008BF9042704714BF8B4282427047FEE778
:1088B0004FF4001C1CEB410F94BF1CEB430F09E06D
:1088C00041EA030C50EA4C0C52EA0C0C03D28B42E6
:1088D00008BF8242704714BF994290427047FEE73A
:1088E000124254D440F2FF7C1CEA11530FD063456E
:1088F00031D09B1863453CBF01EB0251704701F03A
:10890000004141EA0C510020AFF30080704750EA6B
:10891000410320D001F0004C91EA0C011CD0B1FAC7
:1089200081F30B3B9A420DD9D21A994051EA0C01BE
:10893000C3F1200C20FA0CFC61449840531C40F217
:10894000FF7CD7E7914041EA0C01C2F1200C20FAEC
:108950000CF3194390407047B0FA80F31533202B85
:10896000E0D3202AEED3203A203B9A4209D9D21AEA
:1089700000FA03F141EA0C010020531C40F2FF7C95
:10898000B8E700FA02F141EA0C01002070475242B8
:1089900040F2FF7C1CEA11530DD06345DBD0B2EBF3
:1089A000030C3CBFA1EB025170470CF1010221EA1C
:1089B000035141F4801150EA410CCCD001F0004C3D
:1089C000352A27DC30B481EA0C01B2F1200309DA40
:1089D000C2F12003044601FA03F5D0402843D140F8
:1089E0009C400CE0C3F12002450020FA03F418BFBC
:1089F00044F0010421FA03F091400C43002174F18A
:108A0000004550F1000051EB0C01244230BC7FF4D2
:108A10007BAF70476146002076E7FEE7C1F30A535B
:108A200040F2FE329B1A14DDD3F120034FEAE172CB
:108A300008DDC90241EA505141F00040D840801899
:108A40005040704703F2E13010B1D24382F0004051
:108A5000704700207047FEE7C11768B14840401AD0
:108A6000B0FA80F29040D21CC907C2F5846241EA94
:108A7000025202EBD02140057047FEE770B44FF080
:108A8000004591EA030F40F1B5816B40841A71EB08
:108A9000030603D2001BB141121973414FF4001CAD
:108AA0001CEB410F34BF7CEB430442E00C0DA4EB04
:108AB0001356352E4FDC45EAC323DB0A45EAC121B4
:108AC000C912B6F120050DDD63FA05F6EB4086EA22
:108AD0000305124218BF45F00105C01851F100010D
:108AE0000CD213E062FA06F5F2405540F3415A40C9
:108AF000B340F3405A408018594107D349085FEA10
:108B000030005FEA350528BF45F0010501F5801109
:108B1000420875F1004250F1000041EB04514E0053
:108B200016F5001F70BC38BF70470020090D0905FD
:108B300070471CEB410F10D252EA43060BD0BCEB3E
:108B4000410F05D80C0DAB43661E342EB6DD02E096
:108B5000AB438018594170BC704770BC7047FEE74A
:108B6000F0B540F2FF7581EA030C0CF0004C15EAF9
:108B700011541DBF15EA1357AC42AF42E5E0BC41AA
:108B8000C1F31301C3F31303801A994143F4801313
:108B900004D2641E4000494180185941C90241EA8B
:108BA0005051B1FBF3F603FB1611A2FB0675D7EB90
:108BB000C020A94102D2761E80185941C90241EA5B
:108BC0005051B1FBF3FE03FB1E11A2FB0E75D7EB58
:108BD000C020A94103D2AEF1010E8018594189028B
:108BE00041EA9051760546EA8E2EB1FBF3F603FB7F
:108BF0001611A2FB0675D7EB8020A94102D2761E82
:108C000080185941C90241EA50514EEA060EB1FBA3
:108C1000F3F603FB1611A2FB0675D7EBC020A941A2
:108C200002D2761E80185941C90241EA5051B1FB67
:108C3000F3F703FB1711A2FB0735D3EBC020A941C3
:108C400067F100070CBF004247F0010766F3D52724
:108C50004FEA1E31B80814F5806412DDBD0775F1C6
:108C6000004250EB0E5051EB045111F5801F5CBFD8
:108C700041EA0C01F0BD4CF07F6141F0E041002081
:108C8000F0BDBD076D0840EA0E5041F48011D4F1EB
:108C90000104B4F120060ADAC4F120060200E04023
:108CA00001FA06F3E1401843B24015430EE0342CBC
:108CB00013DCC6F1200445EA40056D0820FA06F2EF
:108CC000154321FA06F0A1400D43002175F1004241
:108CD00050F1000051EB0C01F0BD00205FEA0C01E7
:108CE000F0BDCFB992185B41B3FA83F704BFB2FA73
:108CF00082F6BF190B3FB7F120062FBF02FA06F329
:108D0000BB40C7F1200622FA06F638BF3343BA400B
:108D10001CB1E419641E33E77F4231F00041B1FA1F
:108D200081F404BFB0FA80F6A4190B3CB4F120061C
:108D30002FBF00FA06F1A140C4F1200620FA06F682
:108D400038BF3143A0403C1B1AE7AC421ABF05EACA
:108D50001357AF4212E050EA41061CBF52EA4306E5
:108D6000BFE750EA4107304661461CBF41EA055162
:108D7000F0BD52EA430C08BFC143F0BD00204FF4E0
:108D8000001616EB410F98BF16EB430F08BF16EB0A
:108D9000410F24BFC14305E016EB430F0CBF6146F2
:108DA0004CEA0551F0BDFEE7400D491840EA81202C
:108DB0000CD2490DA1F58061491C40F0004005DB53
:108DC000D1F11F0154BFC840C01770470020704741
:108DD000014648B1B0FA80F18840C91CC1F58461F0
:108DE000090501EBD02140057047012000F0B6B81D
:108DF0007047FEE7841A71EB030604D26E40001B35
:108E0000B141121973414FF4001C1CEB410F34BFE8
:108E10007CEB430682E00C0DA4EB1356362E7BDC74
:108E2000012E45EAC32341DC43EA525312BFD2026A
:108E300092025B08240545EAC12141EA5051D2EB78
:108E4000C020994125D407D1B0FA80F610FA06F176
:108E500062D00020203608E0B1FA81F6B140C6F1B8
:108E6000200220FA02F21143B0404FEAF474B4EB4E
:108E7000465434F001064FEA74040AD8D6F50016B9
:108E8000760D04F00044F04061FA06F25040F140E3
:108E90004840C00A40EA415021F0004128BF5FEA43
:108EA000500550F1000044EBD12135E0DB0A45EAE2
:108EB000C121C90AB6F120050EDD42EA0242120CB8
:108EC000C5F1200603FA06F6EB4042EA06056D42BC
:108ED000984161F100010DE062FA06F5F24055405B
:108EE00063FA06FC82EA0C02F3405A406D4290415C
:108EF00061EB030111F4801F05D1641E620502D0ED
:108F00006D004041494121F48011430875F100434F
:108F100050F1000041EB045170BC70471CEB410F55
:108F200015D223F0004352EA43060BD04FEA4C0C13
:108F3000BCEB410F04D80C0D661E342EB7DDEBE7F9
:108F4000801A994150EA410608BF0021E4E708BFB2
:108F50001CEB430F28BF6FF00001DDE72021090360
:108F600026311820ABBEF9E700F038BC80B5DFF839
:108F7000280500F0F3FD08B100F030FC012000F0FE
:108F8000A1FF18B1BDE8024000F028BC01BDF8B552
:108F90000146DFF80825DFF80805101A0A78C0082E
:108FA0000004042A40F003001AD021D3062A07D077
:108FB0001ED24868E0B105B05DF804EB00F00EBCCD
:108FC00049688A7903924A7902920A790192CA78A9
:108FD00000928B784A780FF2F44101F050F907E0E3
:108FE0000FF2185101F02FF905B05DF804EBBDE761
:108FF00005B000BD0146DFF8AC0401F0ADBA2DE9C3
:10900000F8450546DFF89404DFF894740FF2185A17
:10901000C71BFF083F04884647F003070FF2F841DB
:10902000384601F010F9002600E0761C46450FD2C4
:10903000A85D01F07AFD0400F7D0112CF8D032467B
:109040005146384601F002F9204600F0C7FBECE734
:1090500005EB080010F8010C0D2804D10A2001F0DE
:1090600064FD1128FAD042462946DFF8380401F0A1
:1090700071FB04000CD0112CF5D022460FF2D04128
:10908000384601F0E3F82046BDE8F24500F0A6BB03
:10909000BDE8F1857CB5054600F007F9C00800047D
:1090A00040F00304297840F0010019B1022931D0C1
:1090B00033D373BDDFF8F053DFF8E863B5F8F4009D
:1090C000284401F01AFDB5F8F400401C81B229448F
:1090D000A5F8F40011F8011C0A2918BF0D2903D0C6
:1090E000318B80B2884226D30FF29041204601F0A6
:1090F000AAF8B5F8F4202946304601F02BFB0828E1
:1091000004D01328F5D008B100F068FB0020A5F8C2
:10911000F40073BD0FF2844601E00FF2B44631460D
:1091200001F091F83146204601F08DF86868BDE8FD
:10913000764000F053BB73BD70B50446DFF85C03A6
:10914000DFF85C63861B0D46F608360446F003061E
:109150002A780FF2A841304601F078F8287818B143
:10916000022826D01BD370BD0FF2C041304601F05B
:109170006AF8698805F10E02204601F033FB08B158
:1091800000F02CFB204601F0D5FA08B100F026FBD8
:109190003046BDE870400FF2A84101F054B80FF21C
:1091A000D041304601F04FF8A989A868BDE8704069
:1091B00025E70FF2D841304601F045F8BDE8704090
:1091C000D4E610B50446002000F07CFE08B100F0A3
:1091D00005FB24B901F0FDFC08B100F0FFFA012005
:1091E00010BD38B5044600F060F82188C0080004BE
:1091F000102940F003000ED0112921D013292ED0C0
:109200001B2924D01F2930D0212933D03B293ED01F
:1092100056293FD031BDA34DA1880022284601F038
:10922000E1FA08B100F0DAFA072000F04BFE08B1CD
:1092300000F0D4FAA18805F11C0002F053F830E0E8
:10924000237AA2880FF2544101F006F831BD217A49
:10925000022929D10FF2744100F0F5FF31BDA08839
:109260000023002285217FDF1BE0A08804F1080194
:1092700075DF16E00FF2744100F0E5FF0FF2405089
:109280000188ADF800106946A0888FDF09E00FF271
:10929000704101E00FF2804100F0D5FFA08813215A
:1092A00076DF08B100F09AFA31BD7C497C48081A93
:1092B000704738B50C4640F677212088884219D18E
:1092C0007649774D4D1BED082D0445F003050FF24F
:1092D0006041284600F0B7FFA0887249C21E2846A8
:1092E00001B00A8392B2BDE8304013460FF25C41F0
:1092F00000F0B2BF31BD10B56C4C6D49204602F094
:1093000046F908B100F06AFAF721204602F04EF95A
:1093100018B1BDE8104000F061BA10BD042804D0B7
:109320000A280CD1002002F00FBB5E4A508813219E
:1093300076DF082803D0002818BF00F04FBA704726
:1093400038B58AB04FF48041002000F06DFE08B1BE
:1093500000F044FAC046C04602F082FC08B100F0BA
:109360003DFA04A80FF25C414E4C1822FFF722F898
:1093700004F5CE60009004F5EE614FF4807001902A
:109380000291039007234B4A694604A801F06AFB47
:1093900008B100F023FA4849012000F09FFD08B110
:1093A00000F01CFA6946002001F063FC08B100F0EF
:1093B00015FA0021CDE900114048009004F25C65E7
:1093C0000195684601F028FF08B100F007FA02F0A5
:1093D0008FFA08B100F002FA02F004FD08B100F0C3
:1093E000FDF9002000906946012002F065FD08B1FA
:1093F00000F0F4F9684602F0EBFD08B100F0EEF978
:10940000FFF779FF2E482F49009001910295694698
:10941000204601F004F908B100F0E0F968460021A7
:1094200000220023002580E82E0001208DF8040092
:109430008DF80C0004F2EC54234A6946204600F0F3
:1094400053FB08B100F0CAF930A20021204600F019
:1094500018FA08B100F0C2F900221F21204600F0DE
:1094600031FA08B100F0BAF9C2A002F061FF0B486E
:10947000DFF82C20C9A1801AC008000440F00300C6
:1094800000F0E1FEFFF772FD00F018FF0028FBD1AD
:1094900002F03BFAF8E70000F030002058F5020037
:1094A00018F50200042B002014390020243F00206E
:1094B000B3920200959002001D930200F58F020006
:1094C00039910200698F02008F8F0200436F6E6E28
:1094D000656374696E6720746F2074617267657468
:1094E00020253032782530327825303278253032D8
:1094F0007825303278253032780000005363616E71
:109500002074696D6564206F75742E004665617303
:1095100079636F6D00000000526563656976696E5E
:109520006720646174612E006170705F7561727490
:109530005F707574206661696C656420666F722067
:10954000696E646578203078253034782E0000000C
:109550004661696C65642073656E64696E67204E50
:109560005553206D6573736167652E204572726F68
:109570007220307825782E2000000000526561644A
:109580007920746F2073656E642064617461206F4C
:1095900076657220424C45204E555300436F6D6DE9
:1095A000756E69636174696F6E206572726F722087
:1095B0006F63637572726564207768696C65206893
:1095C000616E646C696E6720554152542E00000034
:1095D0004572726F72206F63637572726564206981
:1095E0006E204649464F206D6F64756C652075731B
:1095F000656420627920554152542E00626C655F8B
:109600006E75735F635F6576745F68616E646C65C9
:1096100020626C655F6E75735F6576742D3E65764E
:10962000745F74797065203D20256400446973631C
:109630006F7665727920636F6D706C6574652E004E
:10964000436F6E6E656374656420746F2064657625
:109650006963652077697468204E6F72646963205E
:109660005541525420536572766963652E0000009F
:10967000424C455F4E55535F435F4556545F4E55D0
:10968000535F54585F4556540000000044697363AB
:109690006F6E6E65637465642E00000044697363C9
:1096A0006F6E6E65637465642E20636F6E6E5F68A7
:1096B000616E646C653A20307825782C2072656183
:1096C000736F6E3A2030782578000000436F6E6E1D
:1096D000656374696F6E205265717565737420746B
:1096E000696D6564206F75742E0000005048592024
:1096F00075706461746520726571756573742E0090
:109700004741545420436C69656E742054696D65FB
:109710006F75742E00000000474154542053657249
:109720007665722054696D656F75742E00000000B7
:10973000415454204D54552065786368616E6765C7
:1097400020636F6D706C657465642E00426C6520DB
:109750004E5553206D61782064617461206C656E94
:109760006774682073657420746F203078255828DA
:1097700025642900424C4520554152542063656EB2
:109780007472616C206578616D706C6520737461B2
:109790007274656420322E0D0A000000424C452090
:1097A000554152542063656E7472616C2065786116
:1097B0006D706C6520737461727465642E000000B6
:1097C0000000000007000000020000000000000090
:1097D000000000000000000000E0D7011FB569464E
:1097E00000220023002481E81C0002906A46002128
:1097F00044F2010002F0B0FD1FBDFEE778B504465B
:1098000004F12A0085B0867A00780D46A0B100F0F8
:1098100069F900F063F9334604F12C0204F13601D2
:10982000A81C8CDF05218DF80010019000281FBFB7
:10983000616C00296846884706B070BD38B504469B
:109840000D462846FEF758FDC0B208B1202801DDBC
:109850000C2032BD94F8200008B1042032BD294606
:10986000204602F0AFFD58B12846FEF745FD0246FE
:10987000012084F8200029462046FEF78BFD0020B9
:1098800032BD1CB5002818BF002A01D10E2016BD1C
:1098900011B1032904D013E01146BDE81C40CDE707
:1098A00000F12201087908B1042016BD0B88148844
:1098B000A34206D001230B71126841F8202016BD87
:1098C000072016BD7CB504000D46164601D10E20BA
:1098D00076BD15F01F0F01D1072076BD00F00DF801
:1098E00004F12100E90744BF01210170690744BF69
:1098F00001218171C671002076BD08B90E20704724
:10990000002100F8211F8171002070472DE9F04FE0
:1099100087B0814600208DF800000E468246142153
:1099200001A802F075FD09F136000590484600F0E7
:1099300095F888B102208DF8040009F12001029603
:1099400001A84A6A904709F1680100208ADF314680
:109950004846FFF753FF6DE009F12000D346017A36
:109960000691C7794078E8B101218DF8001099F887
:109970002040B6F81C80002500E06D1CE8B2A04233
:1099800010DA09EB4012B069414602F06DFD002883
:10999000F3D09DF80C004FF0010A40F001008DF863
:1099A0000C00D3467FB39DF80000401C8DF80000EA
:1099B000002509F12000047A90F80680B08BADF8FC
:1099C0000200002702E0002C42D17F1CF8B2404583
:1099D0003EDA09EB800000F12202BDF80210B06906
:1099E00002F065FD0028EED06D1C002CEDD1EDB22B
:1099F0004DB19DF80C0040F004000AF1010A8DF809
:109A00000C004FF0010B02960698B0B19DF80010C3
:109A10005FFA8AF0884213D003208DF80400029682
:109A200009F12000416A09B101A8884709F16801DC
:109A300000208ADF07B0BDE8F08FBBF1000FEBD04C
:109A400000208DF8040031464846FFF7D7FEE7E7CF
:109A5000002CCCD0EDB24545CBD0D4E781B090F806
:109A60003600C0F3C100012816BF032801200020E2
:109A700001B0704710F8361F41F00401A0220170B8
:109A8000428001F0E7015022828001700022012112
:109A9000C280417070474FF4C871418606218185AC
:109AA0001821C18500210186704730B585B000F0CE
:109AB00013F82A79012A0DD1606C58B104F13600EF
:109AC000042104908DF8001028798DF80400684670
:109AD000616C884705B030BD04460D4614216846C8
:109AE00002F096BC8BDF7047F8B504000D4601D13B
:109AF0000E20F2BD04F144062A21326004F12A0747
:109B000002F086FCD5B128793870287BB8722968B4
:109B100029B104F136000E22FEF73CFC02E020469B
:109B2000FFF7A8FFA96829B104F12C000822FEF76D
:109B300031FC0BE02046FFF7AEFF07E02046FFF7C1
:109B400099FF2046FFF7A7FF0020387004F1480076
:109B500070621F2030850020F2BD000018B504009F
:109B600085B008BF0E2029D0FFF7B8FFFFF7BAFF76
:109B70002046FFF773FF00281CBF616C002904D04A
:109B800001208DF800006846884704F1680104F15F
:109B900036008ADF0446082C18BF002C0DD0084878
:109BA000DFF820301DA1C01AC0080004224640F092
:109BB000010000F04BFB204600E0002006B010BD85
:109BC00048F5020018F5020030B585B0FFF784FFB4
:109BD00006208DF80000291D019104F13601288826
:109BE0000491ADF80800616C09B16846884705B07A
:109BF00030BD0A46018810290AD01B2905D01D292D
:109C000009D100F10801104680E6011D10464CE71D
:109C1000011D1046D8E770470000000073645F62C2
:109C20006C655F6761705F7363616E5F73746172AF
:109C3000742072657475726E6564203078257800C2
:109C4000042838BF02F0F4BC002070472DE9F84327
:109C50008046894602F00AFD002404282FD2DFF84E
:109C60006C6300EB400175183718B9F1000F14D080
:109C7000B9F1020F1AD01AD22C78687850B106F1D7
:109C80000F024FF4804106F1600002F01BF808B9A2
:109C900086F80F80A878387409E006F1600002F0B9
:109CA00028F8AC78387CA04209D100E06C7820001C
:109CB0001CBFB169002902D0BDE8F4430847BDE8E4
:109CC000F18300780221C1E710B5DFF80013887B2B
:109CD00048B10024204602F07FFC641C042C06D20C
:109CE000022CFAD0F6E7BDE8104002F079BC10BDB6
:109CF0002DE9FC41B54E0446707B002710B1777307
:109D0000FFF7E2FF8DF80040204617280190B04D84
:109D1000DFF8C082B04C00F2BE80DFE800F00C1526
:109D200015282F3A4F5559615961B76E6E6E6E6E98
:109D30009DA1A7AEB7B7FFF7C7FF06F1200001F05E
:109D4000D8FF07460020A5E09DF8007000F0A9F8B4
:109D500030B100F0A9F8022F14BF40469F4821E01F
:109D600002F036FC022F0CBF204628461AE000F015
:109D700098F8A0B100F098F8994813E000F091F835
:109D800018B100F091F840460CE002F021FC2846A2
:109D900008E000F086F810B100F086F801E000F06D
:109DA0007DF8204600219DF80020327300234FF4F7
:109DB000FA62FEF743FB0146002218E0002002F0A1
:109DC00021FC0620307307E000F068F8072061E00E
:109DD0000120707302F016FC002240F2666106E07A
:109DE0000120707302F00EFC00224FF4005106F1C6
:109DF000200001F067FF07464DE006F1400001F04A
:109E000078FF07460198D0F111001FD0F7B902285A
:109E100017D380B2C8214843C117C90341EA504152
:109E2000C00310F57A7041F100014FF4FA6200238B
:109E3000FEF704FB0146002206F1400001F042FF5C
:109E40000746022002F0C4FB012003E0022002F0DA
:109E5000C3FB0020B0731EE0FFF736FF122019E0AD
:109E6000FFF732FF00F01AF8132013E0FFF72CFF82
:109E7000012002F0ADFB14200CE0FFF725FF00F0FD
:109E80000DF8012002F0A4FB152003E002F0B1FB65
:109E90009DF8000030733846BDE8F681002002F0DE
:109EA00097BB002002F08ABB002002F095BB474818
:109EB000017DCA0744BF007BFFF71ABF704702202D
:109EC00002F0A0BB80B5414A137D0021DA0702D51C
:109ED000FFF70EFF0146084602BD000070B50546BB
:109EE0003A48002445618161A8071ED50026012259
:109EF0000121304600F02FF8761C042E044601D2D2
:109F0000002CF4D034B940F2333204213EA002F0E8
:109F1000B9FC044614B902F0ECFC04462CB9314AF1
:109F200038A0002101F0C2FE0446E80711D5012047
:109F300002F0B0FB2CB92C4A30A0002101F0B6FE93
:109F4000044634B9DFF8A4202DA0012101F0AEFEB3
:109F50000446204670BD18B503460020042B14D2D9
:109F6000012A04D101290CBF03F10E020022174C73
:109F700003EB4303234431B1022902D005D21A7006
:109F800012BD5A7012BD9A7012BD072012BD10B5D5
:109F9000042819D2002914BF0324002402F076FB00
:109FA0001F2892BF124900F01F00124951F82020CB
:109FB00022F4403241F8202051F8202042EA0442A5
:109FC00041F82020002010BD062010BD303C0020AC
:109FD000E803C800E803E803E8036400E803840337
:109FE000E8039001C39C0200AF9E0200BF9E0200E6
:109FF00000070050000A00500121C8E7503C002033
:10A00000703C0020903C00200B0003004D9C02009F
:10A010000C0003004D9C0200180003004D9C020040
:10A02000190003004D9C020080B5DFF8D004002128
:10A030000170DFF8CC0402F07DFC20B90FF2E4409F
:10A0400002F022FD002002BD81B00246002013680C
:10A05000C3F380029AB103F00300012802D0022862
:10A0600007D00BE00868C3F38312921C1018086035
:10A0700004E008689B0D9B1C1B180B60012001B0BD
:10A0800070477FB5DFF8744404F5836002F042FD49
:10A0900004F21445284602F03DFDA0680090002619
:10A0A00000E0009804F10C0100F00EFA0028F8D14D
:10A0B000009A04F10C0102F0FF0251F8221001AAEB
:10A0C00000F0FAF9F4D90199BDF80A0001F0030192
:10A0D00001290AD002290FD1019906460098890D5D
:10A0E000C91C00EB9100009006E00646019800991B
:10A0F000C0F3831041180091284602F00DFD08B10D
:10A100000098A060304604B070BD80B50021DFF833
:10A11000F80302F0C3FC80F3100002BD2DE9F84FF4
:10A120000446884693461F460A9DDFF8D093FFF702
:10A13000ECFF09F10C0A7E1C00042E4040EA14409A
:10A14000E4004AF8260004F0380444EA8B14C4F30F
:10A15000090409F10C0044EA88242F4044F001046A
:10A1600040F82740BDE8F18F2DE9FC4188460021E9
:10A170008DF800101546DFF884730446684602F037
:10A18000D3FC7868C8F80000A61C00F029F807F294
:10A190001C480BE00121404602F0A4FCFFF771FFD0
:10A1A0000146404602F09EFC00F01AF8B142F1D39D
:10A1B0002DB1A40104F4707444F0050402E0A40578
:10A1C00044F00604387907EB8001CC6078683618D3
:10A1D0009DF800007E6002F0C4FC0120BDE8F6811D
:10A1E0007968B868C1F58071411870472DE9FC4164
:10A1F00004460D4617469846012201A94046FFF73E
:10A20000B3FFDFF8F862B0B10198801C002108E0CC
:10A2100000F0FF0206EB820357F82120DA60401CB1
:10A22000491C4145F4D3FF2000904246019B29463A
:10A230002046FFF773FF307818B100F03FF8002890
:10A24000FBD1BDE8F38100230022CFE780B5009267
:10A25000012300F012F801BDE0B5009201936A46B7
:10A260000223FFF7C3FF07BD1FB5069C00920193B1
:10A270000294032300F001F81FBD6A46B6E7F8B563
:10A2800086B00C9C0D9D0E9E0F9F00F006F8059762
:10A290000623FFF7F2FF07B0F0BD0092019302948E
:10A2A000039504967047954881684068814201D1C2
:10A2B0000120704700207047000000002DE9F8479A
:10A2C00085B0FFF7F0FFD8B98C4E06F58267B8600D
:10A2D000BFF34F8F06F10C01B068009002E00098C8
:10A2E00006F10C0100F0F0F8002800F0C580B86815
:10A2F000002840F0C180706800998142EFD3B060BF
:10A300000020B6E0029965F39F51029105F1080122
:10A3100002F012FB5FEA00094DD002F054FB00F09E
:10A32000C5F8009901F0FF01C1F58070800006F1C9
:10A330000C02A84202EB810117D228B9AA4606F105
:10A340000C010024002503E0824606F10C042D1ABE
:10A350005FFA8AFA08235246484602F089FB4CB15C
:10A360000AF10803EAB2214601E008232A464846DA
:10A3700002F07EFB009808F1030100EB91000090D1
:10A3800038E0029901F00301012959D10299029A9A
:10A39000C1F383110529C8BF062122F4707242EA75
:10A3A000811202920299C1F38311891C890002F083
:10A3B000C3FA5FEA000943D002F005FB00F076F82B
:10A3C0004FF00808002410E00098411C009106F1AD
:10A3D0000C0500F0FF0005EB8001434604224846CF
:10A3E00002F046FB08F10408641C0298C0F38310D5
:10A3F0008442E9D33C68B86870B1484602F0E7FA95
:10A4000032E0E0684179012904D1226813684946A5
:10A4100020469847E0680468002CF2D1484602F0D4
:10A42000D6FA00208DF8040001A802F07DFBB86880
:10A4300008B90099B1609DF8040002F092FB13E0A6
:10A440003C6805E021688A6820469047E068046817
:10A45000002CF7D12D482B4A2DA1801AC0080004EA
:10A4600040F00200FFF7EFFEFFF71DFF401E8041A6
:10A47000C00F06B0BDE8F0870020009A06F10C017D
:10A4800002F0FF0251F8221002AA00F015F8F4D9E8
:10A4900002991B4801F0030102297FF472AF029D6B
:10A4A000AD0DA846502DA8BF50252BE7002308224C
:10A4B00002A9484602F0DCBA42F82010401C00997C
:10A4C000491C01280091704700F0FF0001EB80005B
:10A4D0006946B9E510B50948D0F81044012101706A
:10A4E00008E0E168012048712046226851688847E9
:10A4F000E0680468002CF4D110BD0000F4340020A2
:10A500009CF9020018F502001039002058F50200ED
:10A510004261636B656E647320666C757368656415
:10A5200000000000B03C00207F0000000C3F002035
:10A5300038B50446A848A94BC01AC0080D46000407
:10A54000AFA140F00300FFF781FE296919B1204651
:10A55000BDE83440084731BD78B585B004460E46A5
:10A560001421684601F054FF9B489C4DD4F80C2000
:10A57000B1A1451BED082D0445F0030500F04CF892
:10A5800096F80020B4A100F047F8B288B8A100F016
:10A5900043F8B279C2A100F03FF83278002A02BF36
:10A5A000B0884FF6F071884204BFB179012931D1EA
:10A5B000C7A100F031F8327ACCA100F02DF80020CC
:10A5C0004FF6F173317A884213D21221414331445C
:10A5D000CA89D21A05D0921E04BFC98AADF81210DA
:10A5E00005E0CA8AADF80E20098BADF81010401CAA
:10A5F000E8E7E06870B100BFC9A12846FFF723FE75
:10A600007088ADF8020000218DF800106946E268FC
:10A610002046904706B070BD2846FFF717BE80B5AC
:10A62000002818BF002901D08A680AB90E2002BD8F
:10A6300001238DF802304FF6F072ADF800204FF68E
:10A64000FF7343800A68C2604A6802610022828008
:10A65000028189684161684600F0F0FD02BD00009A
:10A660000246080000D1704718B585B0002A1EBF09
:10A6700041884FF6FF7399422ED09488A1422BD186
:10A68000118811291FD0392926D1818821B35389F6
:10A690008B4221D1C168F9B1012302F110018DF87B
:10A6A000003002916946D289ADF80C20C26890470B
:10A6B00049484A4AA3A1801AC008000440F0030098
:10A6C000FFF7C1FD08E0C16831B102228DF800201A
:10A6D00043806946C268904706B010BD30B50D0092
:10A6E00089B0044618BF0125202101A801F090FE81
:10A6F00000208DF801000121394803908DF80050A9
:10A700008DF8041004940221E088ADF81600ADF82D
:10A710001A100020ADF81800CDF81CD001208DF8DB
:10A7200014008DF8150001A96288606902F077FBBA
:10A7300009B030BD08B90E20704742884FF6FF714E
:10A740008A421FBFC18800290121FFF7C7BF082027
:10A750007047000070B5040088B00D46164608BF6B
:10A760000E2036D02021684601F052FE1A4A1B48BE
:10A77000101AC0080004F52E40F0020005DB00BFEF
:10A7800076A1FFF760FD072023E061884FF6FF7296
:10A79000914204D176A1FFF756FD082019E001206F
:10A7A0008DF8000003940E49029101212089ADF833
:10A7B0001200ADF816600020ADF8140006950220D6
:10A7C0008DF810008DF8111062886069694602F0FA
:10A7D00026FB08B070BD000030F5020018F502003D
:10A7E00031A5020008B90E20704741802AB1538874
:10A7F000C3801388838092880281406902F058BB2D
:10A8000041204741545420436C69656E7420657241
:10A81000726F7220686173206F6363757272656412
:10A82000206F6E20636F6E6E5F68616E646C653A58
:10A830002030582558000000705F626C655F6E75AF
:10A84000735F632D3E6576745F68616E646C6572DC
:10A85000203D202564000000705F6576742D3E6504
:10A8600076745F74797065203D20256400000000D7
:10A87000705F6576742D3E706172616D732E6469D0
:10A8800073636F76657265645F64622E7372765F60
:10A89000757569642E75756964203D202578000002
:10A8A000705F6576742D3E706172616D732E6469A0
:10A8B00073636F76657265645F64622E7372765F30
:10A8C000757569642E74797065203D2025780000C7
:10A8D000676F746F20705F6576742D3E6576745F68
:10A8E00074797065203D202564000000676F746FE7
:10A8F00020705F6576742D3E706172616D732E6499
:10A900006973636F76657265645F64622E63686104
:10A91000725F636F756E74203D2025640000000037
:10A92000705F626C655F6E75735F632D3E657674F4
:10A930005F68616E646C657220213D204E554C4C01
:10A9400000000000436C69656E742073656E646975
:10A950006E6720646174612E00000000436F6E74A6
:10A96000656E7420746F6F206C6F6E672E00000030
:10A97000436F6E6E656374696F6E2068616E646CA0
:10A980006520696E76616C69642E00001CB50478E0
:10A99000794B1B5D2BB102B0BDE81040001D02F0E9
:10A9A00024BC02B0BDE810400C3002F0ACBE1CB5B7
:10A9B0000478714B1B5D2BB102B0BDE81040001D47
:10A9C00002F068BC02B0BDE810400C3002F016BFC7
:10A9D0001CB50178694C00292ED0022924D03FD221
:10A9E000017AD9B14168097804F1180003F06EF8D2
:10A9F000A16A20B101228DF80020019006E0206AB2
:10AA0000626A101A04D000208DF80000684688475A
:10AA1000206AA18B626A101A814202D300F080F88A
:10AA200013BD0120207013BD8DF800100122C068F5
:10AA3000019000F076F810E004F12C0104F13000F0
:10AA400003F051F830B9012204F12C01201DFFF769
:10AA50009DFF13BD03208DF800006846A16A88475A
:10AA600013BD0000F8B5454E05460C0088B01F46E2
:10AA7000B26208BF07203ED06268216892B206F138
:10AA8000180003F010F8002835D1E268A16892B2EE
:10AA900006F1300003F007F868BB684639A12022B0
:10AAA000FDF788FC68690690287C00B101208DF8CC
:10AAB00014008DF81C70687C00B10E208DF8150014
:10AAC0002F4AE8680290A8680390296801916946B6
:10AAD00068680090301D03F027F860B9307028686E
:10AAE00010F1010F06D0012206F12D01301DFFF7F4
:10AAF0005EFF00E0002009B0F0BD70B51F4C267865
:10AB0000014604F1180002F0EEFF054636B10021BF
:10AB1000217000F005F808B1FEF760FE284670BD10
:10AB2000012204F12D01201D41E738B50146134DE6
:10AB300005F1300002F0CAFF04001BD12A790E494A
:10AB4000885C20B105F1080002F09AFB03E005F1F2
:10AB5000100002F023FE68B905F12C0105F1300068
:10AB600002F0C1FF30B9012205F12C01281DFFF7C9
:10AB70000DFF0446204632BD4C3F0020C42A002071
:10AB8000D1A90200FFFFFFFFFFFFFFFFFFFFFFFF55
:10AB9000FFFFFFFF00000000000000000000D601E2
:10ABA0000601000080B5012200F05AF8002818BF05
:10ABB00007280DD100F058F8002818BF072807D142
:10ABC0000A22002100F04DF8002814BF07280020B9
:10ABD00002BD80B50020FFF70FFA002818BF062835
:10ABE00006D10120FFF708FA002814BF062800202C
:10ABF00002BD10B52B4C014609886068102902D0AF
:10AC000011291FD010BDC8B901220021FFF7A3F9F7
:10AC1000002818BF07280CD100F026F8002818BF1C
:10AC2000072806D1042200F01BF8002818BF0728C7
:10AC300004D000281EBF2168002988476068401C96
:10AC4000606010BD401E606009D1FFF7ABFF0028B7
:10AC50001CBF2168002902D0BDE81040084710BD84
:10AC600002210020FFF777B9072202210120FFF718
:10AC700072B970B50B4E0C46002530605CB10120F6
:10AC8000FEF7DEFF10B10221217004E0FEF7D8FFCD
:10AC900000B10B202070706810B9FFF783FF0546E4
:10ACA000284670BDA43F002030B5DFF8B026536AB7
:10ACB000002100E0491C99420CD202EB8104A578E6
:10ACC0008478A54202BF32F821400588AC42F1D118
:10ACD000D06930BD002030BD30B59FB004460D4670
:10ACE0007C21684601F094FB03208DF80000ADF84C
:10ACF00002500194DFF86406C16909B168468847CB
:10AD00001FB030BDF0B504460D4605F2C6209FB019
:10AD10000021817016460178762041436818FFF7BC
:10AD2000C3FF07000AD068460FF24C717C22FDF782
:10AD300041FBADF8026001946846B84731462846A9
:10AD4000FFF7CAFF1FB0F0BD2DE9FC4180460E465B
:10AD500098F8C6127620414308EB010417462046B6
:10AD6000FFF7A2FF050038D0D8F8CC02062834D26D
:10AD700008EBC0107622A0F8D27208F53477D8F824
:10AD8000CC1208EBC11000F535702146FDF702FB2F
:10AD9000D8F8CC02C001002E14BF00210221395482
:10ADA00008F55376D8F8CC02C0013550D8F8CC025B
:10ADB000DFF8A855401CC8F8CC02696A88420CD15B
:10ADC000002404E0E101781871588847641C686A1F
:10ADD0008442F7D30020C8F8CC02BDE8F38138B52F
:10ADE00088B004460D462021684601F011FB04F2AC
:10ADF000C521DFF868058A78521C8A70D2B2436A8E
:10AE00009A4226D200220A7001234A78521C4A70C4
:10AE10007621D2B211FB02F1214450F822200A60BF
:10AE200000220A71ADF8103002228DF800202A4667
:10AE30000968006ACDF812100394DFF82415029116
:10AE4000694601F0ECFF50B12A462146FFF75AFF50
:10AE500005E00020C87029462046FFF73DFF09B0F5
:10AE600030BD38B5A2B990F8C6520989762200F1F2
:10AE700008045543645BA1420FD0491C198000F1BE
:10AE8000080190F8C60212FB00F2885A58800BE0C5
:10AE90000889D488411CA14201D1002032BD401C48
:10AEA0001880D088411E5980012032BD30B589B04C
:10AEB00004460D46202101A801F0AAFA00210091C4
:10AEC000762004F2C5214A7842430878224448B1EA
:10AED000411EC9B2122041435018438A5B1CADF891
:10AEE000003002E0D088ADF80000032011898DF811
:10AEF0000400ADF8021004942A4600F053F800F064
:10AF000057F809B030BD2DE9F04F89B080460C46A6
:10AF10009146202101A801F07BFA08F2C52676208F
:10AF200071783778414308EB01054FF0120B1BFB9A
:10AF300007F169182A790A31781C904209D16B46C9
:10AF400000224046FFF78DFFE8B901202070002065
:10AF500025E028798742F8DA401E87421DBF1BFB97
:10AF600007F0281800F11C0A4FF0000A6B46524601
:10AF70004046FFF776FF30B93078401C7F1C5146C1
:10AF80003070FFB2E5E70021217004208DF8040045
:10AF90004A4600F007F8CDF8108000F009F809B033
:10AFA000BDE8F08FDFF8B803009903900591704772
:10AFB00001A9DFF8A803006A01F031BF70B50446AB
:10AFC0000D4604F5317176208A784243A3182A8809
:10AFD000C888824236D1688858BBEA68C3F8062020
:10AFE0000A78E888134653FA80F3062B02DC8018AF
:10AFF000087014E006200870DFF86863DFF8680363
:10B000000FF26831861BF608360446F00206304619
:10B01000FFF719F90FF274313046FFF714F9298858
:10B020002046FFF743FF68B12A882146BDE87040FB
:10B0300068E600212046FFF787FE29882046BDE804
:10B040007040CCE670BD2DE9FE4F0D468246288843
:10B05000BAF8CA12884273D10AF2C5244FF07609B1
:10B06000607819FB00F00AEB0006688800284ED1D2
:10B070003079E988804658FA81F2062A02DC0818FD
:10B08000307113E006203071B64FB74832880FF2A6
:10B090004431C71BFF083F0447F002073846FFF75B
:10B0A000D5F80FF278313846FFF7CDF80A204FF087
:10B0B000000B019012E0019901FB0BF1294407F10B
:10B0C0000A0008310A22FDF765F90020B882F882EB
:10B0D0003883788308F101080BF1010B122000FB83
:10B0E00008F0371830798045E5D36278398819FB44
:10B0F00002F90AEB09021289914208D2062806D009
:10B10000207050462988FFF7D1FE40B918E0002092
:10B11000207069462A885046FFF7F5FE20B12A883C
:10B120005146FFF7EFFD0BE09DF8000040B12A8883
:10B1300001215046FFF708FE29885046FFF74FFED1
:10B14000BDE8F78FF8B50D4604462888B4F8CA1252
:10B15000884254D104F2C5227620517817784143B1
:10B160006318122003F10A064743688800283E440A
:10B1700046D100274FF4245C0CE0718900291CBFE4
:10B18000B089002805D0F18900291CBF308A002829
:10B1900036D17F1CE888874232D206207843284483
:10B1A0004189B1EB0C010BD0491E0CD0491E04D0D3
:10B1B000891F04BF00893082DFE700897081DCE7E6
:10B1C0000089B081D9E70089F081D6E7401C107072
:10B1D00069462A882046FFF796FE20B12A88214634
:10B1E000FFF790FDF1BD9DF8000040B12A880121D4
:10B1F0002046FFF7A9FD29882046FFF7F0FDF1BDA5
:10B2000000208DF8000010781B79411C9942DDD197
:10B2100001208DF80000E9E700281CBF0168002923
:10B2200001D0406808B90E2070474C4A0023536291
:10B23000106201231376D1610020704738B50400F5
:10B2400001D10E2032BD454D287E012801D00820B5
:10B2500032BD2046FFF728FD38B9686A062806D2B5
:10B26000216845F82010401C6862002032BD04208F
:10B2700032BDF8B50D4688B004464FF4BA6101F00E
:10B28000C7F820216846354E01F0C2F8306A2946D9
:10B2900001F00EFE20BB04F2C527A4F8CA52C4F880
:10B2A000CC02B870787038707621787811FB00F194
:10B2B000214456F820000860012202208DF8000089
:10B2C000ADF810202A460868CDF8120003946946AC
:10B2D00023480290306A01F0A2FD08B90121F970FB
:10B2E00009B0F0BD08B90E2070471C4A137E012B2F
:10B2F00001D1526A0AB90820704790F8C822002A82
:10B3000008BFFFF7B6BF112070470A46002818BFD4
:10B31000002A21D011490B7E012B1DD10188112952
:10B320000FD0302904D0322905D0332906D07047F8
:10B33000011D104642E6011D104684E6011D10461F
:10B3400000E702F5327180884A88904204D10020DB
:10B3500008704FF6FF70488070470000C03E002024
:10B3600005AD020018F5020028F502004E6F7420AA
:10B37000656E6F75676820737061636520666F72B4
:10B380002073657276696365732E0000496E63727F
:10B390006561736520424C455F44425F44495343B5
:10B3A0004F564552595F4D41585F53525620746F66
:10B3B0002062652061626C6520746F2073746F7207
:10B3C00065206D6F726520736572766963657321A0
:10B3D000000000004E6F7420656E6F756768207303
:10B3E0007061636520666F72206368617261637467
:10B3F0006572697374696373206173736F636961E4
:10B400007465642077697468207365727669636512
:10B41000203078253034582021000000496E6372B6
:10B420006561736520424C455F474154545F444217
:10B430005F4D41585F434841525320746F2062650D
:10B440002061626C6520746F2073746F7265206D6B
:10B450006F72652063686172616374657269737489
:10B4600069637320666F722065616368207365721B
:10B470007669636521000000010000000000000003
:10B4800000000000000000000000000000000000BC
:10B4900000000000000000000000000000000000AC
:10B4A000000000000000000000000000000000009C
:10B4B000000000000000000000000000000000008C
:10B4C000000000000000000000000000000000007C
:10B4D000000000000000000000000000000000006C
:10B4E000000000000000000000000000000000005C
:10B4F00000000000F7210180172141800021017127
:10B500004171FB2181711B21C1717047F8B505465E
:10B510000FF2B03084B0D0E9002300BF95A0CDE990
:10B520000223D0E90067ADF80810ADF80A10CDE9A4
:10B5300000676A4602A9284690DF040024D002F082
:10B5400023FB03468248834E8CA1861BF6083604F3
:10B5500046F001062A463046FEF77EFEBDF80000A2
:10B56000BDF80230002808BF002B05D04FEA0002CA
:10B5700095A13046FEF770FEBDF8042022B100BF51
:10B58000A1A13046FEF762FE204605B0F0BD80B5B1
:10B5900008B90E2002BD0161F72101804180FB2125
:10B5A0000171801DFFF7A6FF002002BD08B90E2023
:10B5B0007047A1F11702E12A01D3072070474180AB
:10B5C0000020704702469088002800D07047F0B5F0
:10B5D0000E468BB05E495F4CB2F80000A0A50C1B74
:10B5E000E4082404102844F001040BD011282DD0C5
:10B5F000232800F0908024286FD03A282AD055289C
:10B6000048D092E0B71D3079B871D07B012803D0C3
:10B61000022803D1708800E0308838803988788823
:10B6200088420ED20020A5DF10B90121797108E00F
:10B63000112802D10120387103E002F0A5FA00F0D0
:10B640008BF8B979F87988426FD26BE0B01DFFF7BB
:10B6500051FF6AE0B71D50893988884228BF0846E3
:10B66000788078881728B8BF17207880316900293A
:10B670001CBF7879002809D094A100F072F86946BF
:10B680007888ADF804003046326990470020787120
:10B6900038714AE0D088B71D17283988B8BF1720FD
:10B6A000884228BF0846788000203871B5DF38B15D
:10B6B00002F06AFA4FEA000276A12046FEF7C6FDC4
:10B6C0007979002931D1306900282ED081A100F08C
:10B6D00048F87888ADF8040018E0111D68462C225F
:10B6E000FCF768FEBDF80010BDF8040006EBC107CA
:10B6F0007873D6F81000C0B178A0D0E90023CDE966
:10B700000023ADF80210787B8DF804006946326999
:10B710003046904709E0B01D12898179D2B291423A
:10B7200088BF11460020FFF7F1FEB07A68B1F188BA
:10B730000020A5DF18B9B0720120F07205E01128D1
:10B7400003D002F021FA00F007F80BB0F0BD0000C2
:10B7500038F5020018F50200024629462046FEF799
:10B7600075BD0020D1E90023CDE90023ADF802002A
:10B7700070470000000000000000000073645F627A
:10B780006C655F6761705F646174615F6C656E6753
:10B7900074685F757064617465282920287265710A
:10B7A0007565737429206F6E20636F6E6E656374A8
:10B7B000696F6E20307825782072657475726E65B9
:10B7C000642025732E000000546865207265717531
:10B7D00065737465642054582F5258207061636BF0
:10B7E0006574206C656E67746820697320746F6F70
:10B7F000206C6F6E672062792025752F2575206F6C
:10B8000063746574732E00005468652072657175E9
:10B81000657374656420636F6D62696E6174696FCE
:10B820006E206F6620545820616E6420525820703C
:10B8300061636B6574206C656E67746873206973EF
:10B8400020746F6F206C6F6E6720627920257520E1
:10B850006D6963726F7365636F6E64732E000000B1
:10B8600073645F626C655F67617474635F6578635E
:10B8700068616E67655F6D74755F7265717565731C
:10B880007428292072657475726E65642025732E84
:10B890000000000073645F626C655F6761747473BD
:10B8A0005F65786368616E67655F6D74755F72650B
:10B8B000706C7928292072657475726E6564202514
:10B8C000732E00000000000000000000770A000056
:10B8D00000000000770A0000000000007ADA000093
:10B8E00000000000BFF35F8F00210160704700007F
:10B8F00080B53948002141700161BFF35F8F001DA1
:10B900003AA102F014FA002002BD80B500218DF8A2
:10B910000010684601F008F9F1EE100A20F09F00CF
:10B92000E1EE100ABFF35F8F2C48402101609DF8C3
:10B93000000001F016F900F089FA08B141DF01BDFD
:10B9400020BF40BF20BF01BD38B50446224D0121B4
:10B9500005F1100001F0A2F8BFF35F8F002839D184
:10B96000042C0CD0687880BB01212C70697006E033
:10B9700028780968884740B3281D02F0DCF9E96897
:10B980000029F5D1FEF7A6FDFEF798FC0028FBD1B3
:10B990002878032818BF02280AD000F057FA00B10F
:10B9A00033DF0F4901200860BFF34F8F20BFFDE751
:10B9B000BFF34F8F0B490C480A6802F4E062024360
:10B9C0000A60BFF34F8F00BFFDE705F11000BDE82F
:10B9D000324087E731BD0000603F002084E200E094
:10B9E000000500400CED00E00400FA0584F80200B8
:10B9F0009CF802000400000010B5DFF8004304F1D9
:10BA00001C0002F0C9FAD4E90223002110185941A0
:10BA1000D4E90423994206D828BF904203D2B0F15A
:10BA20007F4061F1FF3110BDD1E90223D0E902016D
:10BA30008B4204D301D8824201D3012070470020F9
:10BA4000704700002DE970430446AC48017800259A
:10BA5000012927D1002C1CBF207F002822D0FFF70E
:10BA6000CBFFD4E902239942A8A616D301D890426D
:10BA700013D3206900B92577A069616988472269D5
:10BA8000002A1CBF207F00280CD0D4E9028918EBC3
:10BA9000020049EB0501C4E902012146304602F0EB
:10BAA000C3FA01252846BDE87083000097A002F084
:10BAB000CBBA2DE9F0478046DFF844A28F4D0FF254
:10BAC0004C2908E0002105F11C0002F05BFA304629
:10BAD000FFF7B8FFAF6148464068006800283FD0D4
:10BAE000A96981B1D0E90223A869D0E90247BB4224
:10BAF0003DD828BFA2423AD2A869007F18B1A969EF
:10BB0000484602F091FAFFF7D1FF0646FFF774FFAF
:10BB100002460B46D6E90201821A61EB03030124B7
:10BB20000027BB42CEDB01DCA242CBD3524504D975
:10BB300005F11C0002F030FA504402464FF496031F
:10BB4000002105F11C0002F0ABF910B10D28C1D1A4
:10BB5000BDE7A86910B9404602F060F9AE6106E0A1
:10BB6000A86920B94046BDE8F04702F05BB9BDE8DE
:10BB7000F08700007CB5044602F001FA5F4D38B151
:10BB8000D5E90201B0F17F4261F1FF33C5E902233B
:10BB90000021204602F0FBF900281CBFA8690028FC
:10BBA00004D0A869FFF74EFF0020A86101212046BC
:10BBB00002F0EDF918B1FFF71FFFC5E9040100F02D
:10BBC00030F800BF51A60EE04168087F20B901227D
:10BBD0000A77304602F028FA694605F17C0002F047
:10BBE000B9FA00F01EF8C0B101780029ECD00229A2
:10BBF0000CD0F1D24168A869814207BF0020A8613A
:10BC0000304602F028FAE7E700210177FFF74EFF00
:10BC10000028F9D101202870DEE72046FFF749FF10
:10BC200073BD694605F17C0002F068BA7CB5044634
:10BC30000D46324E694606F17C0002F02DFA68B1DD
:10BC400004704560694606F17C0002F047FA18B1BD
:10BC500006F11C0002F0A4F9002076BD042076BD98
:10BC60001CB500BF2CA0254C016800910823582268
:10BC700004F1240104F17C0002F0FAF9A8B9214A88
:10BC8000694604F11C0002F081F870B9012104F149
:10BC90001C0002F071F901231B4A012104F11C0070
:10BCA00002F0C5F801202070002016BD130001D15C
:10BCB000072070470068012918BF00214261016117
:10BCC00000207047D0B504460E46207F08B1002002
:10BCD000D0BDA2610027FFF78FFE80197941C4E92A
:10BCE0000201206900B126612146BDE8D040002054
:10BCF0009CE7014600200877012097E7382A0020BA
:10BD0000FFFFB40075BB0200FFFF7F0000000000D2
:10BD1000E43F002029BA0200010006002028014665
:10BD200004DA4C48C84000F001007047402808DAA7
:10BD30000122A1F1200012FA00F018BF0120C0B2C8
:10BD400070470120704700001FB5044650A16846A7
:10BD500001F0EDFF02E0684601F0EDFF029A3AB112
:10BD600051681268204690470028F4D1112000E065
:10BD7000002004B010BD00001FB5044647A168466E
:10BD800001F0D5FF06E051681268204690476846EA
:10BD900001F0D1FF029A002AF5D11FBD80B516200F
:10BDA000FFF7BCFF28B942F20100BDE80240FDF7F1
:10BDB00015BD294800784009082803D2EC21C1406C
:10BDC000C80702D442F20200EFE72449886820B194
:10BDD0000A6842F480020A6001BD21494FF48000E4
:10BDE000086001BD3EB51F4D287808B108203EBD52
:10BDF0000121A970FFF7A8FF112820D00020FFF72C
:10BE0000BBFF00BF2BA00168019100228DF800202C
:10BE1000684600F089FE144901A810DF0446401E60
:10BE20008041C00F00F00DF80CB120463EBD00204F
:10BE3000A8706870FFF7B2FF0120FFF79DFF002098
:10BE40003EBD28709DF8000000F08BBE05480078CC
:10BE500070470000FC06FFBD16E400E0743F0020C0
:10BE600000E100E0F43F002059C30200E0B500BF4C
:10BE70000DA1684601F05BFF05E048680968884746
:10BE8000684601F058FF02990029F6D107BDEDE799
:10BE9000CCF70200DCF7020008000000DCF702002B
:10BEA000ECF7020008000000ECF70200FCF70200CB
:10BEB00008000000010000077FB506460C0008BF1F
:10BEC0000E2000F079807248724D20600021684693
:10BED0000022002380E80E00012006218DF800607A
:10BEE0008DF80200ADF8041069462268202069DF51
:10BEF000694A551BED082D0445F0010528B101F0F4
:10BF000043FE024667A100F059F800F05AF88DF898
:10BF10000110402001218DF802108DF803106946B0
:10BF2000226869DF28B101F02FFE02466FA100F000
:10BF300045F800F046F8F7208DF80060ADF80200F3
:10BF400069462268232069DF28B101F01DFE024600
:10BF500079A100F033F800F034F801208DF80000EA
:10BF60006946226869DF30B101F00EFE4FEA000237
:10BF700083A100F023F800F024F84FF4B0600090A3
:10BF800069462268A12069DF28B101F0FDFD024663
:10BF90008EA100F013F800F014F88DF80010694637
:10BFA0002268A02069DF30B101F0EEFD4FEA000207
:10BFB0009BA100F003F8002004B070BD2846FEF7F6
:10BFC00045B9684600210022002380E80E00704732
:10BFD0002DE9F04106462F4D376860DF04462E48B4
:10BFE000451BED0830682D04874217D245F0020842
:10BFF000A0A14046FEF727F9D6F80030A9A13A469D
:10C000004046FEF729F92548B3A10268306892023C
:10C0100002F10052121A4046FEF718F91CB92049E5
:10C020000120087009E0204601F0AEFD4FEA000251
:10C03000B4A145F00100FEF709F92046BDE8F08102
:10C04000174900B50878ADF5017D88B903E00528EA
:10C0500018BFFDF7C3FB0DF5017D00BD51681268E7
:10C0600004A8904701A801F066FE039A002AF5D1C2
:10C070004FF4FA70ADF80000694604A861DF0028AB
:10C08000E5D100BFA7A101A801F051FEEDE7000036
:10C09000382A002018F5020070F502000C0100108B
:10C0A0000A3A002073645F626C655F6366675F7362
:10C0B000657428292072657475726E656420257315
:10C0C000207768656E20617474656D7074696E6741
:10C0D00020746F2073657420424C455F434F4E4E71
:10C0E0005F4346475F4741502E00000073645F6224
:10C0F0006C655F6366675F73657428292072657479
:10C1000075726E6564202573207768656E20617492
:10C1100074656D7074696E6720746F207365742028
:10C12000424C455F4741505F4346475F524F4C4545
:10C130005F434F554E542E0073645F626C655F63BE
:10C1400066675F73657428292072657475726E6501
:10C1500064202573207768656E20617474656D7046
:10C1600074696E6720746F2073657420424C455F5C
:10C17000434F4E4E5F4346475F474154542E0000A5
:10C1800073645F626C655F6366675F7365742829BB
:10C190002072657475726E656420257320776865FA
:10C1A0006E20617474656D7074696E6720746F20A1
:10C1B00073657420424C455F434F4D4D4F4E5F4376
:10C1C00046475F56535F555549442E0073645F627E
:10C1D0006C655F6366675F73657428292072657498
:10C1E00075726E6564202573207768656E206174B2
:10C1F00074656D7074696E6720746F207365742048
:10C20000424C455F47415454535F4346475F415456
:10C2100054525F5441425F53495A452E000000007A
:10C2200073645F626C655F6366675F73657428291A
:10C230002072657475726E65642025732077686559
:10C240006E20617474656D7074696E6720746F2000
:10C2500073657420424C455F47415454535F4346D5
:10C26000475F534552564943455F4348414E474512
:10C27000442E0000496E73756666696369656E7465
:10C280002052414D20616C6C6F636174656420665F
:10C290006F722074686520536F66744465766963B5
:10C2A000652E00004368616E6765207468652052E2
:10C2B000414D207374617274206C6F636174696F97
:10C2C0006E2066726F6D203078257820746F203074
:10C2D0007825782E000000004D6178696D756D201D
:10C2E00052414D2073697A6520666F7220617070CB
:10C2F0006C69636174696F6E20697320307825788A
:10C300002E00000073645F626C655F656E61626C35
:10C310006528292072657475726E65642025732EF8
:10C320000000000008F8020028F8020008000000E1
:10C330000EB4C0B5024603A800210190009101ABE4
:10C340000121044878440C30FAF75AFF06BC5DF826
:10C3500010FB00BFFD35000072B6FEF7BBF8FDF71D
:10C36000ADFF0028FBD11048104C1149041BE40814
:10C37000240444F00100FDF766FF0E480168CA0777
:10C3800000D500BE0C4944F00200FDF75CFFBFF38E
:10C390004F8F0A490A480A6802F4E06202430A60C1
:10C3A000BFF34F8F00BFFDE758F5020018F50200FC
:10C3B00018F90200F0ED00E024F902000CED00E0B5
:10C3C0000400FA0581EA00039B0717D1820707D012
:10C3D00010F8012B11F8013BBAB19A42F6D014E0E3
:10C3E00002680B689A42A2F1013301BF934313F034
:10C3F000803F50F8042F51F8043FF3D010F8012B80
:10C4000011F8013B0AB19A42F8D0D01A7047FEE702
:10C41000002201F0AFBE38B5002818BF002A21D095
:10C420000024651C8D420FDA1588AC4203DB051928
:10C430006D789D4208D02546045D2C19641CA4B279
:10C44000EFE7138080B232BD8C420BDA005DA31C93
:10C4500000281EBF401E84B2002C03D014FA83F4BF
:10C46000A142EEDA002032BD7CB50646002014461B
:10C47000ADF80000CCB109236A463046FFF7CBFF88
:10C480000546BDF80000002818BF002D06440CD05A
:10C490002046FBF731FFA84207D12A463146204605
:10C4A00001F082FE08B9012076BD002076BD2DE99D
:10C4B000F04186B00E4600210446ADF80410104647
:10C4C00010238DF8003002AA694664DF002CB046C4
:10C4D00040D000283ED19DF8000002280DF102074F
:10C4E00004D0042807D010280AD033E003208DF8A8
:10C4F0000200022108E005208DF80200042103E07B
:10C5000007208DF80200062179700025BDF804008F
:10C5100058B9E8B201AA3B5C31462046FFF77BFFE1
:10C5200080466D1CE8B20128F0DDBDF8040088B13A
:10C530009DF800700026044401E0BE19B6B24645DD
:10C5400008DA3A4602A9A01901F02EFE0028F4D11B
:10C55000012000E0002006B0BDE8F08170B51F2882
:10C56000049D059C41EA420192BF4FF0A04600F0B5
:10C570001F00374E41EA830141EA052106EB8000A6
:10C5800041EA0441C0F8001770BD10B5314A324B82
:10C59000012449B91F2892BF191D00F01F00111D69
:10C5A00004FA00F0086010BD1F2894BF1A4600F07E
:10C5B0001F0004FA00F0106010BD000048A1085CE4
:10C5C0001F2892BF254900F01F00254938E00000D0
:10C5D00043A2105C0021D8E741A2105C0121D4E7FE
:10C5E00010B500242046FFF7F7FF641C042CF9D394
:10C5F00010BD10B500242046FFF7EAFF641C042C90
:10C60000F9D310BD36A1085C1F2892BF4FF0A0419E
:10C6100000F01F000E4901F2045101230A6803FAD9
:10C6200000F020EA02034B60104088607047000071
:10C630002CA1085C1F2892BF0A4900F01F000A497C
:10C640000968C14001F00101481E8041C00F7047D8
:10C650000003005008080050080500500405005071
:10C6600004080050100500501008005010B5014695
:10C670004FF0FF305FF000021AA39C5C8C4203D0A5
:10C68000521C042AF9D310BD104610BD15A1085C38
:10C6900070470000FEB50446E00710D55FF00005C6
:10C6A0000FA60027019700970023705D012201214A
:10C6B000FFF754FF6D1C042DF4D3FFF791FFA00783
:10C6C0000DD5002407A5002001900021009103232F
:10C6D000285D0022FFF742FF641C042CF3D3F7BD52
:10C6E000060E0F100B0C18198D4BC20703EB5000F0
:10C6F00052BFF0220F22090103791A401143017140
:10C70000704730B5864A136B1278002100E0491C4F
:10C71000914206DA13F83150A842F8D103EBC10078
:10C7200022BD002022BD38B504460D46FFF7E9FFC3
:10C7300000281CBF4268002A04D029462046BDE8D4
:10C740003840104731BD00002DE9FE438146DFF837
:10C75000D08108EB50000E4607795FEAC9704CBFE4
:10C760003F0907F00F07012000214A4601F050FD64
:10C77000042F04460D463BD8DFE807F0030F141FD3
:10C780002200002E34D0012100F034F800F0C1F86E
:10C79000D8E90A012043294324E0002E0CBF0021E0
:10C7A00002210FE03EB1032100F024F801214846A8
:10C7B000FFF7B9FF1CE0012104E0CEB9042101E03C
:10C7C0001EB1032100F016F812E0002100F012F86B
:10C7D00000214846FFF7A7FF00F09BF8D8E90A01BF
:10C7E000A043A943C8E90A019DF8000000F0B9F987
:10C7F000BDE8F783484677E74948416B002249087E
:10C800003830FFF75FBA70B50024454D2878844270
:10C8100012DA286B00EBC406307801F0BFFE7178A5
:10C82000012918BF00214140491E89413078C90FB4
:10C83000FFF78AFF641CE9E7D5E90A01002291426B
:10C8400008BF904202D0BDE87040D5E770BD10B57A
:10C85000C0B2FFF756FF0446207801F09FFE6178D2
:10C86000012918BF002190EA010F01BF2C48D0E92F
:10C870000A230024A34204D1A24202D1BDE8104001
:10C88000BAE710BDF8B516460A2E04460D4601D289
:10C890000720F2BD01F0DEFD10B901F0A1FD38BBAB
:10C8A0001F4F20213C633D707E63381DFFF7B0FDB4
:10C8B0000020C7E90A001B4E1DA72846451EC0B22E
:10C8C00080B138680090E8B204EBC0018A788DF836
:10C8D0000120324614F83000694601F0C2FD0028FC
:10C8E000EBD0F2BDDFF8402010A00021FFF7DEF909
:10C8F000F2BD38B500240A4D06E0286B10F834006C
:10C90000012101F00BFE641C29788C42F5D3002034
:10C9100032BD00208DF80000684600F005B9000027
:10C92000C83D00204FC8020007C80200003E00209A
:10C930000300000001F006BF2DE9F04105460F4657
:10C940002E8A01F016FF361F040021D0002020712E
:10C95000F7190120FF1C6071A046B7FBF6F7E680CF
:10C96000FFB27F1EC8F80050002607E06179491C1D
:10C970006171C8F8000005608046761CBE4209D28D
:10C98000284601F0F6FE0028F0D1204600F005F818
:10C99000002000E02046BDE8F081F8B501460D46D4
:10C9A0004C79601E002200E0521C2D688242FBD3AD
:10C9B000002605E00F68284601F0FDFE3946761C8A
:10C9C000A642F7D3F1BD0121001D00F08BB81CB5C4
:10C9D00004460121201D00F091F800909DF8000010
:10C9E00018B92046BDE81640D7E713BD2DE9F0473A
:10C9F0001446B0F806804279256846465643361FED
:10CA00005F1903F1040CBE42BCFBF8F234BFF31A09
:10CA10002B4608FB12CC2360002A01E00068521E5E
:10CA2000FCD1A8EB0C02089F9A4693424FF00009F4
:10CA300088BF92460E4605461C46BCB105EB0C006D
:10CA4000001D06EB0903390052460EBF1946014688
:10CA50001846FBF79FFC2D68A4EB0A04D14444451B
:10CA60004FF0000CA246E8D9C246E6E7BDE8F087E1
:10CA7000E0B50192002202E0E0B5019201220092AD
:10CA800001AAFFF7B3FF07BD806800218160016143
:10CA90004161C160416001607047FEE710B5024628
:10CAA00052E8000F0C4642E8004393F0000FF7D124
:10CAB00010BD000010B5024652E8004F44EA0100E4
:10CAC00042E8000393F0000FF6D110BD10B5024606
:10CAD00052E8000F00EA010442E8004393F0000F1F
