:020000040002F8
:10600000E8600020A9D30200736B0200EB78020065
:106010008B7A0200EF8202008BA1020000000000D8
:106020000000000000000000000000007BA602004D
:10603000EFBA02000000000013BB0200C1D2020050
:10604000DBCF0200E7D20200A5BF0200F3D20200BC
:106050009BD402009DD40200E1BE02009FD4020046
:10606000A1D40200A3D40200A5D40200A7D4020048
:10607000A9D40200ABD40200ADD40200AFD4020018
:10608000B1D40200CBB80200B3D40200B5D40200F0
:10609000B7D40200B9D40200479C0200BBD402006E
:1060A000BDD40200BFD40200C1D40200C3D4020098
:1060B000C5D40200C7D402000000000000000000A8
:1060C000C9D40200CBD40200CDD40200CFD4020048
:1060D000D1D40200D3D40200D5D4020000000000C5
:1060E00000000000000000000000000000000000B0
:1060F00000000000000000000000000000000000A0
:10610000000000000000000000000000000000008F
:10611000000000000000000000000000000000007F
:10612000000000000000000000000000000000006F
:10613000000000000000000000000000000000005F
:10614000000000000000000000000000000000004F
:10615000000000000000000000000000000000003F
:10616000000000000000000000000000000000002F
:10617000000000000000000000000000000000001F
:10618000000000000000000000000000000000000F
:1061900000000000000000000000000000000000FF
:1061A00000000000000000000000000000000000EF
:1061B00000000000000000000000000000000000DF
:1061C00000000000000000000000000000000000CF
:1061D00000000000000000000000000000000000BF
:1061E00000000000000000000000000000000000AF
:1061F000000000000000000000000000000000009F
:1062000030B5DFF8B026536A002100E0491C9942FE
:106210000CD202EB8104A5788478A54202BF32F843
:1062200021400588AC42F1D1D06930BD002030BD9D
:1062300030B59FB004460D467C21684600F006FC50
:1062400003208DF80000ADF802500194DFF86406D9
:10625000C16909B1684688471FB030BDF0B5044632
:106260000D4605F2C6209FB00021817016460178C8
:10627000762041436818FFF7C3FF07000AD068463D
:106280000FF24C717C2200F031FCADF802600194F9
:106290006846B84731462846FFF7CAFF1FB0F0BD31
:1062A0002DE9FC4180460E4698F8C61276204143FF
:1062B00008EB010417462046FFF7A2FF050038D07F
:1062C000D8F8CC02062834D208EBC0107622A0F809
:1062D000D27208F53477D8F8CC1208EBC11000F56B
:1062E0003570214600F0F2FBD8F8CC02C001002E38
:1062F00014BF00210221395408F55376D8F8CC0296
:10630000C0013550D8F8CC02DFF8A855401CC8F8B9
:10631000CC02696A88420CD1002404E0E1017818BB
:1063200071588847641C686A8442F7D30020C8F813
:10633000CC02BDE8F38138B588B004460D46202173
:10634000684600F083FB04F2C521DFF868058A780F
:10635000521C8A70D2B2436A9A4226D200220A7034
:1063600001234A78521C4A707621D2B211FB02F105
:10637000214450F822200A6000220A71ADF8103042
:1063800002228DF800202A460968006ACDF8121012
:106390000394DFF824150291694600F02EFD50B1F8
:1063A0002A462146FFF75AFF05E00020C87029461B
:1063B0002046FFF73DFF09B030BD38B5A2B990F8CF
:1063C000C6520989762200F108045543645BA14254
:1063D0000FD0491C198000F1080190F8C60212FB89
:1063E00000F2885A58800BE00889D488411CA142E9
:1063F00001D1002032BD401C1880D088411E598038
:10640000012032BD30B589B004460D46202101A8D7
:1064100000F01CFB00210091762004F2C5214A788F
:1064200042430878224448B1411EC9B21220414378
:106430005018438A5B1CADF8003002E0D088ADF8FC
:106440000000032011898DF80400ADF802100494B7
:106450002A4600F053F800F057F809B030BD2DE996
:10646000F04F89B080460C469146202101A800F0EB
:10647000EDFA08F2C526762071783778414308EBAB
:1064800001054FF0120B1BFB07F169182A790A313D
:10649000781C904209D16B4600224046FFF78DFFE1
:1064A000E8B901202070002025E028798742F8DA39
:1064B000401E87421DBF1BFB07F0281800F11C0A75
:1064C0004FF0000A6B4652464046FFF776FF30B960
:1064D0003078401C7F1C51463070FFB2E5E7002148
:1064E000217004208DF804004A4600F007F8CDF82A
:1064F000108000F009F809B0BDE8F08FDFF8B803AC
:10650000009903900591704701A9DFF8A803006A7C
:1065100000F073BC70B504460D4604F53171762069
:106520008A784243A3182A88C888824236D168886C
:1065300058BBEA68C3F806200A78E888134653FA7D
:1065400080F3062B02DC8018087014E00620087027
:10655000DFF86863DFF868030FF26831861BF6081E
:10656000360446F00206304600F082FE0FF2743127
:10657000304600F07DFE29882046FFF743FF68B1D2
:106580002A882146BDE8704068E600212046FFF7D2
:1065900087FE29882046BDE87040CCE670BD2DE915
:1065A000FE4F0D4682462888BAF8CA12884273D137
:1065B0000AF2C5244FF07609607819FB00F00AEB67
:1065C0000006688800284ED13079E988804658FA5C
:1065D00081F2062A02DC0818307113E006203071BF
:1065E000B64FB74832880FF24431C71BFF083F044B
:1065F00047F00207384600F03EFE0FF27831384689
:1066000000F036FE0A204FF0000B019012E00199D5
:1066100001FB0BF1294407F10A0008310A2200F0BE
:1066200055FA0020B882F8823883788308F101088F
:106630000BF1010B122000FB08F037183079804570
:10664000E5D36278398819FB02F90AEB090212894D
:10665000914208D2062806D0207050462988FFF7BC
:10666000D1FE40B918E00020207069462A885046C3
:10667000FFF7F5FE20B12A885146FFF7EFFD0BE04A
:106680009DF8000040B12A8801215046FFF708FE1E
:1066900029885046FFF74FFEBDE8F78FF8B50D4645
:1066A00004462888B4F8CA12884254D104F2C5229C
:1066B00076205178177841436318122003F10A06B7
:1066C0004743688800283E4446D100274FF4245CA5
:1066D0000CE0718900291CBFB089002805D0F18920
:1066E00000291CBF308A002836D17F1CE8888742E9
:1066F00032D20620784328444189B1EB0C010BD0FB
:10670000491E0CD0491E04D0891F04BF0089308265
:10671000DFE700897081DCE70089B081D9E7008973
:10672000F081D6E7401C107069462A882046FFF7A2
:1067300096FE20B12A882146FFF790FDF1BD9DF815
:10674000000040B12A8801212046FFF7A9FD2988D1
:106750002046FFF7F0FDF1BD00208DF80000107815
:106760001B79411C9942DDD101208DF80000E9E739
:1067700000281CBF0168002901D0406808B90E201C
:1067800070474C4A00235362106201231376D16193
:106790000020704738B5040001D10E2032BD454DB0
:1067A000287E012801D0082032BD2046FFF728FDB1
:1067B00038B9686A062806D2216845F82010401CBE
:1067C0006862002032BD042032BDF8B50D4688B0A5
:1067D00004464FF4BA6100F039F920216846354E7D
:1067E00000F034F9306A294600F050FB20BB04F277
:1067F000C527A4F8CA52C4F8CC02B87078703870B3
:106800007621787811FB00F1214456F820000860C9
:10681000012202208DF80000ADF810202A460868F9
:10682000CDF812000394694623480290306A00F0C4
:10683000E4FA08B90121F97009B0F0BD08B90E20D9
:1068400070471C4A137E012B01D1526A0AB90820F5
:10685000704790F8C822002A08BFFFF7B6BF112082
:1068600070470A46002818BF002A21D011490B7E24
:10687000012B1DD1018811290FD0302904D03229D4
:1068800005D0332906D07047011D104642E6011D90
:10689000104684E6011D104600E702F5327180883B
:1068A0004A88904204D1002008704FF6FF7048805B
:1068B00070470000C83F00205D62020030D0020037
:1068C00040D002004E6F7420656E6F75676820734C
:1068D0007061636520666F722073657276696365A7
:1068E000732E0000496E63726561736520424C45EA
:1068F0005F44425F444953434F564552595F4D41AF
:10690000585F53525620746F2062652061626C6537
:1069100020746F2073746F7265206D6F72652073C1
:106920006572766963657321000000004E6F742004
:10693000656E6F75676820737061636520666F723E
:1069400020636861726163746572697374696373EB
:10695000206173736F63696174656420776974681B
:10696000207365727669636520307825303458204D
:1069700021000000496E63726561736520424C45D9
:106980005F474154545F44425F4D41585F43484123
:10699000525320746F2062652061626C6520746FB1
:1069A0002073746F7265206D6F7265206368617209
:1069B000616374657269737469637320666F7220B2
:1069C0006561636820736572766963652100000004
:1069D00001000000000000000000000000000000B6
:1069E00000000000000000000000000000000000A7
:1069F0000000000000000000000000000000000097
:106A00000000000000000000000000000000000086
:106A10000000000000000000000000000000000076
:106A20000000000000000000000000000000000066
:106A30000000000000000000000000000000000056
:106A4000000000000000000000000000002200F034
:106A5000B3BDF0B40246106895681318506803EB94
:106A60005004C00721D54D441FE0F0BC02F10C00DA
:106A7000704713F8017B05F8017B491EF9D1A0B1DD
:106A8000B60813F8011B06F00306032E08BF13F81F
:106A9000016B01EB06214942801C294405D011F805
:106AA000016B05F8016B401EF9D1A342DDD013F84C
:106AB000016B16F0030104BF13F8011BC91C300958
:106AC0000F28DAD113F8010B0F30D6E762B38B072A
:106AD00008D0521E11F8013B00F8013B00F0248061
:106AE0008B07F6D1830740F0208000BF103A07D310
:106AF00030B4B1E83810103AA0E83810F9D230BC00
:106B0000530724BFB1E80810A0E8081044BF51F8AB
:106B1000043B40F8043BD20724BF31F8022B20F895
:106B2000022B44BF0B7803707047121F17D35B0012
:106B300009D151F8043B20F8023B1B0C121F20F82E
:106B4000023BF6D20BE051F8043B00F8013B1B0A74
:106B500020F8023B1B0C121F00F8013BF3D238BF98
:106B6000121D521E24BF11F8013B00F8013BF8D85A
:106B70007047FEE710B50C46E18A112901DB0920B8
:106B800010BD00F034FD606008B9042010BDE28A39
:106B9000A169002318E010B50C46A16909881129E4
:106BA00001DB092010BD891C00F021FD606008B9DF
:106BB000042010BDA1690023022200F0B4FDA069E9
:106BC0000288E1696068022300F0ADFD002010BD7D
:106BD000F8B5140006460F4616D07D487D4D0FF2DD
:106BE00074310094401BC008327800043B4640F0EA
:106BF000010000F04EFBB36833B1F1683A4620461D
:106C000001B0BDE8F0401847F1BD000078B58DB087
:106C10000E460546012201A900F007FE040025D119
:106C20009DF80400BDF81410052859D8DFE800F0DD
:106C300003202D32363ABDF816203046A1DF044637
:106C4000112C13D00FF274309DF8041050F821006D
:106C500010B1029800F0FCFC002201A9284600F0C7
:106C6000E4FD2246314601A8FFF7B2FF0EB070BD29
:106C700009A807900023BDF81A20029809A900F07E
:106C800056FD05A93046A3DFD9E70DF116023046BF
:106C90009BDFD4E705A930469DDFD0E705A9304644
:106CA0009EDFCCE709A808900023029802226946DB
:106CB00000F03DFDBDF8002008990298CDF81CD0E9
:106CC000022300F034FDBDF8002005A93046AEDFF8
:106CD0000400B5D1BDF800008242B3D00C24B1E766
:106CE00000F06CF8AEE70000F0B50446ADF1240DFD
:106CF00000F01DF8B1A5142610E09DF8041055F819
:106D0000210010B1029800F0A3FC002201A938462E
:106D100000F08BFD0028F0D000F009F828B9BDF88C
:106D20000010A06871434718EFE709B0F0BDE068B4
:106D30000022694600F079BD70B505460024287828
:106D400005280E462CD8DFE800F0030C10161A1E9A
:106D50006A8A298A3046A1DF0446112C22D10020FC
:106D600070BD00F026F8A3DFF6E7298A05F11202CC
:106D700030469BDFF0E700F01CF89DDFECE700F009
:106D800018F89EDFE8E7A869028800F012F8AEDF85
:106D90000400E2D1A86901888A4203D00C2401E0F2
:106DA00000F00CF8224631462846FFF711FF01207B
:106DB00070BD05F110013046704700000448054AD7
:106DC00077A1801AC008000440F0020000F050BA19
:106DD00058D0020030D0020030B50246002014889E
:106DE00083B2A34207D2546885B234F81540A14259
:106DF00018BF401CF3D180B230BD2DE9F843040028
:106E00000D4618BF002D904624D0FFF76DFF414678
:106E10002046FFF7E1FF07462878062802DA218896
:106E20008F4201D107202FE014204743A068C019EA
:106E300000F049FD30B141462846FFF77DFF08B11B
:106E4000002021E00FF27419287859F8202032B17F
:106E5000206908B90E2017E029469047A0B9A0681C
:106E60002946C01900F08BFC06001EBF297859F88E
:106E7000210000281CBF686800F0EAFBA0684146BA
:106E8000C019FFF7C3FE3046BDE8F283F8B50446EB
:106E90000E4600250CB90E20F2BDFFF725FF314646
:106EA0002046FFF799FF218888421FD162680020A1
:106EB0004FF6FF7704E032F81330BB4206D1401C96
:106EC00083B28B42F7D3206900F08FFB6168228880
:106ED000002000E0401C83B2934206D231F81340F8
:106EE000BC42F7D121F8136000E004252846F2BD2A
:106EF0007CB504000D4618BF002D2AD0208811282B
:106F00000AD1A68831462846FFF766FFADF8000093
:106F10002988884208D173BDA0F130012029F0D31F
:106F20005038202815D2ECE702462088112809D1D4
:106F300068684FF6FF7120F812106946E86800F0A3
:106F40001EFC73BDAB681420424331469818FFF70E
:106F50005DFE73BD534420474154542070726F63EB
:106F600065647572652028256429206661696C65F1
:106F700064206F6E20636F6E6E656374696F6E2040
:106F800068616E646C65202564207769746820658B
:106F900072726F723A203078253038582E00000017
:106FA000556E696D706C656D656E746564204741E2
:106FB0005454205265717565737400000000000020
:106FC000756B0200000000000000000000000000DF
:106FD000976B020080B5DFF8A00500210170DFF893
:106FE0009C0500F002FB20B90FF2C05000F074FCC9
:106FF000002002BD30B591B1DFF88425DFF884159B
:107000000568DFF88435511A002200E0521CB2EB0B
:10701000D10F06D233F82240AC42F7D102600020F3
:1070200030BD052030BD01B56846FFF7E3FF28B944
:10703000DFF85815009851F8300002BD002002BD5D
:1070400000000000491EDFF84425032981B002EB4F
:10705000C0000BD8DFE801F002040608022006E0B9
:10706000042004E0007902E0407900E0002001B053
:10707000704781B0024600201368C3F380029AB1C2
:1070800003F00300012802D0022807D00BE00868B3
:10709000C3F38312921C1018086004E008689B0D6B
:1070A0009B1C1B180B60012001B070477FB5DFF8F7
:1070B000C84404F5836000F055FC04F214452846EA
:1070C00000F050FCA0680090002600E0009804F159
:1070D0000C0100F00DFA0028F8D1009A04F10C011F
:1070E00002F0FF0251F8221001AA00F0F9F9F4D9D8
:1070F0000199BDF80A0001F0030101290AD0022913
:107100000FD1019906460098890DC91C00EB91002A
:10711000009006E0064601980099C0F383104118DC
:107120000091284600F020FC08B10098A06030468D
:1071300004B070BD80B50021DFF8540400F0D6FB28
:1071400080F3100002BD2DE9F84F044688469346AF
:107150001F460A9DDFF82094FFF7ECFF09F10C0AA7
:107160007E1C00042E4040EA1440E4004AF8260049
:1071700004F0380444EA8B14C4F3090409F10C0048
:1071800044EA88242F4044F0010440F82740BDE839
:10719000F18F2DE9FC41884600218DF8001015463D
:1071A000DFF8D4730446684600F0E6FB7868C8F858
:1071B0000000A61C00F029F807F21C480BE0012192
:1071C000404600F0B7FBFFF771FF0146404600F074
:1071D000B1FB00F01AF8B142F1D32DB1A40104F4CF
:1071E000707444F0050402E0A40544F00604387904
:1071F00007EB8001CC60786836189DF800007E604F
:1072000000F0D7FB0120BDE8F6817968B868C1F5C8
:107210008071411870472DE9FC4104460D46174620
:107220009846012201A94046FFF7B3FFDFF8486303
:10723000B0B10198801C002108E000F0FF0206EBCD
:10724000820357F82120DA60401C491C4145F4D3E1
:10725000FF2000904246019B29462046FFF773FF1E
:10726000307818B100F03EF80028FBD1BDE8F3817A
:1072700000230022CFE780B50092012300F012F82E
:1072800001BDE0B5009201936A460223FFF7C3FFF8
:1072900007BD1FB5069C009201930294032300F0E2
:1072A00001F81FBD6A46B6E7F8B586B00C9C0D9D87
:1072B0000E9E0F9F00F006F805970623FFF7F2FFDA
:1072C00007B0F0BD009201930294039504967047B5
:1072D000A94881684068814201D10120704700209F
:1072E000704700002DE9F84785B0FFF7F1FFD8B9E6
:1072F000A14E06F58267B860BFF34F8F06F10C010F
:10730000B068009002E0009806F10C0100F0F0F87F
:10731000002800F0C580B868002840F0C18070687F
:1073200000998142EFD3B0600020B6E0029965F386
:107330009F51029105F1080100F059F95FEA000937
:107340004DD000F09BF900F0C5F8009901F0FF0165
:10735000C1F58070800006F10C02A84202EB8101A9
:1073600017D228B9AA4606F10C010024002503E033
:10737000824606F10C042D1A5FFA8AFA0823524657
:10738000484600F0D0F94CB10AF10803EAB22146B0
:1073900001E008232A46484600F0C5F9009808F1A4
:1073A000030100EB9100009038E0029901F0030125
:1073B000012959D10299029AC1F383110529C8BF45
:1073C000062122F4707242EA811202920299C1F3FC
:1073D0008311891C890000F00AF95FEA000943D093
:1073E00000F04CF900F076F84FF00808002410E0A7
:1073F0000098411C009106F10C0500F0FF0005EB20
:10740000800143460422484600F08DF908F1040843
:10741000641C0298C0F383108442E9D33C68B868C6
:1074200070B1484600F02EF932E0E0684179012958
:1074300004D122681368494620469847E0680468EA
:10744000002CF2D1484600F01DF900208DF8040010
:1074500001A800F091FAB86808B90099B1609DF8E8
:10746000040000F0A6FA13E03C6805E021688A6891
:1074700020469047E0680468002CF7D14548414A0F
:1074800045A1801AC008000440F00200FFF7F0FE9A
:10749000FFF71EFF401E8041C00F06B0BDE8F08719
:1074A0000020009A06F10C0102F0FF0251F82210B0
:1074B00002AA00F015F8F4D90299304801F003014E
:1074C00002297FF472AF029DAD0DA846502DA8BFD2
:1074D00050252BE70023082202A9484600F023B9D3
:1074E00042F82010401C0099491C01280091704767
:1074F00000F0FF0001EB80006946BAE530B50246B6
:1075000000201D4BD3F8101400E0096889B1C96848
:107510000C798442F9D1401C0A28F3DB4FF0FF308C
:1075200030BDC9680D682560D3F81034D9680A6089
:1075300030BD10F1010FFBD0D1680871D3F81014E1
:10754000D4680029EDD1C3F81024216030BD10B5F6
:107550000948D0F810440121017008E0E1680120D9
:1075600048712046226851688847E0680468002C0A
:10757000F4D110BD00000000F433002060D30200FD
:10758000C8D0020030D002000000000030D002005D
:107590001038002070D002004261636B656E647326
:1075A00020666C757368656400000000383E00203A
:1075B0007F0000001440002000B500BF1300964675
:1075C0009446103928BFA0E80C50FAD85FEA417CF5
:1075D00028BF0CC048BF40F8042BC90728BF20F8BB
:1075E000022B48BF00F8012B00BD00F0FDB92DE9CA
:1075F000F04105460F462E8A00F00DFA361F0400B2
:1076000021D000202071F7190120FF1C6071A046D5
:10761000B7FBF6F7E680FFB27F1EC8F800500026E1
:1076200007E06179491C6171C8F800000560804677
:10763000761CBE4209D2284600F0EDF90028F0D1B0
:10764000204600F005F8002000E02046BDE8F0816B
:10765000F8B501460D464C79601E002200E0521C30
:107660002D688242FBD3002605E00F68284600F013
:10767000F4F93946761CA642F7D3F1BD0121001D6D
:1076800000F058B91CB504460121201D00F05EF938
:1076900000909DF8000018B92046BDE81640D7E7D5
:1076A00013BD2DE9F0471446B0F8068042792568ED
:1076B00046465643361F5F1903F1040CBE42BCFB1D
:1076C000F8F234BFF31A2B4608FB12CC2360002AD1
:1076D00001E00068521EFCD1A8EB0C02089F9A46FC
:1076E00093424FF0000988BF92460E4605461C465D
:1076F000BCB105EB0C00001D06EB09033900524636
:107700000EBF194601461846FFF7E0F92D68A4EBB5
:107710000A04D14444454FF0000CA246E8D9C246C1
:10772000E6E7BDE8F087E0B50192002202E0E0B5AF
:1077300001920122009201AAFFF7B3FF07BD806802
:10774000814234BF491C00210846704701460A683F
:1077500010685268824201D3101A70478968491C28
:10776000081A1018704710B501680C684968FFF7CF
:10777000E6FFA04201D1012010BD002010BD2DE97F
:10778000FC41054600260F468DF8006000F094F895
:107790002846FFF7E8FF5FEA00081CBF287C0028A6
:1077A00041D12868446841682846FFF7C8FF296826
:1077B000B8F1000F486005D009682846FFF7BFFF01
:1077C00029680860EA68012A06D0022A08D0042A3B
:1077D0000BD0082A0ED015E069683878085518E0F3
:1077E0006968388821F8140013E06968386841F83E
:1077F00024000EE06A68D7E9000102EBC402C2E986
:10780000000106E0686802FB040439462046FFF7E1
:107810005DF92846FFF79AFF29688B68984238BFC0
:107820001846886000E0042641E02DE9FC4104464A
:1078300000260D4690468DF8006000F03DF8204689
:1078400000F041F890BB20680768B8F1000F05D13F
:1078500001682046FFF773FF21680860E268012A8B
:1078600006D0022A08D0042A0BD0082A0ED015E030
:107870006068C05D28701AE0606830F817002880E2
:1078800015E0606850F82700286010E0606800EBA1
:10789000C700D0E90023C5E9002308E0616802FBC6
:1078A000071739462846FFF711F900E0052600F0D2
:1078B00006F83046BDE8F681684600F05DB89DF8F0
:1078C000000000F076B8006801684068814201D18C
:1078D00001207047002070478068002181600161AD
:1078E0004161C160416001607047FEE710B502462A
:1078F00052E8000F0C4642E8004393F0000FF7D126
:1079000010BD000010B5024652E8004F44EA0100E5
:1079100042E8000393F0000FF6D110BD10B5024607
:1079200052E8000F00EA010442E8004393F0000F20
:10793000F6D110BD10B5024652E8004F04EB01002D
:1079400042E8000393F0000FF6D110BD10B50246D7
:1079500052E8004FA4EB010042E8000393F0000F4F
:10796000F6D110BD0121CDE70021D7E7EFF310805C
:1079700072B6704762B6704738B50446FFF7F6FF37
:10798000154A916871B9012393601449144B1D681D
:107990000D4015601960596851604FF0FF31596012
:1079A000002100E00121217010B9BDE83140E1E77C
:1079B00031BD10B5084CA16869B160B9FFF7D6FFB9
:1079C000084922680A6062684A600021A16010B913
:1079D000BDE81040CEE710BD68400020FC06FFBDAA
:1079E00080E100E000E100E010B508B90E2010BD14
:1079F0000368426881681A60891A03E013685C1C96
:107A0000146019700B46591EDBB20268002BF5D1C9
:107A10000020107110BD38B5044600258DF80050C7
:107A20006846FFF7A9FF21686268086882420ED2A3
:107A3000421E0A601578208AE3684543A068821ACE
:107A400020681D4403799A4238BF1A460A719DF88E
:107A50000000FFF7AEFF284632BD38B50C460021C6
:107A600005468DF800106846FFF786FF2868016814
:107A70004A1C0260E868241A288AB4FBF0F00870F7
:107A80009DF80000FFF795FF31BDFEE700F020BC38
:107A900080B5DFF8200500F0DBFD08B100F018FC30
:107AA000012000F089FF18B1BDE8024000F010BCD1
:107AB00001BDF8B50146DFF80025DFF80005101A12
:107AC0000A78C0080004042A40F003001AD021D329
:107AD000062A07D01ED24868E0B105B05DF804EB75
:107AE00000F0F6BB49688A7903924A7902920A79D2
:107AF0000192CA7800928B784A780FF2EC41FFF736
:107B0000D3FB07E00FF21051FFF7B2FB05B05DF8B1
:107B100004EBBDE705B000BD0146DFF8A40401F0A9
:107B20000DB82DE9F8450546DFF88C04DFF88C74B4
:107B30000FF2105AC71BFF083F04884647F003079F
:107B40000FF2F0413846FFF793FB002600E0761C69
:107B500046450FD2A85D01F0DAFA0400F7D0112CE7
:107B6000F8D0324651463846FFF785FB204600F0F4
:107B7000AFFBECE705EB080010F8010C0D2804D171
:107B80000A2001F0C4FA1128FAD042462946DFF84B
:107B9000300401F0D1F804000CD0112CF5D02246AD
:107BA0000FF2C8413846FFF766FB2046BDE8F245B4
:107BB00000F08EBBBDE8F1857CB5054600F007F905
:107BC000C008000440F00304297840F0010019B116
:107BD000022931D033D373BDDFF8E853DFF8E06317
:107BE000B5F8F400284401F07AFAB5F8F400401C26
:107BF00081B22944A5F8F40011F8011C0A2918BF24
:107C00000D2903D0318B80B2884226D30FF28841F0
:107C10002046FFF72DFBB5F8F4202946304601F049
:107C20008BF8082804D01328F5D008B100F050FBD9
:107C30000020A5F8F40073BD0FF27C4601E00FF2BE
:107C4000AC463146FFF714FB31462046FFF710FBE8
:107C50006868BDE8764000F03BBB73BD70B5044674
:107C6000DFF85403DFF85463861B0D46F60836042C
:107C700046F003062A780FF2A0413046FFF7FBFAE0
:107C8000287818B1022826D01BD370BD0FF2B84156
:107C90003046FFF7EDFA698805F10E02204601F043
:107CA00093F808B100F014FB204601F035F808B154
:107CB00000F00EFB3046BDE870400FF2A041FFF728
:107CC000D7BA0FF2C8413046FFF7D2FAA989A8689F
:107CD000BDE8704025E70FF2D0413046FFF7C8FA03
:107CE000BDE87040D4E610B50446002000F064FE04
:107CF00008B100F0EDFA24B901F05DFA08B100F026
:107D0000E7FA012010BD38B5044600F060F821887C
:107D1000C0080004102940F003000ED0112921D022
:107D200013292ED01B2924D01F2930D0212933D04C
:107D30003B293ED056293FD031BDA14DA18800221C
:107D4000284601F041F808B100F0C2FA072000F01F
:107D500033FE08B100F0BCFAA18805F11C00FEF763
:107D60006DFD30E0237AA2880FF24C41FFF789FACB
:107D700031BD217A022929D10FF26C41FFF778FA3F
:107D800031BDA0880023002285217FDF1BE0A08871
:107D900004F1080175DF16E00FF26C41FFF768FA95
:107DA0000FF210500188ADF800106946A0888FDFEF
:107DB00009E00FF2684101E00FF27841FFF758FA4D
:107DC000A088132176DF08B100F082FA31BD7A492C
:107DD0007A48081A704738B50C4640F67721208853
:107DE000884219D17449754D4D1BED082D0445F09D
:107DF00003050FF258412846FFF73AFAA088704968
:107E0000C21E284601B00A8392B2BDE83040134634
:107E10000FF25441FFF735BA31BD10B56A4C6B49CA
:107E2000204601F080FA08B100F052FAF72120460E
:107E300001F088FA18B1BDE8104000F049BA10BD51
:107E4000042804D00A280CD1002001F049BC5C4A67
:107E50005088132176DF082803D0002818BF00F0CF
:107E600037BA704738B58AB04FF480410020FFF729
:107E7000B1F808B100F02CFA01F08AFC01F0CCFD59
:107E800008B100F025FA04A80FF22C414C4C18223E
:107E9000FEF72CFE04F5CE60009004F5EE614FF481
:107EA00080700190029103900723494A694604A813
:107EB00001F0CAF808B100F00BFA4649012000F0C1
:107EC00087FD08B100F004FA6946002001F0C3F90B
:107ED00008B100F0FDF90021CDE900113E48009005
:107EE00004F25C6501956846FEF742FC08B100F0BB
:107EF000EFF901F0C9FB08B100F0EAF901F04EFE1C
:107F000008B100F0E5F9002000906946012001F079
:107F1000AFFE08B100F0DCF9684601F035FF08B1AA
:107F200000F0D6F9FFF779FF2C482D490090019118
:107F300002956946204600F064FE08B100F0C8F9D9
:107F40006846002100220023002580E82E00012041
:107F50008DF804008DF80C0004F2EC54214A6946B7
:107F6000204600F03BFB08B100F0B2F92EA2002140
:107F7000204600F000FA08B100F0AAF900221F2103
:107F8000204600F019FA08B100F0A2F90A480B4A9D
:107F9000BFA1801AC008000440F00300FFF768F991
:107FA000FFF776FDFFF79EF90028FBD101F079FB82
:107FB000F8E70000E030002070D0020030D002006E
:107FC000F42A00209C3A00202C400020D77D02009B
:107FD000B97B0200417E0200197B02005D7C020039
:107FE0008D7A0200B37A0200436F6E6E6563746926
:107FF0006E6720746F20746172676574202530325B
:108000007825303278253032782530327825303274
:1080100078253032780000005363616E2074696DFA
:108020006564206F75742E004665617379636F6DAA
:1080300000000000526563656976696E67206461BF
:1080400074612E006170705F756172745F70757419
:10805000206661696C656420666F7220696E646574
:1080600078203078253034782E0000004661696C25
:1080700065642073656E64696E67204E5553206D8C
:108080006573736167652E204572726F7220307858
:1080900025782E2000000000526561647920746FFD
:1080A0002073656E642064617461206F7665722050
:1080B000424C45204E555300436F6D6D756E69639C
:1080C0006174696F6E206572726F72206F63637581
:1080D00072726564207768696C652068616E646C93
:1080E000696E6720554152542E0000004572726F30
:1080F00072206F6363757272656420696E204649F1
:10810000464F206D6F64756C6520757365642062E1
:108110007920554152542E00626C655F6E75735F15
:10812000635F6576745F68616E646C6520626C6520
:108130005F6E75735F6576742D3E6576745F7479D6
:108140007065203D20256400446973636F76657215
:108150007920636F6D706C6574652E00436F6E6E71
:10816000656374656420746F206465766963652057
:1081700077697468204E6F72646963205541525468
:1081800020536572766963652E000000424C455F9E
:108190004E55535F435F4556545F4E55535F545899
:1081A0005F45565400000000446973636F6E6E654E
:1081B000637465642E000000446973636F6E6E65BE
:1081C000637465642E20636F6E6E5F68616E646CAD
:1081D000653A20307825782C20726561736F6E3A8D
:1081E0002030782578000000436F6E6E65637469F7
:1081F0006F6E20526571756573742074696D656466
:10820000206F75742E00000050485920757064610D
:10821000746520726571756573742E0047415454FE
:1082200020436C69656E742054696D656F75742E9A
:108230000000000047415454205365727665722057
:1082400054696D656F75742E000000004154542010
:108250004D54552065786368616E676520636F6D66
:10826000706C657465642E00426C65204E55532019
:108270006D61782064617461206C656E677468203C
:1082800073657420746F2030782558282564290080
:10829000424C4520554152542063656E7472616CA6
:1082A000206578616D706C652073746172746564AB
:1082B0002E00000000000000140000001500000067
:1082C00000000000000000000000000000E0D701F6
:1082D0001FB5694600220023002481E81C0002909B
:1082E0006A46002144F2010001F0FEFE1FBDFEE7D8
:1082F00078B5044604F12A0085B0867A00780D46E8
:10830000A0B100F069F900F063F9334604F12C02E2
:1083100004F13601A81C8CDF05218DF800100190B6
:1083200000281FBF616C00296846884706B070BDF1
:1083300038B504460D46284601F00CFFC0B208B11E
:10834000202801DD0C2032BD94F8200008B1042063
:1083500032BD2946204601F019FF58B1284601F0E8
:10836000F9FE0246012084F8200029462046FEF747
:10837000ADFB002032BD1CB5002818BF002A01D17A
:108380000E2016BD11B1032904D013E01146BDE83B
:108390001C40CDE700F12201087908B1042016BD88
:1083A0000B881488A34206D001230B71126841F890
:1083B000202016BD072016BD7CB504000D461646CC
:1083C00001D10E2076BD15F01F0F01D1072076BD1B
:1083D00000F00DF804F12100E90744BF012101700C
:1083E000690744BF01218171C671002076BD08B9BB
:1083F0000E207047002100F8211F81710020704776
:108400002DE9F04F87B0814600208DF800000E4620
:108410008246142101A8FEF719FB09F136000590E8
:10842000484600F095F888B102208DF8040009F163
:108430002001029601A84A6A904709F168010020CC
:108440008ADF31464846FFF753FF6DE009F120000F
:10845000D346017A0691C7794078E8B101218DF8B9
:10846000001099F82040B6F81C80002500E06D1C33
:10847000E8B2A04210DA09EB4012B069414601F0BF
:10848000D3FE0028F3D09DF80C004FF0010A40F015
:1084900001008DF80C00D3467FB39DF80000401C0E
:1084A0008DF80000002509F12000047A90F806807C
:1084B000B08BADF80200002702E0002C42D17F1CF7
:1084C000F8B240453EDA09EB800000F12202BDF827
:1084D0000210B06901F0CBFE0028EED06D1C002C1C
:1084E000EDD1EDB24DB19DF80C0040F004000AF161
:1084F000010A8DF80C004FF0010B02960698B0B1FE
:108500009DF800105FFA8AF0884213D003208DF89E
:108510000400029609F12000416A09B101A88847C8
:1085200009F1680100208ADF07B0BDE8F08FBBF1D8
:10853000000FEBD000208DF8040031464846FFF7CD
:10854000D7FEE7E7002CCCD0EDB24545CBD0D4E741
:1085500081B090F83600C0F3C100012816BF03288F
:108560000120002001B0704710F8361F41F00401CF
:10857000A0220170428001F0E70150228280017048
:1085800000220121C280417070474FF4C8714186BA
:10859000062181851821C18500210186704730B5EB
:1085A00085B000F013F82A79012A0DD1606C58B11A
:1085B00004F13600042104908DF8001028798DF81C
:1085C00004006846616C884705B030BD04460D461E
:1085D00014216846FEF73ABA8BDF7047F8B50400FD
:1085E0000D4601D10E20F2BD04F144062A2132606D
:1085F00004F12A07FEF72AFAD5B128793870287BCA
:10860000B872296829B104F136000E22FEF75EFA2D
:1086100002E02046FFF7A8FFA96829B104F12C0069
:108620000822FEF753FA0BE02046FFF7AEFF07E003
:108630002046FFF799FF2046FFF7A7FF002038707C
:1086400004F1480070621F2030850020F2BD000058
:1086500018B5040085B008BF0E2029D0FFF7B8FF79
:10866000FFF7BAFF2046FFF773FF00281CBF616CBD
:10867000002904D001208DF800006846884704F1E5
:10868000680104F136008ADF0446082C18BF002C6C
:108690000DD00848DFF820301DA1C01AC008000422
:1086A000224640F00100FEF7E6FD204600E00020F3
:1086B00006B010BD60D0020030D0020030B585B0E9
:1086C000FFF784FF06208DF80000291D019104F1B9
:1086D000360128880491ADF80800616C09B168463C
:1086E000884705B030BD0A46018810290AD01B29E9
:1086F00005D01D2909D100F10801104680E6011DB1
:1087000010464CE7011D1046D8E7704700000000F6
:1087100073645F626C655F6761705F7363616E5FF6
:1087200073746172742072657475726E6564203042
:1087300078257800042838BF01F036BE0020704745
:108740002DE9F8438046894601F042FE00240428C2
:108750002FD2DFF8306300EB400175183718B9F1FC
:10876000000F14D0B9F1020F1AD01AD22C78687801
:1087700050B106F10F024FF4804106F1600001F0A4
:108780007DF908B986F80F80A878387409E006F1F9
:10879000600001F08AF9AC78387CA04209D100E091
:1087A0006C7820001CBFB169002902D0BDE8F443F9
:1087B0000847BDE8F18300780221C1E710B5B1494F
:1087C000887B48B10024204601F0CAFD641C042CBB
:1087D00006D2022CFAD0F6E7BDE8104001F0C4BD85
:1087E00010BD00002DE9FC41A64E0446707B002719
:1087F00010B17773FFF7E2FF8DF80040204617288D
:108800000190A14DDFF88482A14C00F2BE80DFE828
:1088100000F00C1515282F3A4F5559615961B76E64
:108820006E6E6E6E9DA1A7AEB7B7FFF7C7FF06F1DC
:10883000200001F03AF907460020A5E09DF80070FD
:1088400000F0A9F830B100F0A9F8022F14BF40469B
:10885000904821E001F080FD022F0CBF2046284601
:108860001AE000F098F8A0B100F098F88A4813E0F8
:1088700000F091F818B100F091F840460CE001F0DA
:108880006BFD284608E000F086F810B100F086F88D
:1088900001E000F07DF8204600219DF800203273B1
:1088A00000234FF4FA6201F0D1FD0146002218E0E6
:1088B000002001F06BFD0620307307E000F068F83F
:1088C000072061E00120707301F060FD002240F29A
:1088D000666106E00120707301F058FD00224FF43C
:1088E000005106F1200001F0C9F807464DE006F1FD
:1088F000400001F0DAF807460198D0F111001FD0CE
:10890000F7B9022817D380B2C8214843C117C90359
:1089100041EA5041C00310F57A7041F100014FF473
:10892000FA62002301F092FD0146002206F14000A8
:1089300001F0A4F80746022001F00EFD012003E03B
:10894000022001F00DFD0020B0731EE0FFF736FF9E
:10895000122019E0FFF732FF00F01AF8132013E09D
:10896000FFF72CFF012001F0F7FC14200CE0FFF7CB
:1089700025FF00F00DF8012001F0EEFC152003E0CA
:1089800001F0FBFC9DF8000030733846BDE8F6812D
:10899000002001F0E1BC002001F0DABC002001F071
:1089A000DFBC3848017DCA0744BF007BFFF71ABF10
:1089B0007047022001F0EABC80B5324A137D0021E5
:1089C000DA0702D5FFF70EFF0146084602BD000098
:1089D00070B505462B48002445618161A8071ED566
:1089E000002601220121304600F02FF8761C042ECB
:1089F000044601D2002CF4D034B940F233320421C1
:108A00003CA001F009FF044614B901F03EFF044602
:108A10002CB9224A36A0002101F024F80446E807C8
:108A200011D5012001F0E8FC2CB91D4A2EA000212F
:108A300001F018F8044634B9DFF868202BA00121B2
:108A400001F010F80446204670BD18B5034600201A
:108A5000042B14D2012A04D101290CBF03F10E0208
:108A60000022084C03EB4303234431B1022902D016
:108A700005D21A7012BD5A7012BD9A7012BD07202D
:108A800012BD0000B83D0020E803C800E803D0078D
:108A9000E8036400E8038403E8039001B787020059
:108AA000A3890200B389020010B5042817D2002957
:108AB00014BF0324002401F09BFC4FF0A04101EB04
:108AC0008000D0F8001721F44031C0F80017D0F82A
:108AD000001741EA0441C0F80017002010BD06202D
:108AE00010BD0121E0E70000D83D0020F83D002046
:108AF000183E00200D000300418702000E00030015
:108B0000418702000F0003004187020010000300AC
:108B10004187020038B50446A848A94BC01AC008CE
:108B20000D460004AFA140F00300FEF7A4FB296945
:108B300019B12046BDE83440084731BD78B585B04D
:108B400004460E4614216846FDF780FF9B489C4D65
:108B5000D4F80C20B1A1451BED082D0445F0030508
:108B600000F04CF896F80020B4A100F047F8B28865
:108B7000B8A100F043F8B279C2A100F03FF8327812
:108B8000002A02BFB0884FF6F071884204BFB17965
:108B9000012931D1C7A100F031F8327ACCA100F01F
:108BA0002DF800204FF6F173317A884213D212214A
:108BB00041433144CA89D21A05D0921E04BFC98AE2
:108BC000ADF8121005E0CA8AADF80E20098BADF899
:108BD0001010401CE8E7E06870B100BFC9A128464A
:108BE000FEF746FB7088ADF8020000218DF80010FA
:108BF0006946E2682046904706B070BD2846FEF7F9
:108C00003ABB80B5002818BF002901D08A680AB98C
:108C10000E2002BD01238DF802304FF6F072ADF840
:108C200000204FF6FF7343800A68C2604A68026101
:108C3000002282800281896841616846FDF7AAFDB1
:108C400002BD00000246080000D1704718B585B08B
:108C5000002A1EBF41884FF6FF7399422ED0948898
:108C6000A1422BD1118811291FD0392926D1818801
:108C700021B353898B4221D1C168F9B1012302F19B
:108C800010018DF8003002916946D289ADF80C20B0
:108C9000C268904749484A4AA3A1801AC008000404
:108CA00040F00300FEF7E4FA08E0C16831B10222A7
:108CB0008DF8002043806946C268904706B010BD19
:108CC00030B50D0089B0044618BF0125202101A848
:108CD000FDF7BCFE00208DF801000121394803900A
:108CE0008DF800508DF8041004940221E088ADF84E
:108CF0001600ADF81A100020ADF81800CDF81CD001
:108D000001208DF814008DF8150001A962886069B2
:108D1000FEF773F809B030BD08B90E2070474288DD
:108D20004FF6FF718A421FBFC18800290121FFF75A
:108D3000C7BF08207047000070B5040088B00D461A
:108D4000164608BF0E2036D020216846FDF77EFE6D
:108D50001A4A1B48101AC0080004F52E40F0020001
:108D600005DB00BF76A1FEF783FA072023E06188C8
:108D70004FF6FF72914204D176A1FEF779FA0820EE
:108D800019E001208DF8000003940E4902910121A1
:108D90002089ADF81200ADF816600020ADF814007F
:108DA000069502208DF810008DF811106288606918
:108DB0006946FEF722F808B070BD000048D00200F6
:108DC00030D00200158B020008B90E207047418098
:108DD0002AB15388C38013888380928802814069B6
:108DE000FEF754B841204741545420436C69656EE6
:108DF00074206572726F7220686173206F6363758F
:108E000072726564206F6E20636F6E6E5F68616E54
:108E1000646C653A2030582558000000705F626C21
:108E2000655F6E75735F632D3E6576745F68616E16
:108E3000646C6572203D202564000000705F6576DB
:108E4000742D3E6576745F74797065203D202564CD
:108E500000000000705F6576742D3E706172616D78
:108E6000732E646973636F76657265645F64622EE6
:108E70007372765F757569642E75756964203D201F
:108E800025780000705F6576742D3E706172616DAB
:108E9000732E646973636F76657265645F64622EB6
:108EA0007372765F757569642E74797065203D20E4
:108EB00025780000676F746F20705F6576742D3EB3
:108EC0006576745F74797065203D2025640000002C
:108ED000676F746F20705F6576742D3E706172618C
:108EE0006D732E646973636F76657265645F646227
:108EF0002E636861725F636F756E74203D20256418
:108F000000000000705F626C655F6E75735F632DBB
:108F10003E6576745F68616E646C657220213D20E9
:108F20004E554C4C00000000436C69656E74207314
:108F3000656E64696E6720646174612E00000000D4
:108F4000436F6E74656E7420746F6F206C6F6E6704
:108F50002E000000436F6E6E656374696F6E20684B
:108F6000616E646C6520696E76616C69642E0000C8
:108F70001CB50478794B1B5D2BB102B0BDE81040E5
:108F8000001D01F08ABD02B0BDE810400C3002F0B7
:108F900000B81CB50478714B1B5D2BB102B0BDE865
:108FA0001040001D01F0CEBD02B0BDE810400C30F5
:108FB00002F06AB81CB50178694C00292ED002294C
:108FC00024D03FD2017AD9B14168097804F1180060
:108FD00002F0C0F9A16A20B101228DF800200190B1
:108FE00006E0206A626A101A04D000208DF80000A2
:108FF00068468847206AA18B626A101A814202D3B0
:1090000000F080F813BD0120207013BD8DF8001012
:109010000122C068019000F076F810E004F12C0104
:1090200004F1300002F0A3F930B9012204F12C015F
:10903000201DFFF79DFF13BD03208DF8000068463B
:10904000A16A884713BD0000F8B5454E05460C00DF
:1090500088B01F46B26208BF07203ED06268216810
:1090600092B206F1180002F062F9002835D1E268E8
:10907000A16892B206F1300002F059F968BB684667
:1090800039A12022FDF732FD68690690287C00B1E5
:1090900001208DF814008DF81C70687C00B10E2042
:1090A0008DF815002F4AE8680290A8680390296897
:1090B0000191694668680090301D02F079F960B945
:1090C0003070286810F1010F06D0012206F12D0141
:1090D000301DFFF75EFF00E0002009B0F0BD70B565
:1090E0001F4C2678014604F1180002F040F90546AD
:1090F00036B10021217000F005F808B1FFF7E8F85B
:10910000284670BD012204F12D01201D41E738B52C
:109110000146134D05F1300002F01CF904001BD18B
:109120002A790E49885C20B105F1080001F000FDA4
:1091300003E005F1100001F077FF68B905F12C019B
:1091400005F1300002F013F930B9012205F12C01CC
:10915000281DFFF70DFF0446204632BD9840002031
:10916000B42A0020B58F0200FFFFFFFFFFFFFFFFC3
:10917000FFFFFFFFFFFFFFFF0000000000000000F7
:109180000000D6010601000080B5012200F05AF867
:10919000002818BF07280DD100F058F8002818BF84
:1091A000072807D10A22002100F04DF8002814BF3B
:1091B0000728002002BD80B50020FFF792FC0028A0
:1091C00018BF062806D10120FFF78BFC002814BF2A
:1091D0000628002002BD10B52B4C014609886068A6
:1091E000102902D011291FD010BDC8B901220021B9
:1091F000FFF72BFC002818BF07280CD100F026F839
:10920000002818BF072806D1042200F01BF8002808
:1092100018BF072804D000281EBF216800298847EE
:109220006068401C606010BD401E606009D1FFF79F
:10923000ABFF00281CBF2168002902D0BDE8104008
:10924000084710BD02210020FFF7FFBB07220221C3
:109250000120FFF7FABB70B50B4E0C4600253060BD
:109260005CB10120FFF766FA10B10221217004E021
:10927000FFF760FA00B10B202070706810B9FFF79B
:1092800083FF0546284670BDA4400020F7210180D9
:1092900017214180002101714171FB2181711B2146
:1092A000C1717047F8B505460FF2B03084B0D0E90F
:1092B000002300BF95A0CDE90223D0E90067ADF8F7
:1092C0000810ADF80A10CDE900676A4602A92846E1
:1092D00090DF040024D002F09BF803468248834EBE
:1092E0008CA1861BF608360446F001062A46304655
:1092F000FDF7C7FFBDF80000BDF80230002808BF29
:10930000002B05D04FEA000295A13046FDF7B9FFCA
:10931000BDF8042022B100BFA1A13046FDF7ABFF8C
:10932000204605B0F0BD80B508B90E2002BD016130
:10933000F72101804180FB210171801DFFF7A6FF0D
:10934000002002BD08B90E207047A1F11702E12AE2
:1093500001D3072070474180002070470246908863
:10936000002800D07047F0B50E468BB05E495F4CC8
:10937000B2F80000A0A50C1BE4082404102844F057
:1093800001040BD011282DD0232800F09080242830
:109390006FD03A282AD0552848D092E0B71D3079AE
:1093A000B871D07B012803D0022803D1708800E077
:1093B000308838803988788888420ED20020A5DF2E
:1093C00010B90121797108E0112802D1012038710A
:1093D00003E002F01DF800F08BF8B979F8798842C3
:1093E0006FD26BE0B01DFFF751FF6AE0B71D5089E7
:1093F0003988884228BF0846788078881728B8BFFF
:1094000017207880316900291CBF7879002809D09D
:1094100094A100F072F869467888ADF804003046EF
:10942000326990470020787138714AE0D088B71DC2
:1094300017283988B8BF1720884228BF0846788087
:1094400000203871B5DF38B101F0E2FF4FEA0002C9
:1094500076A12046FDF70FFF7979002931D13069D7
:1094600000282ED081A100F048F87888ADF80400DB
:1094700018E0111D68462C22FDF738FBBDF80010DE
:10948000BDF8040006EBC1077873D6F81000C0B130
:1094900078A0D0E90023CDE90023ADF80210787B55
:1094A0008DF80400694632693046904709E0B01DE6
:1094B00012898179D2B2914288BF11460020FFF70C
:1094C000F1FEB07A68B1F1880020A5DF18B9B0725A
:1094D0000120F07205E0112803D001F099FF00F09F
:1094E00007F80BB0F0BD000050D0020030D00200F1
:1094F000024629462046FDF7BEBE0020D1E90023E2
:10950000CDE90023ADF80200704700000000000024
:109510000000000073645F626C655F6761705F6488
:109520006174615F6C656E6774685F7570646174A7
:1095300065282920287265717565737429206F6EFE
:1095400020636F6E6E656374696F6E203078257866
:109550002072657475726E65642025732E0000009C
:10956000546865207265717565737465642054581C
:109570002F5258207061636B6574206C656E677440
:109580006820697320746F6F206C6F6E672062793A
:109590002025752F2575206F63746574732E000068
:1095A0005468652072657175657374656420636FB6
:1095B0006D62696E6174696F6E206F662054582009
:1095C000616E64205258207061636B6574206C6515
:1095D0006E6774687320697320746F6F206C6F6E90
:1095E00067206279202575206D6963726F736563EA
:1095F0006F6E64732E00000073645F626C655F675A
:10960000617474635F65786368616E67655F6D74CC
:10961000755F72657175657374282920726574753C
:10962000726E65642025732E0000000073645F6213
:109630006C655F67617474735F65786368616E679A
:10964000655F6D74755F7265706C7928292072652D
:109650007475726E65642025732E00000000000092
:1096600000000000770A000000000000770A0000F8
:10967000000000007ADA000000000000BFF35F8FF6
:10968000002101607047000080B539480021417019
:109690000161BFF35F8F001D3AA101F08CFF002034
:1096A00002BD80B500218DF800106846FEF764F910
:1096B000F1EE100A20F09F00E1EE100ABFF35F8F79
:1096C0002C48402101609DF80000FEF772F900F07F
:1096D00099FA08B141DF01BD20BF40BF20BF01BDE5
:1096E00038B50446224D012105F11000FEF7FEF8C1
:1096F000BFF35F8F002839D1042C0CD0687880BB71
:1097000001212C70697006E028780968884740B309
:10971000281D01F054FFE9680029F5D1FDF717FF76
:10972000FDF7E0FD0028FBD12878032818BF0228A8
:109730000AD000F067FA00B133DF0F49012008605A
:10974000BFF34F8F20BFFDE7BFF34F8F0B490C488E
:109750000A6802F4E06202430A60BFF34F8F00BF61
:10976000FDE705F11000BDE8324087E731BD00009C
:109770005440002084E200E0000500400CED00E0D1
:109780000400FA0564D202007CD20200040000004A
:1097900080B501F025FF04210348FDF7AFFE034922
:1097A0000120487101BD0000B8D3020064330020DD
:1097B00010B5DFF8004304F11C0002F075F8D4E99D
:1097C0000223002110185941D4E90423994206D8F4
:1097D00028BF904203D2B0F17F4061F1FF3110BD4C
:1097E000D1E90223D0E902018B4204D301D882429D
:1097F00001D3012070470020704700002DE970431D
:109800000446AC4801780025012927D1002C1CBF53
:10981000207F002822D0FFF7CBFFD4E90223994212
:10982000A8A616D301D8904213D3206900B9257792
:10983000A069616988472269002A1CBF207F00282F
:109840000CD0D4E9028918EB020049EB0501C4E908
:1098500002012146304602F06FF801252846BDE896
:109860007083000097A002F077B82DE9F04780469A
:10987000DFF844A28F4D0FF24C2908E0002105F1DA
:109880001C0002F007F83046FFF7B8FFAF6148460A
:109890004068006800283FD0A96981B1D0E902235F
:1098A000A869D0E90247BB423DD828BFA2423AD2BC
:1098B000A869007F18B1A969484602F03DF8FFF792
:1098C000D1FF0646FFF774FF02460B46D6E90201B8
:1098D000821A61EB030301240027BB42CEDB01DCCB
:1098E000A242CBD3524504D905F11C0001F0DCFFA4
:1098F000504402464FF49603002105F11C0001F08C
:1099000057FF10B10D28C1D1BDE7A86910B9404675
:1099100001F00CFFAE6106E0A86920B94046BDE841
:10992000F04701F007BFBDE8F08700007CB50446B2
:1099300001F0ADFF5F4D38B1D5E90201B0F17F42D2
:1099400061F1FF33C5E902230021204601F0A7FFA2
:1099500000281CBFA869002804D0A869FFF74EFFA3
:109960000020A8610121204601F099FF18B1FFF7FE
:109970001FFFC5E9040100F030F800BF51A60EE05A
:109980004168087F20B901220A77304601F0D4FFF0
:10999000694605F17C0002F065F800F01EF8C0B1E0
:1099A00001780029ECD002290CD0F1D24168A869D5
:1099B000814207BF0020A861304601F0D4FFE7E7ED
:1099C00000210177FFF74EFF0028F9D10120287010
:1099D000DEE72046FFF749FF73BD694605F17C00CD
:1099E00002F014B87CB504460D46324E694606F1C5
:1099F0007C0001F0D9FF68B104704560694606F14A
:109A00007C0001F0F3FF18B106F11C0001F050FFDB
:109A1000002076BD042076BD1CB500BF2CA0254CCF
:109A2000016800910823582204F1240104F17C000C
:109A300001F0A6FFA8B9214A694604F11C0001F013
:109A40002DFE70B9012104F11C0001F01DFF01235E
:109A50001B4A012104F11C0001F071FE012020705D
:109A6000002016BD130001D10720704700680129AE
:109A700018BF00214261016100207047D0B5044643
:109A80000E46207F08B10020D0BDA2610027FFF75D
:109A90008FFE80197941C4E90201206900B1266175
:109AA0002146BDE8D04000209CE701460020087711
:109AB000012097E7282A0020FFFFB4002D9902001B
:109AC000FFFF7F0000000000DC400020E197020063
:109AD000010006002028014604DA4C48C84000F086
:109AE00001007047402808DA0122A1F1200012FA93
:109AF00000F018BF0120C0B270470120704700007D
:109B00001FB5044650A1684601F055FD02E06846C5
:109B100001F055FD029A3AB151681268204690470B
:109B20000028F4D1112000E0002004B010BD000096
:109B30001FB5044647A1684601F03DFD06E05168A7
:109B4000126820469047684601F039FD029A002AC3
:109B5000F5D11FBD80B51620FFF7BCFF28B942F232
:109B60000100BDE80240FEF7B3BB29480078400978
:109B7000082803D2EC21C140C80702D442F20200F7
:109B8000EFE72449886820B10A6842F480020A603D
:109B900001BD21494FF48000086001BD3EB51F4D55
:109BA000287808B108203EBD0121A970FFF7A8FF61
:109BB000112820D00020FFF7BBFF00BF2BA00168B9
:109BC000019100228DF800206846FDF7D5FE14496A
:109BD00001A810DF0446401E8041C00F00F00DF8C0
:109BE0000CB120463EBD0020A8706870FFF7B2FFA0
:109BF0000120FFF79DFF00203EBD28709DF800006A
:109C0000FDF7D7BE0548007870470000FC06FFBD91
:109C100016E400E06840002000E100E0E44000209D
:109C2000E9A00200E0B500BF0DA1684601F0C3FC49
:109C300005E0486809688847684601F0C0FC029959
:109C40000029F6D107BDEDE7ACD10200BCD102007E
:109C500008000000BCD10200CCD1020008000000C6
:109C6000CCD10200DCD10200080000000100000796
:109C70007FB506460C0008BF0E2000F079807248C0
:109C8000724D2060002168460022002380E80E000B
:109C9000012006218DF800608DF80200ADF8041057
:109CA00069462268202069DF694A551BED082D04AA
:109CB00045F0010528B101F0ABFB024667A100F0B9
:109CC00059F800F05AF88DF80110402001218DF864
:109CD00002108DF803106946226869DF28B101F08F
:109CE00097FB02466FA100F045F800F046F8F72018
:109CF0008DF80060ADF8020069462268232069DF14
:109D000028B101F085FB024679A100F033F800F09C
:109D100034F801208DF800006946226869DF30B10F
:109D200001F076FB4FEA000283A100F023F800F077
:109D300024F84FF4B060009069462268A12069DFE2
:109D400028B101F065FB02468EA100F013F800F087
:109D500014F88DF8001069462268A02069DF30B140
:109D600001F056FB4FEA00029BA100F003F800202F
:109D700004B070BD2846FDF77EBA68460021002277
:109D8000002380E80E0070472DE9F04106462F4D74
:109D9000376860DF04462E48451BED0830682D0407
:109DA000874217D245F00208A0A14046FDF760FAAD
:109DB000D6F80030A9A13A464046FDF762FA254898
:109DC000B3A102683068920202F10052121A4046B2
:109DD000FDF751FA1CB920490120087009E020461E
:109DE00001F016FB4FEA0002B4A145F00100FDF7B7
:109DF00042FA2046BDE8F081174900B50878ADF574
:109E0000017D88B903E0052818BFFEF761FA0DF55A
:109E1000017D00BD5168126804A8904701A801F0B7
:109E2000CEFB039A002AF5D14FF4FA70ADF800008A
:109E3000694604A861DF0028E5D100BFA7A101A8F9
:109E400001F0B9FBEDE70000282A002030D0020025
:109E500088D002000C010010933B002073645F6205
:109E60006C655F6366675F7365742829207265742B
:109E700075726E6564202573207768656E20617445
:109E800074656D7074696E6720746F2073657420DB
:109E9000424C455F434F4E4E5F4346475F474150FC
:109EA0002E00000073645F626C655F6366675F73BA
:109EB000657428292072657475726E656420257337
:109EC000207768656E20617474656D7074696E6763
:109ED00020746F2073657420424C455F4741505F8A
:109EE0004346475F524F4C455F434F554E542E00FB
:109EF00073645F626C655F6366675F73657428296E
:109F00002072657475726E656420257320776865AC
:109F10006E20617474656D7074696E6720746F2053
:109F200073657420424C455F434F4E4E5F43464736
:109F30005F474154542E000073645F626C655F6339
:109F400066675F73657428292072657475726E6523
:109F500064202573207768656E20617474656D7068
:109F600074696E6720746F2073657420424C455F7E
:109F7000434F4D4D4F4E5F4346475F56535F5555D8
:109F800049442E0073645F626C655F6366675F734C
:109F9000657428292072657475726E656420257356
:109FA000207768656E20617474656D7074696E6782
:109FB00020746F2073657420424C455F47415454B0
:109FC000535F4346475F415454525F5441425F538D
:109FD000495A452E0000000073645F626C655F6340
:109FE00066675F73657428292072657475726E6583
:109FF00064202573207768656E20617474656D70C8
:10A0000074696E6720746F2073657420424C455FDD
:10A0100047415454535F4346475F53455256494363
:10A02000455F4348414E4745442E0000496E7375D5
:10A030006666696369656E742052414D20616C6C7F
:10A040006F636174656420666F7220746865205365
:10A050006F66744465766963652E00004368616EBF
:10A060006765207468652052414D20737461727475
:10A07000206C6F636174696F6E2066726F6D203043
:10A0800078257820746F20307825782E0000000025
:10A090004D6178696D756D2052414D2073697A6507
:10A0A00020666F72206170706C69636174696F6E95
:10A0B00020697320307825782E00000073645F6279
:10A0C0006C655F656E61626C6528292072657475C8
:10A0D000726E65642025732E00000000E8D1020036
:10A0E00008D202000800000072B6FDF730FAFDF752
:10A0F000F9F80028FBD11048104C1149041BE40862
:10A10000240444F00100FDF7B3F80E480168CA07C3
:10A1100000D500BE0C4944F00200FDF7A9F8BFF3DA
:10A120004F8F0A490A480A6802F4E06202430A6053
:10A13000BFF34F8F00BFFDE770D0020030D00200A8
:10A1400000D30200F0ED00E00CD302000CED00E0C3
:10A150000400FA0500F10103810704D010F8011B87
:10A1600089B18107FAD10268B2F10131914311F04E
:10A17000803F04BF50F8042FF6E710F8011B11B11F
:10A1800010F8011BFBE7C01A7047FEE781EA0003E5
:10A190009B0717D1820707D010F8012B11F8013B5C
:10A1A000BAB19A42F6D014E002680B689A42A2F162
:10A1B000013301BF934313F0803F50F8042F51F84F
:10A1C000043FF3D010F8012B11F8013B0AB19A4279
:10A1D000F8D0D01A704738B5002818BF002A21D00F
:10A1E0000024651C8D420FDA1588AC4203DB05198B
:10A1F0006D789D4208D02546045D2C19641CA4B2DC
:10A20000EFE7138080B232BD8C420BDA005DA31CF5
:10A2100000281EBF401E84B2002C03D014FA83F421
:10A22000A142EEDA002032BD7CB50646002014467D
:10A23000ADF80000CCB109236A463046FFF7CBFFEA
:10A240000546BDF80000002818BF002D06440CD0BC
:10A250002046FFF77FFFA84207D12A463146204615
:10A2600001F010FC08B9012076BD002076BD2DE973
:10A27000F04186B00E4600210446ADF804101046A9
:10A2800010238DF8003002AA694664DF002CB04626
:10A2900040D000283ED19DF8000002280DF10207B1
:10A2A00004D0042807D010280AD033E003208DF80A
:10A2B0000200022108E005208DF80200042103E0DD
:10A2C00007208DF80200062179700025BDF80400F2
:10A2D00058B9E8B201AA3B5C31462046FFF77BFF44
:10A2E00080466D1CE8B20128F0DDBDF8040088B19D
:10A2F0009DF800700026044401E0BE19B6B2464540
:10A3000008DA3A4602A9A01901F0BCFB0028F4D1F2
:10A31000012000E0002006B0BDE8F08130B5039DCB
:10A32000049C41EA420141EA830141EA0521244AB1
:10A3300041EA044142F8201030BD012202FA00F047
:10A3400081B0204A00290CBF5060106001B07047F6
:10A350001D4900BF3BA22AE03AA2105C0021ECE7B5
:10A3600038A2105C0121E8E710B500242046FFF771
:10A37000F7FF641C042CF9D310BD10B5002420464F
:10A38000FFF7EAFF641C042CF9D310BD2DA1085C73
:10A390000D490A68012303FA00F020EA02034B602A
:10A3A0001040886070470000084900BF26A2096875
:10A3B000105CC14001F00101481E8041C00F704790
:10A3C000000700500805005004050050100500501B
:10A3D00010B501464FF0FF305FF000021AA39C5CFD
:10A3E0008C4203D0521C042AF9D310BD104610BD74
:10A3F00015A1085C70470000FEB50446E00710D5C3
:10A400005FF000050FA60027019700970023705DFD
:10A4100001220121FFF782FF6D1C042DF4D3FFF709
:10A42000A3FFA0070DD5002407A50020019000215F
:10A4300000910323285D0022FFF770FF641C042CA9
:10A44000F3D3F7BD111213140D0E0F10B3BBD9B116
:10A45000B2F5803F7DD2022A1ED98C46B1FBF2F1C3
:10A4600002FB11C31B0443EA1043B3FBF2FC02FBE3
:10A470001C3380B240EA0343B3FBF2F002FB10321C
:10A4800040EA0C4000237047022A05D98446B0FBFD
:10A49000F2F002FB10C270474AB105D100F0010290
:10A4A00049085FEA3000704700220023704701F03E
:10A4B0001DBB0B000200002100207047904271EB91
:10A4C000030CF6D3B3F5803F2FD2F0B5B3FA83F780
:10A4D000B1FA81F4A7F10F0E3D1B5340CEF12006D7
:10A4E00002FA0EF2F3415340B5F10F0746D80F3C84
:10A4F0002C444140C4F12006A040F1414140B1FB51
:10A50000F3F603FB1611A2FB0645001BA94102D27C
:10A51000761E8018594180EA010221FA0EF362FA90
:10A520000EF200215A403046F0BD30B4B1FBF3FCCE
:10A5300003FB1C11A2FB0C45001BA94103D2ACF18B
:10A54000010C8018594130BC02460B466046002180
:10A550007047B2F1807F65D3F0B5B2FA82F7B1FAF5
:10A5600081F4C7F10F063D1B22FA06F307F1110E25
:10A57000F24120355A40B5F10F07B8D94140C4F136
:10A580002006A040F1414140B1FBF3FC03FB1C114C
:10A59000A2FB0C45001BA94103D2BCF1010C8018A1
:10A5A00059410F2F12D30F3FC90341EA5041B1FB6C
:10A5B000F3F603FB1611A2FB0645D4EBC030A9410C
:10A5C00002D2761E8018594146EACC3C07B341407E
:10A5D000C7F12006B840F1414140B1FBF3F603FB5F
:10A5E0001611A2FB0645001BA94102D2761E801857
:10A5F000594180EA010221FA0EF3C7F1200462FA00
:10A600000EF20CFA07F05A402CFA04F13043F0BD78
:10A6100080EA010221FA0EF3002162FA0EF260468E
:10A620005A40F0BD8C46B1FBF2F102FB11C31B0294
:10A6300043EA1063B3FBF2FC02FB1C331B024CEA3F
:10A64000002043EA1063B3FBF2FC02FB1C331B0245
:10A650004CEA002043EA1063B3FBF2FC02FB1C331C
:10A660001B024CEA002043EA1063B3FBF2FC02FB3E
:10A670001C324CEA002000237047FEE78E4BC207D5
:10A6800003EB500052BFF0220F22090103791A4058
:10A6900011430171704730B5874A136A127800215F
:10A6A00000E0491C914206DA13F83150A842F8D173
:10A6B00003EBC10022BD002022BD38B504460D4683
:10A6C000FFF7E9FF00281CBF4268002A04D0294692
:10A6D0002046BDE83840104731BD00002DE9FE435B
:10A6E0008146DFF8D48108EB50000E4607795FEA17
:10A6F000C9704CBF3F0907F00F07012000214A46EF
:10A7000001F0F6F9042F04460D463BD8DFE807F0C8
:10A71000030F141F2200002E34D0012100F034F862
:10A7200000F0C3F8D8E906012043294324E0002EB5
:10A730000CBF002102210FE03EB1032100F024F8FC
:10A7400001214846FFF7B9FF1CE0012104E0CEB922
:10A75000042101E01EB1032100F016F812E00021EF
:10A7600000F012F800214846FFF7A7FF00F09DF81F
:10A77000D8E90601A043A943C8E906019DF80000F5
:10A78000FDF717F9BDE8F783484677E74A48416A7D
:10A79000002249082830FFF771B970B50024464DF2
:10A7A0002878844212DA286A00EBC406307801F077
:10A7B00044FB7178012918BF00214140491E89419D
:10A7C0003078C90FFFF78AFF641CE9E7D5E9060175
:10A7D0000022914208BF904202D0BDE87040D5E708
:10A7E00070BD10B5C0B2FFF756FF0446207801F0E7
:10A7F00024FB6178012918BF002190EA010F01BFF5
:10A800002D48D0E906230024A34204D1A24202D15C
:10A81000BDE81040BAE710BDF8B516460A2E04464A
:10A820000D4601D20720F2BD01F065FA10B901F022
:10A8300029FA48BB0022002300271F484662011D59
:10A84000002681E8CC00C0E90623046205701B4E97
:10A850001DA72846451EC0B280B138680090E8B2F6
:10A8600004EBC0018A788DF80120324614F83000DC
:10A87000694601F04CFA0028EBD0F2BDDFF8402029
:10A8800010A00021FFF7EEF8F2BD38B500240A4D04
:10A8900006E0286A10F83400012101F08EFA641CE9
:10A8A00029788C42F5D3002032BD00208DF80000BD
:10A8B0006846FDF761B80000403F0020E3A70200B2
:10A8C0009BA70200683F00200300000081B0002227
:10A8D000425040580090009901B0704740582DE117
:10A8E00000F20C5001E000F5A16001608260704749
:10A8F00030B5039D049C41EA420141EA830141EAEB
:10A900000521DFF8782441EA044142F8201030BDE7
:10A91000E0B500F00BF8012105E0E0B50B460021A1
:10A92000002201910092FFF7E3FF07BD0021019192
:10A930000091002301227047F8B50D4604462868AF
:10A94000DFF83C74012610F1010F05D006FA00F083
:10A9500038602868FFF7DCFF686810F1010F1CBF42
:10A960000021FFF7DAFF2068A96900F22452116084
:10A970006B7D297D0B4393646A682968FFF7B0FFFC
:10A98000287D012815D1A86810F1010F1CBF0021F6
:10A99000FFF7C3FFE86810F1010F04D086403E6066
:10A9A000E868FFF7B5FFAA68E9682068BDE8F840E5
:10A9B00099E7F1BD38B504460D4620684FF488711B
:10A9C000FFF784FF20684FF49071FFF77FFF206846
:10A9D0004FF49271FFF77AFF20684FF4A271FFF7EE
:10A9E00075FF00F044F92068DFF89813C0F80413ED
:10A9F000000B42B2690140B2002803D4DFF888039B
:10AA0000815406E0DFF8840302F00F02104400F8DE
:10AA1000041C2168090B48B2002809D4012201F066
:10AA20001F00DFF86C3349B28240490943F8212006
:10AA300031BDF8B504460D4616462179DFF85403BA
:10AA4000242212FB01F2871897F8200008B1082091
:10AA5000F2BD0FF24832206852F8211001F0A5FA39
:10AA600008B11120F2BD29462046FFF765FF7E6040
:10AA700028693860786818B1297F2046FFF79AFF67
:10AA800021680820C1F800050020B861F8617861EC
:10AA9000012087F820000020F2BDF8B505461746D2
:10AAA0002A790C462420DFF8EC1242438E1804F079
:10AAB0006040B0F1005F28D1284600F039F830BB83
:10AAC0007761B4604FF490712868FFF7FFFE286843
:10AAD0004FF4AC71FFF7FAFE70692968B36801F2B0
:10AAE0004452002713605060012088607068C8B924
:10AAF00028684FF49071FFF7F1FE044600F014F857
:10AB00000443F5D028B10F270AE01020F2BD112030
:10AB1000F2BD29680120C86000F006F80028FBD0CB
:10AB2000002070613846F2BD28684FF4AC71D5E65C
:10AB300002799849242042438818406900B10120D5
:10AB4000C0B270472DE9F84F05464FF02408287928
:10AB5000DFF8409218FB00F009EB00070E4606F004
:10AB60006040B0F1005F14D1786800244FF4047A9B
:10AB700020B12B6803F54173C3F804A09346BA696A
:10AB80006AB1FB693BB110B12868C0F804A3112079
:10AB900050E010204EE001243961584603E0C7F828
:10ABA00018B0F96000204FF48871F8610027286818
:10ABB000FFF78CFE28684FF4A271FFF787FE296823
:10ABC00001F234500660C0F804B014B901200860E6
:10ABD00005E0D1F8000240F02000C1F8000209F1C0
:10ABE0000402287918FB00F0105800BB2E4630688C
:10ABF0004FF48871FFF772FE044630684FF4A2717B
:10AC0000FFF76CFE054630684FF49271FFF766FE61
:10AC10002C430443EBD0327909F1180118FB02F8F8
:10AC200041F8087000B103271DB10F2701E0C1F8FA
:10AC300004A33846BDE8F28FF8B50346012002911F
:10AC40008DF800000192684619685A680CE0F8B562
:10AC5000024600208DF800000291002190680190CA
:10AC60005161684611685268904705B000BD206880
:10AC70004FF4AC712AE67FB50C464FF4927106464C
:10AC8000FFF72CFE06F23C55B8B14FF4927100F07C
:10AC90006FF802208DF800000021D6F88004C6F875
:10ACA0008004039028680290E0680190A161E1614E
:10ACB000684621686268904721E04FF48871304609
:10ACC000FFF70CFED8B14FF4887100F051F82968F5
:10ACD000A069814213D1E268E06960B1D6F8003220
:10ACE00023F02003C6F80032E069A0612069E0602B
:10ACF0000020E06100E0A0612046FFF79DFF00F02A
:10AD000031F858B100F032F8A06938B10021A161E2
:10AD1000E16120462968E268FFF78EFF4FF49071E9
:10AD20003046FFF7DBFD58B14FF4907100F020F88A
:10AD30000120F060606918B129692046FFF787FF9C
:10AD400000F00CF848B14FF4AC7100F011F86069F4
:10AD500018B129692046FFF77AFF7FBD4FF4AC7127
:10AD60003046BBE54FF4A2713046B7E54FF4A2710F
:10AD70003046ABE5074908487DE700000007005072
:10AD8000080500501003420000E400E018ED00E068
:10AD900000E100E0F03F00200020004075AD02001F
:10ADA00081B00022425040580090009901B0704795
:10ADB000405840E1D0F80403084018BF0120C0B259
:10ADC000704700F20C5082600160704700F5A1608E
:10ADD00001608260704730B5039D049C41EA4201E6
:10ADE00041EA830141EA0521DFF8E42441EA044114
:10ADF00042F8201030BDE0B500F00BF8012105E06D
:10AE0000E0B50B460021002201910092FFF7E3FF1D
:10AE100007BD002101910091002301227047F8B580
:10AE20000D4604462868DFF8AC74012610F1010FC6
:10AE300005D006FA00F038602868FFF7DCFF686884
:10AE400010F1010F1CBF0021FFF7DAFF2068A9698C
:10AE500000F2245211606B7D297D0B4393646A6874
:10AE60002968FFF7AEFF287D012815D1A86810F1E9
:10AE7000010F1CBF0021FFF7C3FFE86810F1010FAD
:10AE800004D086403E60E868FFF7B5FFAA68E9682D
:10AE90002068BDE8F84099E7F1BD000038B50446E8
:10AEA0000D4620684FF48E71FFF77AFF20684FF44B
:10AEB000A271FFF775FF2068DFF81C14C0F80413B7
:10AEC000000B42B2690140B2002803D4DFF80C0441
:10AED000815406E0DFF8080402F00F02104400F885
:10AEE000041C2168090B48B2002809D4012201F092
:10AEF0001F00DFF8F03349B28240490943F82120AE
:10AF000031BD2DE9F04104460D4690462179DFF828
:10AF1000D8032C2212FB01F2871807F1290670785A
:10AF200008B1082023E00FF2C832206852F821103F
:10AF300001F03BF808B1112019E029462046FFF73F
:10AF40006EFFC7F8048028693860786818B1297FD7
:10AF50002046FFF7A3FF21680420C1F80005002068
:10AF6000B861F86130707861012070700020BDE830
:10AF7000F08138B50D4604464FF48E71FFF710FF8F
:10AF8000A868296A405C2A6A521C2A62C4F81C0517
:10AF900031BD2DE9F041054617462A790E462C2091
:10AFA000DFF8441342438C18284600F03DF808B1FE
:10AFB000112023E06761A660206284F828004FF426
:10AFC0008E712868FFF7ECFE286801218160002659
:10AFD0002146FFF7CEFF606878B92F68D4F8148057
:10AFE00012E028684FF48E71FFF7E2FE0028F8D0D7
:10AFF00029680120C860002060613046BDE8F0810A
:10B0000021463846FFF7B5FF206A4045E9D24FF4A4
:10B010008E713846FFF7CCFE0028F1D194F8280055
:10B020000028F4D00F26E6E70279DFF8BC122C20C6
:10B0300042438818406900B10120C0B2704710B582
:10B0400000F090F820684FF48471FFF7A9FE2168A2
:10B050000120086010BD38B50D460446A8690028D7
:10B060004FF48471204604D1FFF79AFED4F81805F6
:10B0700031BDFFF795FE686AD4F81815EA681154D7
:10B08000686A401C686231BD2DE9FC4107462C20EE
:10B090003C79954B44431E19002370684FF40174AA
:10B0A00018B13D6805F541704460B06960B1F3695D
:10B0B00033B1706810B13968C1F8044311204FE012
:10B0C00031610123F26103E0B261F1607062F0610D
:10B0D00096F82900034304BF3846FFF7B0FF7068B5
:10B0E0003A68002839D14FF4A2711046FFF758FE94
:10B0F00038684FF49271FFF75BFE054638684FF4ED
:10B100008471FFF755FE044638684FF4A271FFF7CB
:10B110004FFE804648EA04042C43E9D058EA050073
:10B1200007D138683146FFF796FF706AB1698842E7
:10B13000DED30020B0610DB1032011E0B8F1000FA3
:10B1400018BF0F200CD196F829003968002807BFD6
:10B1500001224A6001220A6001E0C2F80443002093
:10B16000BDE8F68104464FF49271206818E6F8B500
:10B170000346012002918DF800000192684619688B
:10B180005A680CE0F8B5024600208DF800000291E4
:10B19000002190680190516168461168526890479B
:10B1A00005B000BDF8B584B005460C464FF40071FB
:10B1B000FFF700FE04F128064FF4017718B34FF4AF
:10B1C000927100F07EF8F0B14FF492712846FFF7CB
:10B1D000E7FDC5F80873707808B90121696002209D
:10B1E0008DF800000021D5F88004C5F88004039094
:10B1F000A0690290E0680190A161E1616846216860
:10B200006268904729E004212846FFF7D3FD20B368
:10B210004FF4847100F055F8F8B121462846FFF745
:10B220001AFFA069616A884217D1E06940B1E268FB
:10B23000616AA0612069E0600020E061606209E06D
:10B24000707808B901216960C5F808730020E268C8
:10B25000A061616A2046FFF78AFF4FF48E7100F00B
:10B2600030F8A8B16069216A814206D2307820B9ED
:10B2700021462846FFF77DFE0AE04FF48E712846EE
:10B28000FFF78EFD606918B161692046FFF77AFF0C
:10B290004FF4A27100F015F888B14FF4A27128465E
:10B2A000FFF77EFD707808B101212960A06930B1F7
:10B2B0000021A1612046E268616AFFF758FF05B0EE
:10B2C000F0BD284674E5084908486BE70000000017
:10B2D00000070050080500508000020000E400E074
:10B2E00018ED00E000E100E0143F002000200040E5
:10B2F000C7B2020010B50368C468828814401955AB
:10B30000C168491CC16010BD10B50368846880889D
:10B3100061180140595C117010BD10B50A46044611
:10B320000021FFF7F1FFA068401CA06010BD10B520
:10B3300009B90E2010BD130002D0541E144201D0D2
:10B34000092010BD0160511E818000218160C16013
:10B35000002010BD10B58268C36884889A1A944290
:10B3600003D3FFF7C7FF002010BD042010BD80B538
:10B370008268C3689A1A03D0FFF7CFFF002002BD8E
:10B38000052002BDF8B500E0F8B502788DF8002080
:10B390004368019382688DF80820C068194A0390B9
:10B3A00002EB8102684691685268904705B000BD83
:10B3B000F8B5044688B02678124F07EB860015468C
:10B3C00045600A6982602022487FB8556846FBF7CD
:10B3D0008DFB04962178785C40B1002D14BF0A4A99
:10B3E00000226946201DFFF724FB08E0002D14BF52
:10B3F000064A0022694604F10C00FFF782FD09B0FD
:10B40000F0BD00009840002085B3020089B302001F
:10B4100080B500F004F808B90FF23C0002BD10B589
:10B420000FF2480101F5947200E01A4691420FD2E2
:10B43000531ADB1003EBD3735B1001EBC3031C68DF
:10B44000A042F2D3844238BF03F10801EED301E0F9
:10B45000002010BD586810BD556E6B6E6F776E2062
:10B460006572726F7220636F6465000000000000F7
:10B4700030C80200010000003CC8020002000000C9
:10B480005CC802000300000080C802000400000045
:10B4900094C8020005000000A8C8020006000000D1
:10B4A000BCC8020007000000D4C802000800000069
:10B4B000ECC802000900000004C902000A000000F4
:10B4C00020C902000B00000038C902000C00000077
:10B4D00050C902000D00000064C902000E00000007
:10B4E00078C902000F00000088C9020010000000A7
:10B4F0009CC9020011000000B4C902001200000043
:10B50000C4C9020013000000DCC902008000000072
:10B51000F0C902008100000014CA0200820000008D
:10B5200030CA0200830000004CCA02008400000000
:10B530006CCA02008500000090CA0200860000006C
:10B54000B8CA020090000000D0CA020091000000BA
:10B55000F0CA02009200000010CB0200008200003E
:10B5600028CB02000182000048CB020002820000CA
:10B5700064CB02000084000080CB02000184000044
:10B58000A4CB020002840000D0CB020003840000A0
:10B59000F8CB020005E00A684B689A4209D10831ED
:10B5A00041600268416853689942F4D1002181608A
:10B5B000704782607047016009684160EAE781680E
:10B5C00051B103689A685118426881605368994282
:10B5D00002D102F10801F0E770470000000000000E
:10B5E00000F0B2BD2DE9F8431500894621D04FF097
:10B5F00000080326144F2A4609EB0801002000F03A
:10B600007BFD80442D1A68B9397891B1012400BFBF
:10B6100013A14FF47A4041F001018847641EF6D12E
:10B62000761E04D00120002D3870E4D101E0002006
:10B630003870BDE8F18380B5044A00924023044A83
:10B6400000F090FD01BD0000923B0020E5B5020036
:10B65000883F002070477047000000000000000095
:10B660000338FDD870470000000000000000000013
:10B6700028B100BFAEA1800141F001010847704729
:10B6800000EB8100C0F84025704781B00022425095
:10B6900040580090009901B0704700007CB5437994
:10B6A0008C4C8D4E04EB8305231DAA6045798B4A93
:10B6B00013F83530B21AD208120433B18CA142F01B
:10B6C0000200FBF7D5FD082076BD05680B88C5F89C
:10B6D0000835897890F904304901002B1D4602D4C1
:10B6E0007F4B595505E07F4B05F00F052B4403F8C0
:10B6F000041C90F90430190007D4012503F01F0140
:10B70000794E8D405B0946F82350211D4379012570
:10B7100001F8335090F8051044F8310042F003006E
:10B720007CA1FBF7A5FD002076BD0000006801218B
:10B73000016070470068012140F8041F70472DE93F
:10B74000F04106460F4630684FF4803500F54271EF
:10B750009046BD400D60BA000D6402F5A0721C4613
:10B7600011B2FFF792FF306828F07F423946FFF7A9
:10B7700087FF306800F54170056404B10560BDE8DD
:10B78000F081006800F54170016402B1016070470A
:10B79000006800F5427001640160704780B5006880
:10B7A00042581AB1FFF771FF012002BD002002BD0F
:10B7B0002DE9F84F88464FF4803101FA08FA054622
:10B7C000994622F07F445146FFF7E2FF2868D0F8FF
:10B7D000047500EB88013A46D1F840B541464FEA7E
:10B7E0008806FFF74DFF06F5A076286831B2FFF70F
:10B7F0004CFFABEB070727F07F47012F06D1102046
:10B80000FFF736FF286831B2FFF73FFF2868D0F80E
:10B810000475C0F844A3E11B661C21F07F41012997
:10B8200013D132464146FFF72BFF1020FFF720FFD0
:10B830002868D0F80405874224D1012251462846C1
:10B84000FFF79FFF0020BDE8F28F22464146FFF739
:10B8500017FF2B68D3F80475641EE41B6FF07F415B
:10B8600024F07F44A1EB0900A0420BD3002CE4D1CB
:10B87000324641461846FFF703FF2868D0F8040512
:10B880008742DAD00D20DEE70A46022179E74FF43D
:10B89000827183E74FF4803202FA01F178E7890080
:10B8A00001F5A07109B279E70068D0F80405704786
:10B8B00090F90410080007D4012201F01F000B4B7F
:10B8C0008240490943F82120704702490868896885
:10B8D000084700007440002038D0020030D0020039
:10B8E00000E400E018ED00E000E100E000E200E02C
:10B8F00052544320696E7374616E636520616C728B
:10B900006561647920696E697469616C697A6564DE
:10B910002E0000005254433A20696E697469616CCC
:10B92000697A65642E00000000000000000000003D
:10B930000338FDD87047000070B504460D466668B0
:10B94000306828B1A2682946904708B13668F7E701
:10B9500030682860356070BD4268116808001CBFFF
:10B9600009681160704702460020536800E01346E2
:10B970001A6822B18A42FAD108681860012070471B
:10B9800050B509B90E2050BD144694FBF3F603FBE5
:10B9900016440CB1092050BD016082810021416034
:10B9A0008160C381002050BD3CB550E8015FAAB260
:10B9B000C3891A4483899A4228BFD21A03899A42BA
:10B9C00002BFBFF32F8F002407E0C2EA050240E860
:10B9D0000123002BE9D14FF0010400F03AF81AB12D
:10B9E00000680988084436BD002036BD0A884988A9
:10B9F0008A4209D150E8011FC1EA014140E8011221
:10BA0000002AF7D101207047002070473CB550E86C
:10BA1000025F1FFAA5F2C3889A4202BFBFF32F8FBD
:10BA200000240DE0C3891A4483899A4228BFD21AA0
:10BA3000C5EA024240E80223002BE8D14FF001049E
:10BA400000F007F81AB100684988084436BD0020A4
:10BA500036BD01958DF80040019A0A609DF80020DE
:10BA6000704700000A8849888A4209D150E8021FBD
:10BA7000C1EA214140E80212002AF7D101207047B3
:10BA8000002070470300002013F0030F09D0521E5E
:10BA900022BF13F8010B11F801CBB0EB0C00F3D06F
:10BAA000704711F0030F14D1121F22BF53F8040B7B
:10BAB00051F804CB6045F7D0121D0AD200BA9CFAA7
:10BAC0008CFCB0EB0C0038BF6FF0000088BF012089
:10BAD0007047521E22BF13F8010B11F801CBB0EBD7
