:020000022000DC
:1070000000000420757302005D7302005F730200CC
:1070100061730200637302006573020000000000E8
:107020000000000000000000000000006773020084
:1070300069730200000000006B7302006D730200B0
:10704000F99102006F730200959602006F730200BF
:107050006F7302006F730200199502006F730200D4
:107060006F7302006F7302006F7302006F73020090
:107070006F7302006F7302006F7302006F73020080
:107080006F730200A98402006F7302006F73020025
:107090006F7302006F73020061C302006F7302001E
:1070A0006F7302006F7302006F7302006F73020050
:1070B0006F7302006F730200000000000000000008
:1070C0006F7302006F7302006F7302006F73020030
:1070D0006F7302006F7302006F7302006F73020020
:1070E0006F7302006F7302006F73020000000000F4
:1070F000000000006F730200000000006F730200C8
:10710000000000000000000000000000000000007F
:10711000000000000000000000000000000000006F
:10712000000000000000000000000000000000005F
:10713000000000000000000000000000000000004F
:10714000000000000000000000000000000000003F
:10715000000000000000000000000000000000002F
:10716000000000000000000000000000000000001F
:10717000000000000000000000000000000000000F
:1071800000000000000000000000000000000000FF
:1071900000000000000000000000000000000000EF
:1071A00000000000000000000000000000000000DF
:1071B00000000000000000000000000000000000CF
:1071C00000000000000000000000000000000000BF
:1071D00000000000000000000000000000000000AF
:1071E000000000000000000000000000000000009F
:1071F000000000000000000000000000000000008F
:10720000354936480A1A02D0072291438D4634493F
:1072100034480A1A06D00722914381F309880222D2
:1072200082F3148830483149314A00F044F831483B
:107230003149324A00F03FF831483249324A00F0D1
:107240003AF832483249334A00F035F83248334987
:10725000334A00F030F833483349344A00F02BF811
:1072600033483449344A00F026F83448344900227F
:1072700000F02CF833483449002200F027F8334856
:107280003349091A082902DB002202604160314AB1
:1072900090471F481F49884205D00268043003B454
:1072A000904703BCF7E700208646EC46002000210B
:1072B000294A9047FEE7884207D0521A05D0037842
:1072C00001300B700131013AF9D17047884202D088
:1072D00002700130FAE770470000042000E003204C
:1072E000000004200000042048DA0200382A0020B0
:1072F00040300020D0730200D0730200D2C80200D8
:1073000048DA0200382A0020382A002004CA020085
:1073100004CA020004CA020004CA020004CA02002D
:1073200004CA020004CA020004CA020048DA0200C9
:1073300050E002004030002040300020403000206B
:10734000C43D0020C43D0020C43D0020C43D0020B9
:10735000C45D00209D730200C5AA0200FEE7FEE79F
:10736000FEE7FEE7FEE7FEE7FEE7FEE7FEE7FEE7F5
:1073700000F002B8FFF7FCBF0F484FF00701884349
:1073800085460E4880470E48016841F4700101604F
:10739000BFF34F8FBFF36F8FFFF732BF09480A4922
:1073A0000A4A884207D0521A05D0037801300B7080
:1073B0000131013AF9D17047000004200D8C020020
:1073C00088ED00E004CA0200382A0020382A002094
:1073D0007047037813F0040216D003F00303012B67
:1073E00003D0022B09D0012070470A6800880232BE
:1073F000C0F3831002440A60F5E70B684288023349
:1074000003EB92130B60EEE7104670472DE9F04F47
:10741000DFF81CA187B00F4600230446861C0DF13F
:10742000070015468DF8073000F0D0FEDAF804208A
:107430003A60DAF8083003F580739B1A0AF21C47A9
:107440000AF583690AF21448B3421AD30020002DCA
:1074500069D004F00F039B0143F0050363F30F00B1
:10746000DAF80430DAB2033233444AF822009DF8E5
:107470000700CAF8043000F0CDFE012007B0BDE8D7
:10748000F08F0121384601F0C4F8484601F0D9F8E0
:10749000404601F0D6F8DAF808000290C0B2033096
:1074A0000AEB800002A9FFF794FF029B30BBDAB21F
:1074B0000AEB8202D16803919A1C0133DBB20AEB1A
:1074C00083030292D3F80CB001F00303012B22D006
:1074D000022B15D08346404601F0B6F810B1029B4E
:1074E000CAF808305946384601F093F8DAF80830FF
:1074F000DAF8042003F580739B1AA5E7D8B2CEE72B
:10750000BDF80E30C3F3891303334FEA1B4B02EB74
:1075100093030293DFE7BDF80C30C3F383134FEA04
:107520001B4B1344F5E7A40544F0060098E700BFA1
:1075300010310020064B074810B500221A7001F0E8
:107540001EF9044610B9044801F0D7FA204610BDD0
:107550001031002078C902001CCA0200034BD3E995
:107560000130C31A58425841704700BF1031002003
:107570002DE9F04186B0FFF7F1FF0546002840F005
:10758000ED80774CC4F81804BFF34F8FA3680293C3
:10759000DBB2033304EB830002A9FFF71AFF029B5F
:1075A00018B1D4F81824002A5AD0DAB2991C013341
:1075B00004EB8202DBB204EB8303D268DB68049342
:1075C00002F00303022B0392029154D1BDF80E3056
:1075D0006448C3F38917502F3E4628BF502606F152
:1075E000080166F38F13C1F30901ADF80E3001F005
:1075F000DEF80546002800F09C8001F007F9002322
:10760000082203A9284601F013F90299CB43DBB203
:107610000133C9B20331B6EB830F4FEA830204EBA7
:10762000810125D95FFA82F80823A6EB08062846CF
:1076300001F0FEF8F6B208F108034B4903F0FC0331
:107640003246284601F0F4F8029B033703EB970714
:107650000297D4F81834002B43D1D4F8106453E0C7
:1076600062689A4294D8A260284606B0BDE8F081CC
:1076700008233246E5E7012B5BD1BDF80C303948D1
:10768000C3F38311062928BF062161F38913023150
:1076900001F00F018900ADF80C3001F088F80546C3
:1076A000002846D001F0B2F80023082203A928469A
:1076B00001F0BEF80026BDF80C20C2F38312B3001F
:1076C000964203F10803C4D202994A1CC9B203319D
:1076D000029204EB81010422284601F0A9F8013648
:1076E000E9E7284601F096F8FFF738FF80F001003F
:1076F000C5B2B9E7F3685B7923B1336829461B68E3
:1077000030469847F3681E68002EF3D1284601F0F2
:1077100081F80DF107008DF8076000F057FDD4F8EF
:1077200018340BB9029BA3609DF8070000F072FDAE
:10773000DAE7D4F8104454B90C4B0D480D49C01A7F
:10774000C008000440F0020000F05CF8CCE72368B9
:1077500020469B689847E3681C68ECE7002583E7B0
:107760001031002078C902001C310020E0C802005E
:1077700008C9020004CA02002DE9F34704460E4678
:10778000924601A9012218469946FFF73FFE1B4F7A
:1077900010B3019D4FF00008AA1CC84508EB020178
:1077A00023D11748002100F011FF80F310000004DE
:1077B00040EA1440E4006B1C04F03804DBB2EDB284
:1077C00044F0010407EB8303033544EA881444EAD8
:1077D0008624D86047F825403B781BB1FFF7C8FEE8
:1077E0000028FBD102B0BDE8F087C9B207EB8101E8
:1077F0005AF82830CB6008F10108CEE7103100209C
:107800002C35002000231A46FFF7B6BF07B5012329
:10781000019201AAFFF7B0FF03B05DF804FB07B5C2
:10782000CDE9002302236A46FFF7A6FF03B05DF807
:1078300004FB1FB5CDE90123069B039301AA032393
:10784000FFF79AFF05B05DF804FB7FB5CDE9002393
:10785000089B0293099B03930A9B04930B9B05933C
:107860006A460623FFF788FF07B05DF804FB0000B7
:1078700038B5084B0125D3F810441D7004B938BD44
:10788000E3685D71236820465B689847E3681C687D
:10789000F4E700BF10310020C30710B507D4F02370
:1078A000054A4008145C23401943115410BD0901D6
:1078B000C9B20F23F4E700BFF835002030B5094BFB
:1078C0001C78094B196800239C4202DC00221046F8
:1078D00030BD11F83350854201EBC302F7D00133BC
:1078E000F2E700BFC83500201836002013B5044663
:1078F0000191FFF7E3FF38B143682BB101992046AE
:1079000002B0BDE81040184702B010BD034B044858
:1079100019680022490800F05EBA00BFCC3500208B
:10792000D035002010B5C0B2FFF7C8FF044600787C
:1079300001F0E4FD63785A1E53425341834208D15B
:10794000044BD3E90023134303D1BDE81040FFF7F4
:10795000DDBF10BDF035002037B54308374AD35C92
:10796000C2074CBF1B0903F00F0304460D46042B4E
:1079700025D8DFE803F003262F3C4000F9B10121B0
:10798000FFF78AFF00230DF107008DF8073000F0A4
:107990001DFC0120A4F12003C4F12001284A20FA93
:1079A00001F100FA03F30B43A040D2E90041204368
:1079B0000B43C2E900039DF8070000F02BFC03B065
:1079C00030BD002918BF0221204603B0BDE8304079
:1079D000FFF762BF49B10321FFF75EFF0121204697
:1079E00003B0BDE83040FFF781BF0121ECE700297B
:1079F000E5D10421E8E709B10321E5E7FFF74CFFF2
:107A000029462046FFF772FF0DF107008DF8075059
:107A100000F0DCFB0120A4F12003C4F12001084A9E
:107A200020FA01F100FA03F30B43A040D2E9004130
:107A300024EA000021EA0303BBE700BFF835002079
:107A4000F03500202DE9F041124E134F0024337819
:107A5000A34208DC114BD3E90023134318D0BDE83F
:107A6000F041FFF753BF3D6805EBC40815F834003B
:107A700001F044FD98F801305A1E53425341181A40
:107A80004142414115F83400FFF766FF0134DEE75B
:107A9000BDE8F081C835002018360020F035002000
:107AA000092AF7B505460C4616463ED901F04EFCAC
:107AB000E8B11F4B1F481D601F4B204F1C70204B0F
:107AC000002120221E6004F07AFE1E4B00200021BF
:107AD000C3E90001013CE4B20326FF2C0DD11A4A90
:107AE0001A48002103B0BDE8F04000F069B901F088
:107AF000E9FB0028DDD003B0F0BD9DF8063015F895
:107B000034008DF8046005EBC40223F007038DF800
:107B1000063001A993788DF805303A4601F020FC33
:107B2000013CE4B20028D8D0E5E70720E3E700BF36
:107B300018360020F8350020C835002025790200CD
:107B4000CC350020F0350020457A020034CA02000E
:107B500070B5084D084E00242B789C4201D30020BC
:107B600070BD3368012113F8340001F079FC013451
:107B7000F2E700BFC8350020183600201FB50021ED
:107B8000039001AA44F20100CDE9011100F004F8CC
:107B900005B05DF804FB000038B572B6FFF768FE6B
:107BA000FFF7E6FC0028FBD1104B114C114D124998
:107BB000E41AE408240444F00100FFF723FED5F89A
:107BC000F030DB0700D500BE0C4944F00200FFF79F
:107BD00019FEBFF34F8FEA68094B02F4E0621343CA
:107BE000EB60BFF34F8F00BFFDE700BFE0C80200AE
:107BF00008C9020000ED00E038CA020044CA0200D1
:107C00000400FA0549B152B1531E1A4007D18260EF
:107C100001608380C260104670470E2070470920C3
:107C2000704710B58468C2688388121B934208D3DA
:107C3000C26813400268D154C3680133C360002096
:107C400010BD0420FCE78268C3689A420AD08268AB
:107C5000838813400268D35C0B70836801338360B0
:107C6000002070470520704710B5D0E90243D1E9E4
:107C70000202A04272EB03032CBF0120002010BDC2
:107C800008B50A4800F0F9FB094AD2E90031C018EA
:107C9000084BD3E9002341F10001904271EB03034B
:107CA00003D210F1807041F1000108BD382A002094
:107CB000203600209836002037B505460C460A4885
:107CC00001A900F00EFC60B10570446001A90648EE
:107CD00000F031FC18B1054800F0D4FB002003B0DF
:107CE00030BD0420FBE700BF84360020382A002086
:107CF00038B5184B1B78044613B90025284638BD03
:107D00000028FAD0037F03F0FF05002BF5D0FFF722
:107D1000B7FFD4E90223904271EB030314D3236924
:107D200003B92377D4E90530984721690029E4D0C5
:107D3000237F03F0FF05002BDFD0D4E902325B186C
:107D400042F10002C4E902320348214600F0F4FE89
:107D5000D4E700BF2836002060CA020013B5114BDB
:107D600011491868019008231048582200F0A6FB1A
:107D7000044698B90E4A0F4801A900F06FFA04466C
:107D800060B90C48012100F05BFB01230A4A094855
:107D9000194600F0BDFA094B01221A70204602B0C4
:107DA00010BD00BF5CCA02002C36002084360020C3
:107DB000217E0200382A0020FFFF7F0028360020A5
:107DC0003AB103685A614A1E51425141196100207B
:107DD00070470720704738B5037F04460D4683B9C6
:107DE0008261FFF74DFF2369281841F10001C4E9C2
:107DF000020103B1256121460020BDE83840FFF7AC
:107E00005BBF002038BD0023014603770120FFF748
:107E100053BF0000014800F030BB00BF382A0020EB
:107E20002DE9F347064600F013FB40B1584AD2E96A
:107E3000003113F1807341F10001C2E900310021EA
:107E4000304600F014FB38B1524C236823B120684F
:107E5000FFF74EFF002323600121304600F007FBAF
:107E600020B1FFF70DFF4C4BC3E900014B48494DD2
:107E70004B4C4C4F01A900F06EFB002842D1DFF8BB
:107E80002081444CDFF82491404600F06BFE2368CB
:107E9000002872D07BB12368D0E90252D3E90213E3
:107EA0008D4272EB03032AD223681B7F1BB121682A
:107EB000404600F041FE404600F04EFED0E9027A16
:107EC0000546FFF7DDFE381A6AEB010A01287AF150
:107ED000000345DBB0F5350F40D3FFF79BFF324A77
:107EE00002444FF496030021484600F031FA00287E
:107EF0003ED1236813B9304600F002FA256002B083
:107F0000BDE8F0870378012B1DD0022B09D14FF07B
:107F10000008204600F020FE002836D080F81C80A3
:107F2000F7E73BB941680B7F23B901230B77204664
:107F300000F002FE01A9194800F038FB01A917481A
:107F400000F009FB99E741682B68994202D10023B0
:107F50002B60EFE7204600F008FEEBE7AA68C0E7D9
:107F60000021484600F079FA2846FFF7C1FE01E0FB
:107F70000D28F9D00023236086E7002BBFD13046BF
:107F800002B0BDE8F04700F0BFB901233B70D1E774
:107F900020360020A03600209836002084360020AD
:107FA00060CA020028360020FFFFB400382A0020F3
:107FB0000648074A03780749D35C012213B104300D
:107FC00001F0FEBF0C3001F0A7BD00BF402A002029
:107FD0001C370020CC3600200648074A03780749A2
:107FE000D35C012213B1043001F09CBF0C3001F0CE
:107FF00043BD00BF402A00201C370020CD360020A2
:1080000037B50578012D0DD0022D30D075B91F4937
:108010001F48FFF718FE002834D103B0BDE83040F8
:10802000FFF7DABF037A1BB9FFF7C2FF03B030BD19
:108030004368184C19782046FFF7F3FD80B18DF89E
:1080400000500190144B68461B689847A168E3688C
:10805000A2885B1A9A42E7D2104B01221A70E5E718
:10806000A268E3689A42F1D08DF80000EAE7C3689D
:108070008DF800500193FFF79BFF074B68461B6884
:108080009847D3E703238DF80030F6E7CD3600207C
:10809000BC360020A8360020A4360020B8360020C8
:1080A000F0B51F46234B89B004461A600D460029DF
:1080B0003DD08A8820480968FFF7A4FD002834D104
:1080C000AA89A9681D48FFF79DFD00282DD11C4EE7
:1080D0000FCE6D460FC596E80F0085E80F00636967
:1080E0000693237C174A18488DF81C70003B18BF74
:1080F00001238DF81430637C002B14BF0E23002362
:108100008DF81530E3680293A36803932368019305
:1081100069466368009300F0F7FF30B90B4B1870A5
:108120002368013301D0FFF743FF09B0F0BD0720FA
:10813000FBE700BFA4360020A8360020BC36002094
:108140006CCA020001800200402A0020B8360020DC
:1081500070B5084D014608482E78FFF774FD0446B7
:1081600036B100232B70FFF723FF08B1FFF706FDA0
:10817000204670BDB8360020A836002010B5014654
:108180000E48FFF74EFD0446A8B90D480D4A037886
:10819000D35C63B1043001F0B9FE60B90A49074805
:1081A000FFF751FD38B9BDE81040FFF715BF0C309F
:1081B00001F056FCF1E7204610BD00BFBC360020A0
:1081C000402A00201C370020CD36002070B5EFF388
:1081D000108672B60C4A946801239CB993600B4BCD
:1081E0000B4DD3F8801029401160C3F88050D3F8AC
:1081F000841051604FF0FF32C3F88420047006B938
:1082000062B670BD0370FAE7D036002000E100E0EE
:10821000FC06FFBD084B9A6810B55AB150B9EFF390
:10822000108172B6054A1C6814605C6854609860DE
:1082300001B962B610BD00BFD036002000E100E0F9
:10824000435882B03BB10023435043580193019BF4
:10825000012002B070471846FBE70000F8B5204B3C
:108260004479204E43F824201F4A204B06EBC404D7
:108270009B1A2279DB081B0432B143F002001C492F
:10828000FFF7C0FA0820F8BD02680C88C2F808455C
:1082900090F904508A7804795201002DD2B219DB8A
:1082A00014494F1987F8002301226D0904F01F04B7
:1082B00002FA04F441F82540427906EBC201012498
:1082C00046F832000C7143F003000B49FFF79AFAAD
:1082D0000020D8E7094904F00F040A55ECE700BF75
:1082E000E4360020DC360020E0C8020018C9020095
:1082F0008CCA020000E100E0AECA020014ED00E00A
:10830000036801221A607047036801225A607047AF
:1083100073B501F15005AD000068ADB24FF4803483
:108320008C400026C0F80843C0F84843465101F588
:10833000A8714559019522F07F42019D40F8212006
:10834000C0F844430BB1C0F8044302B070BD000054
:108350002DE9F74F0D4622F07F4402684FF4803735
:1083600005F150068F408046B60002EB8500C2F84A
:108370004873B6B2C2F80873D2F8041599464FF0A4
:10838000000BD0F84035C0F8401542F806B05B1A33
:108390009259009223F07F43012B009A4FEA850AFD
:1083A0000CD1264B4FF4806043F001039847D8F876
:1083B000003043F806B09B590193019BD8F8001098
:1083C000D1F80465C1F84473A31B23F07F43012B4C
:1083D0001CD11A4B05F5A875013443F0010341F88F
:1083E00025404FF480609847D8F80030D3F8043522
:1083F0009E4209D1D8F800300020C3F84473C3F876
:10840000047303B0BDE8F08F0D20FAE78A44C9F188
:10841000FF13CAF84045D1F80405221A013A22F0A8
:108420007F4203F57F439342EED3002AE2D1013429
:10843000CAF84045D1F804359842DAE7C0CA0200CC
:1084400003680222C3F8442309B1C3F80423704728
:1084500000684FF48271FFF7F3BE4FF4803303FAE4
:1084600001F10368C3F84813C3F80813704750318B
:108470008900006889B2FFF7E3BE0368D3F80405FA
:108480007047000090F90430002B09DB5A090121E4
:1084900003F01F0301FA03F34032024941F822308E
:1084A000704700BF00E100E0024B034A1B68106800
:1084B000184700BFE4360020DC36002010B561B15B
:1084C000B2FBF3F403FB1424A4B244B9C0E90014D2
:1084D00084608281C381204610BD0E20FCE7092004
:1084E000FAE737B550E8013F9DB2C4892544848935
:1084F000A54228BF2D1B0489A54202BFBFF32F8FC1
:10850000002207E0C5EA030540E80154002CE9D148
:108510004FF001028DF803200193019A0A609DF843
:10852000031001F0FF0321B1006810FA82F003B0DC
:1085300030BD1846FBE70A884B889A4209D150E8BB
:10854000012FC2EA024240E80123002BF7D10120AB
:1085500070470020704737B550E8023F1FFAA3F577
:10856000C488A54202BFBFF32F8F00220DE0C4894B
:1085700025448489A54228BF2D1BC3EA054540E850
:108580000254002CE8D14FF001028DF80320019332
:10859000019A0A609DF8031001F0FF0321B1006801
:1085A00000EB124003B030BD1846FBE70A884B8849
:1085B0009A4209D150E8022FC2EA224240E802233F
:1085C000002BF7D1012070470020704710B50346FB
:1085D00053E8000F0A4643E8002494F0000FF7D157
:1085E00010BD10B5034653E8002F42EA010043E8EE
:1085F000000494F0000FF6D110BD10B5034653E807
:10860000000F00EA010243E8002494F0000FF6D1C5
:1086100010BD10B5034653E8002F02EB010043E8FC
:10862000000494F0000FF6D110BD10B5034653E8D6
:10863000002FA2EB010043E8000494F0000FF6D1F4
:1086400010BD0121FFF7CDBF0021FFF7D6BF10B548
:1086500090B1D0E9012301689B1ADBB20A60013BAB
:10866000DBB2FF2B026802D10020107110BD11682F
:108670004C1C14600B70F2E70E20F7E737B5054687
:1086800000240DF107008DF80740FFF79FFD2A68D1
:108690006B68116899420ED9481E106011F8013CB0
:1086A000EC68298A01FB0344AB6811791B1ADBB221
:1086B000994238BF13719DF80700FFF7ABFD2046C4
:1086C00003B030BD37B5054600230DF107000C4659
:1086D0008DF80730FFF77AFD2A681368591C11607E
:1086E000E968641A298AB4FBF1F41C709DF807004C
:1086F000FFF790FD03B030BD2DE9F84FB0F806A0AC
:108700004579D2F800B09DF828900AFB05F5043DA4
:1087100088460BEB0301A94203F1040488BFA5EBD3
:10872000030BB4FBFAF607460AFB1644C2F800B086
:108730004EB9AAEB04055D4528BF5D46BBF1000FAD
:1087400004D1BDE8F88F3F68013EF1E7043408EB3F
:1087500006003C442A46B9F1000F0DD02146ABEB90
:10876000050B04F003F8DA452E443F6855464FF0F8
:10877000000428BF5D46E1E701462046EFE7FFF72A
:1087800066BFF8B546790146721E0546002393423E
:108790002D6803D30024A64202D8F8BD0133F6E7C2
:1087A0000F682846FFF78EFF01343946F3E72DE9BD
:1087B000F843068ACD1C0746FFF760FF043E3544A8
:1087C0000446B5FBF6F5F0B14FF48073EDB283804B
:1087D000C680013D076081464FF00008A84512D2CF
:1087E0003846FFF74BFF064648B1637901336371A2
:1087F00008F10108C9F8000007608146EEE720464D
:10880000FFF7BFFF34462046BDE8F883012104305E
:10881000FFF7FFBE10B5012104460430FFF705FF46
:10882000C0B220B92046BDE81040FFF7AABF10BD76
:108830001FB503920022009203AAFFF75DFF05B067
:108840005DF804FB1FB503920122009203AAFFF713
:1088500053FF05B05DF804FB33DF704741DF70471D
:10886000064B10B500241C70054B1C60BFF35F8FD6
:108870000449054800F04AF9204610BDF1360020B1
:10888000F4360020D0CA0200E836002007B50023E5
:108890000DF107008DF80730FFF798FCF1EE103A64
:1088A00023F09F03E1EE103ABFF35F8F0A4B4022A3
:1088B000C3F884219DF80700FFF7ACFC03F036FDF8
:1088C00020B103B05DF804EBFFF7C8BF20BF40BF85
:1088D00020BF03B05DF804FB00E100E070B5244D5B
:1088E000044601212846FFF771FEBFF35F8F38B9B8
:1088F000042C0AD01F4B1A781AB1BFF35F8F28607F
:1089000070BD1D4A147001221A701C4C1A4E636807
:10891000BBB9FEF7ADFFFEF72BFE0028FBD1164BCF
:108920001B78023B012B15D8BFF34F8F1449154B11
:10893000CA6802F4E0621343CB60BFF34F8F00BFFD
:10894000FDE71B68307898470028D6D0204600F015
:10895000E7F8DCE703F0EAFC08B1FFF77DFF4FF032
:1089600080430122C3F80025BFF34F8F20BFFDE7EE
:10897000F4360020F1360020F0360020E8360020E2
:1089800000ED00E00400FA050268136852689342A3
:1089900091BFD01A80680130801888BFC01A704714
:1089A000036881681A685B688B4234BF0133002317
:1089B000D31A58425841704773B5002304460DF14D
:1089C00007000D468DF80730FFF700FC2046FFF743
:1089D000E7FF10B1237C002B3BD12368A1685E68C0
:1089E0005A688A4234BF013200225A6028B11A689C
:1089F0008A4234BF013200221A60E2686368511E65
:108A0000072920D8DFE801F004101F141F1F1F18CA
:108A10002A789A552046FFF7B7FF23689A68824262
:108A200000D29860002415E02A8823F81620F1E788
:108A30002A6843F82620EDE7D5E9000103EBC603D9
:108A4000C3E90001E6E7294602FB063003F08EFE8B
:108A5000E0E704249DF80700FFF7DCFB204602B0A6
:108A600070BD036818685B68C31A58425841704764
:108A700073B5002305460DF107000C4616468DF828
:108A80000730FFF7A3FB2846FFF7EBFF002832D1A2
:108A90002B6819682EB91A68A868824238BF561C1C
:108AA0001E60EA686B68501E07281ED8DFE800F0D9
:108AB000040E1D121D1D1D165B5C237000249DF805
:108AC0000700FFF7A7FB204602B070BD33F8113056
:108AD0002380F3E753F821302360EFE703EBC10372
:108AE000D3E90023C4E90023E8E701FB0231204673
:108AF00003F03CFEE2E70524E1E7836800225A60C8
:108B0000C3E904229A60DA601A6070470B684A6809
:108B10004360934208BF0023016008BF4360704771
:108B2000436843B10268916852680B4493424360C2
:108B300004BF00234360704770B5446806460D4685
:108B4000206818B1B3682946984718B923682B6084
:108B5000256070BD2468F3E74368186808B10268AF
:108B60001A6070474368186870474368186800B90E
:108B70007047884203D102681A600120704703469B
:108B80000068F4E710B50D49A1F59472914201D83F
:108B900000200FE08C1AE30F03EBE4035B1002EB01
:108BA000C30452F83330834205D802D204F10802DC
:108BB000ECE7606810BD2146E8E700BFDCCF0200AB
:108BC00008B5FFF7DFFF024B002808BF184608BDB5
:108BD0009FCE02004FF08053D3F83001A0F108037C
:108BE00058425841704700004FF08053D3F830216D
:108BF000082A06D1D3F83431032B02D8024AD05CBC
:108C000070470020704700BFDCCF020008B5FFF7B7
:108C1000E1FF40B14FF080430022C3F80C21C3F8BC
:108C20001021C3F83825FFF7D5FF002846D04FF0B4
:108C30008052614BD2F80414C3F82015D2F80814FE
:108C4000C3F82415D2F80C14C3F82815D2F8101460
:108C5000C3F82C15D2F81414C3F83015D2F8181430
:108C6000C3F83415D2F81C14C3F84015D2F82014F8
:108C7000C3F84415D2F82414C3F84815D2F82814C0
:108C8000C3F84C15D2F82C14C3F85015D2F8301490
:108C9000C3F85415D2F83414C3F86015D2F8381458
:108CA000C3F86415D2F83C14C3F86815D2F8401420
:108CB000C3F86C15D2F84424C3F87025FFF794FF6D
:108CC00018B13E4B3E4AC3F88C26FFF78DFF18B112
:108CD0003C4BFB22C3F81825FFF786FF70B14FF01D
:108CE00080414FF08053D1F8E42ED3F8583222F06F
:108CF0000F0203F00F031343C1F8E43EFFF774FFC4
:108D000020B1314B4FF40072C3F84026FFF762FFE9
:108D100048B14FF08043D3F80024D20744BF6FF02E
:108D20000102C3F80024294AD2F8883043F47003C2
:108D3000C2F88830BFF34F8FBFF36F8F4FF010230F
:108D4000D3F80022002A03DBD3F80432002B2EDAFA
:108D50001F4B0122C3F80425D3F80024002AFBD0BE
:108D60004FF010221221C2F80012D3F80024002A7A
:108D7000FBD04FF010231222C3F80422144BD3F877
:108D80000024002AFBD00022C3F80425D3F80024D5
:108D9000002AFBD0BFF34F8F0C490E4BCA6802F478
:108DA000E0621343CB60BFF34F8F00BFFDE70A4B78
:108DB0000A4A1A6008BD00BF00C0004000500040D1
:108DC0004881030000F000400090024000ED00E008
:108DD00000E001400400FA05542A00200090D0036E
:108DE000074B1B5C1F2B8ABF064A4FF0A04203F0C3
:108DF0001F03D2F80405D840C04300F001007047BB
:108E0000E4CF020000030050074B1B5C1F2B86BF02
:108E1000064903F01F034FF0A041012202FA03F3B9
:108E2000C1F80C35704700BFE4CF020000030050CA
:108E3000074B1B5C1F2B86BF064903F01F034FF037
:108E4000A041012202FA03F3C1F80835704700BFC0
:108E5000E4CF02000003005008B50020FFF7E8FF50
:108E60000120FFF7E5FF0220FFF7E2FFBDE8084021
:108E70000320FFF7DDBF08B50020FFF7C5FF012085
:108E8000FFF7C2FF0220FFF7BFFFBDE80840032045
:108E9000FFF7BABF0A4B185C1F288ABF094B4FF077
:108EA000A04300F01F00D3F804250121814021EAEE
:108EB00002000A40C3F80805C3F80C25704700BF3C
:108EC000E4CF020000030050074B1B5C1F2B8ABF3E
:108ED000064A4FF0A04203F01F03D2F81005D84015
:108EE000C04300F001007047E0CF020000030050D3
:108EF0000B2809D00C2809D0182809D019280CBF34
:108F000003204FF0FF30704700207047012070476A
:108F100002207047014B185C704700BFE0CF020091
:108F2000C20710B504460CD54FF0A0430322C3F886
:108F30001827C3F83827C3F83C27C3F84027FFF7A2
:108F40008BFFA3070AD54FF0A0430C22C3F82C27B0
:108F5000C3F83027C3F86027C3F8642710BD0000AA
:108F600038B5074C051E04F1080318BF1C462368DA
:108F70002BB11A6822605B6828469847F7E738BD2E
:108F80000037002020B9054B01225A70FFF7E8BFD7
:108F9000012802D1014A9070F8E77047F8360020A6
:108FA00020B9034B01225A70FFF7DABF704700BFA8
:108FB000F836002038B50E4C2378B3B90D486360FD
:108FC000A3602361E36000F0E7F8054603F0AEF923
:108FD00008B900F0EDF801232370074BD3F80034F3
:108FE0000BB10123A370284638BD8525F5E700BFE6
:108FF000F8360020858F02000000014037B50D4C87
:1090000000230DF107008DF80730FFF7DFF8E36864
:10901000013BE360E36833B9074BD3F8005415B95B
:1090200000F0D8F8A5709DF80700FFF7F3F803B03B
:1090300030BD00BFF836002000000140012813B504
:109040000CD0032820D038B9134B0122C3F880205C
:10905000BFF34F8FBFF36F8F02B010BD0F4C0023D3
:109060000DF107008DF80730FFF7B0F823780BB942
:10907000FFF7A0FFE3689DF807000133E3600123D9
:10908000A370FFF7C7F8E7E700F092F802B0BDE879
:109090001040FFF7B3BF00BF00E100E0F83600204A
:1090A0001FB503788DF800304368019383688DF80D
:1090B0000830C368054A0393054B684653F82130CE
:1090C00052F82110984705B05DF804FB0C370020DA
:1090D000143700201FB503788DF8003043680193E2
:1090E00083688DF80830C368054A0393054B6846CA
:1090F00053F8213052F82110984705B05DF804FB71
:109100000C37002014370020F0B5194B90F800C040
:10911000DFF86CE043F82C20164B16460A6943F83A
:109120002C204B7F0EF80C300C4607460FCC89B034
:109130006D460FC594E80F0085E80F003B78CDF829
:1091400010C01EF803304BB1002E0B4A694608BF11
:109150003246381D00F0FEFD09B0F0BD002E074A72
:10916000694608BF324607F10C0000F0A9FBF3E79F
:10917000143700200C370020A1900200D590020087
:109180001C37002000F18040002382B00360036898
:109190000193019B02B07047044A137923B901215E
:1091A0001060918018467047852070472037002056
:1091B000074B1A68D20704D4C02283F80023012287
:1091C0001A604FF080430122C3F81825704700BF92
:1091D00000E100E04FF0804208B50223C2F80833F6
:1091E0004FF48270FFF7CEFF0123D360D2F818341A
:1091F000DB03FBD408BD00004FF0804110B5D1F86F
:10920000003163B14FF48070FFF7BCFF0D4B58790C
:109210000122C1F8082310B95A711B6898474FF012
:109220008042D2F8043163B14FF48270FFF7AAFF95
:109230000223C2F80833034BBDE810401B6801202D
:10924000184710BD2037002000F1804000F5C040D5
:10925000002382B0036003680193019B02B0704752
:1092600003681F2B83BF03F01F03036001484FF007
:10927000A04070470003005007B5019001A8FFF718
:10928000EFFF019B00EB8300D0F8003723F440335D
:10929000C0F80037D0F8003743EA0141C0F80017A2
:1092A00003B05DF804FB0000054B4FF0FF320728C8
:1092B00043F8202084BFC01880F85820704700BFB2
:1092C0002837002038B51D4991F86A30A3BB4FF606
:1092D000FF70FF245A09012A0CBF02464FF0FF32EB
:1092E00003F01F05EA40D20748BFCA1803F1010383
:1092F00048BF82F83040302BECD10024E0B201347A
:10930000FFF7D2FF0C2CF9D10D4B00224A669A8050
:109310000C4BC02083F80603402018604FF4BE7049
:10932000FFF792FF084B4FF00040C3F804030123FE
:1093300081F86A30104638BD0820FCE72837002045
:109340008C37002000E100E000600040034B93F800
:109350006A00003818BF0120704700BF283700207E
:10936000F7B53D4F3B18044693F93030002B71DAC6
:109370008B78C3F34003002B0BBF082500250C207E
:109380000820854202D1042003B0F0BD57F82560C3
:10939000013647D138196EB247F8252080F8306081
:1093A00013B97B1983F858408B785A071AD4D80719
:1093B0003AD501A80194FFF753FF019B00EB83000E
:1093C000D0F8003723F00203C0F800372348E20842
:1093D00004F0070C012303FA0CF310F802C043EA6F
:1093E0000C03835488780B7810F0020028D0AD006D
:1093F00005F1804505F5C0452402D5F8102522F475
:109400004F3222F44072C5F810251B04D5F8102500
:1094100004F47C5403F440331C431443C5F8104552
:109420000020B1E70135ACE701A84A780194FFF7C5
:1094300017FF019B03F5E073920040F82320C5E776
:10944000083E47FA86F797F8604044EA831387F8A6
:10945000603099E7082097E7283700208C370020F4
:1094600073B5244D2E18044696F93020072A1DDDC9
:10947000083A45FA82F595F860309B09032B10D124
:10948000019001A8FFF7ECFE019BD0F81015D94020
:1094900001F001010231204602B0BDE87040FFF743
:1094A000EBBE012B0CBF02210321F4E7D3B2072B43
:1094B0001DD8930003F1804303F5C043D3F8100592
:1094C00040F00100C3F8100502F1400040B28000F6
:1094D00080B2FFF7B9FE51B196F9303055F823301C
:1094E0002BB1012303FA02F2034BC3F8042302B0A9
:1094F00070BD00BF283700200060004007B5019014
:1095000001A8FFF7ADFE019BD0F81005D84000F090
:10951000010003B05DF804FB2DE9FF470024CDE90D
:109520000244584D4FF48072012102F1804303F54B
:10953000C04390B21B68012B06D1D5F804330B420F
:1095400002D0FFF781FE0C430432B2F5907F4FEA60
:109550004101EAD14B4BD3F87C31012B11D14FF4AF
:10956000BE70FFF771FE4FF0A04344F00044D3F803
:1095700020250292C3F82025D3F820280392C3F8AF
:109580002028E3B2D3B1404F00250126344210D049
:10959000AB0003F1804303F5C043D3F81005D3F8C3
:1095A000101557F8253023B1C1F30141C0F3052050
:1095B00098470135082D4FEA4606E7D1002C59DAC5
:1095C000314D324C324E4FF00008012716F9013B65
:1095D0005A1C3CD0C3F3C20104A801445FFA83F9CA
:1095E00011F8081C03F03F0203F0070307FA03F326
:1095F00019422CD001A80192FFF732FE019B03F51E
:10960000E07350F82330C3F3014ABAF1020F0CBFE4
:10961000032102211046FFF72FFE01A80192FFF758
:109620001FFE019B07FA03F3C0F82035AB1893F92E
:10963000303055F8233053B14FEA9911032904D043
:10964000BAF1020F19D1012901D11046984708F14A
:109650000108B8F1040FB9D14FF0A043D3F8202589
:109660000292C3F82025D4F820350393C4F820359E
:109670001343A7D104B0BDE8F087BAF1030FE6D1D8
:109680000229E1E700600040283700200003005075
:1096900088370020014B1B68184700BF9437002013
:1096A0000E4B984237B50C4602D0002003B030BDB7
:1096B00000230DF107008DF80730FEF787FD084BFA
:1096C0001D7915B901221C601A719DF80700FEF77B
:1096D000A1FD002DE9D01120E8E700BF00200040E7
:1096E000943700200023435082B043580193019BDC
:1096F00002B070470A4610B54FF48E71FFF7F2FFC3
:10970000136A9168C95C136A01331362C0F81C15AF
:1097100010BD024608B500684FF49271FFF7E2FFF2
:1097200010684FF48471FFF7DDFF136801221A609F
:1097300008BD8B690A4610B54FF4847123B9FFF751
:10974000D1FFD0F8183510BDFFF7CCFF536AD168B0
:10975000D0F81805C854536A01335362F3E7000088
:109760001FB501238DF80030044BCDE90110D3E97A
:1097700000126846904705B05DF804FB9C37002056
:1097800030B54D4DD5F804339A0585B051D5D5F88F
:109790002431002B4DD04FF492712846FFF7A2FFE1
:1097A0004FF40173C5F80833444B93F829200AB9E4
:1097B00001226A60404902228DF80020D1F88024FD
:1097C000C1F8802403929A690292DA680192002219
:1097D000C3E906226846D3E9001290473648D0F81C
:1097E0001C315BB1354A5169136A99424DD992F8DF
:1097F0002830002B49D11146FFF77CFF2E48D0F8C6
:109800004431002B56D04FF4A271FFF76BFF2B4B66
:1098100093F829200AB1012202609A69002A49D0EE
:10982000586AD96800229A6105B0BDE83040FFF758
:1098300097BFD5F804335B07D0D5D5F80831002B96
:10984000CCD01E4C1C482146FFF773FF636AA26907
:109850009A42C3D1E369E1684BB1A3612369E36034
:109860000023606AE3616362FFF77AFFB6E794F86A
:1098700029300BB901236B600F4B4FF40172C3F811
:1098800008230023606AA361EEE70B484FF48E7152
:10989000FFF728FF5369002BB0D0516902910023D4
:1098A00091688DF80030019153616846D2E9001348
:1098B0009847A3E705B030BD002000409C3700204A
:1098C0002DE9F843604D90F804802C2303FB0853E6
:1098D000064693F82A300C469146002B40F0AF80A4
:1098E0005A490068FFF7DCFE0746002840F0A980CF
:1098F0002268531C10D01F2A87BF554902F01F034E
:1099000013464FF0A0410120984003F5E073C1F8E1
:109910000805032041F823006168481C0DD01F2969
:109920008BBF01F01F030B4649484FF0A04003F5E1
:10993000E0734FF0000C40F823C03068A369C0F812
:10994000243594F814C0637DBCF1010F4CEA030385
:10995000C0F86C35C0F81415C0F80C252BD1A368DD
:10996000591C0DD01F2B8BBF03F01F021A4638491C
:109970004FF0A04102F5E0724FF0000C41F822C018
:10998000E1684A1C13D01F2987BF314A01F01F0C20
:109990008C464FF0A0424FF0010E0EFA0CFE0CF573
:1099A000E07CC2F808E54FF0030E42F82CE0C0F866
:1099B0000815C0F810352C2202FB08F2AB18C3F8CA
:1099C00004902369AB50B9F1000F20D04FF48E7191
:1099D000247FFFF787FE4FF4A2713068FFF782FE05
:1099E00032681C4BC2F80433130B42F30732610197
:1099F000002AC9B21EDB1848841884F8001301211C
:109A0000520903F01F0301FA03F340F822303368D0
:109A10000422C3F800252C2303FB08530022C3E9CA
:109A2000062283F829205A61012283F82A20384629
:109A3000BDE8F883094A03F00F03D154E7E708278C
:109A4000F5E71127F3E700BF9C370020819702005C
:109A5000000300508000020000E100E014ED00E08F
:109A60000279044B2C2101FB02335869003818BFDE
:109A7000012070479C3700202DE9F84F064690F8EA
:109A8000048089469246FFF7EBFF044600283CD14C
:109A9000204F2C2508FB057B4FF48E71CBF814A0CA
:109AA000CBF80890CBF820008BF828003068FFF73F
:109AB00019FE3068012383605946FFF71BFEDBF86F
:109AC00004305D461BBB3068DBF814402B6A9C42B7
:109AD00011D83368D3F81C21002AFBD00122DA60A8
:109AE00000202C2303FB087700237B61BDE8F88F5F
:109AF00095F828303BB9D0F81C31002BF8D05946E6
:109B0000FFF7F8FDE2E70F20EBE71120EEE7204634
:109B1000ECE700BF9C3700202DE9F0473A4D07796C
:109B20002C2303FB075306465C6824B103684FF4FB
:109B30000170C3F808032C2303FB0753986950B145
:109B4000D869002841D024B133684FF40172C3F8BA
:109B50000423112436E09A61D9605862D8612C231D
:109B600003FB075393F829301BB910B93046FFF7B0
:109B7000D0FD4FF02C0808FB075A3068DAF80430A3
:109B8000002B37D14FF4A271D046FFF7ABFD306800
:109B9000D0F82491D0F80831D0F84441CBB914B9A9
:109BA000B9F1000FF3D02C2303FB07550023AB6161
:109BB000B9F1000F24D12CBB95F82910336801228C
:109BC000B1B11A602046BDE8F0871961DA61012061
:109BD000C5E7B9F1000FE6D1002CE4D14146FFF70B
:109BE000A8FDDAF82430DAF818209A42CFD8DAE75C
:109BF0005A60E7E74FF40173C0F804330024E1E74B
:109C00000324DFE70F24DDE79C37002000234350C7
:109C100082B043580193019B02B070471FB50123E6
:109C20008DF80030044BCDE90110D3E900126846ED
:109C3000904705B05DF804FBC83700207FB5434A64
:109C4000D2F82461002E60D010464FF49271FFF7D5
:109C5000DDFF02238DF80030D2F88034C2F8803462
:109C60000393D2F83C350293394BDA680192002213
:109C7000C3E906226846D3E9001290473348D0F87A
:109C8000443173B14FF4A271FFF7C0FF304B9A69B2
:109C90003AB10022C3E90622D968D0F83C05FFF7A3
:109CA000BDFF2A48D0F82031ABB14FF49071FFF7D7
:109CB000ADFF0123C360264B5A6962B1D0F84C1541
:109CC0000291002299688DF8002001915A6168463E
:109CD000D3E9001290471D48D0F858319BB14FF49A
:109CE000AC71FFF793FF1A4B5A6962B1D0F84C156B
:109CF0000291002299688DF8002001915A6168460E
:109D0000D3E90012904704B070BDD2F81031002B97
:109D1000B4D04FF488711046FFF778FF0C4BD2F89F
:109D20003C0599698842A9D1DC69D96864B1D2F847
:109D3000005225F02005C2F800521A699C61DA60D1
:109D4000DE61FFF76BFF99E79C61FAE700200040B6
:109D5000C83700202DE9F843664E90F8048024238C
:109D600003FB0863044693F820300D469146002B10
:109D700040F0BC8060490068FFF792FC074600286D
:109D800040F0B68029684B1C10D01F2987BF5B4A62
:109D900001F01F030B464FF0A0420120984003F54D
:109DA000E073C2F80805032042F823006A68501CDB
:109DB0000DD01F2A8BBF02F01F0313464F484FF0F0
:109DC000A04003F5E0734FF0000C40F823C020687A
:109DD000AB69C0F8243595F814C06B7DBCF1010F58
:109DE0004CEA0303C0F86C35C0F80C15C0F8142514
:109DF0002BD1AB68591C0DD01F2B8BBF03F01F025A
:109E00001A463E494FF0A04102F5E0724FF0000CB7
:109E100041F822C0E9684A1C13D01F2987BF374A7E
:109E200001F01F0C8C464FF0A0424FF0010E0EFACD
:109E30000CFE0CF5E07CC2F808E54FF0030E42F88A
:109E40002CE0C0F80815C0F81035242202FB08F2F7
:109E5000B318C3F804902B69B350B9F1000F2FD099
:109E60004FF488712A7FFFF7D1FE20684FF490717C
:109E7000FFF7CCFE20684FF49271FFF7C7FE206811
:109E80004FF4A271FFF7C2FE4FF4AC712068FFF7E8
:109E9000BDFE23681A49C3F80413190B43F30733B3
:109EA0005201002BD2B21CDB1648C51885F80023DE
:109EB00001225B0901F01F0102FA01F140F82310B1
:109EC00023680822C3F80025242303FB0866002327
:109ED000C6E906337361012386F820303846BDE8B1
:109EE000F883094B01F00F015A54E9E70827F5E719
:109EF0001127F3E7C83700203D9C02000003005003
:109F00001003420000E100E014ED00E00279044B90
:109F1000242101FB02335869003818BF0120704723
:109F2000C837002001F06043B3F1005F2DE9F0472E
:109F30000646884692463BD190F80490FFF7E6FF2C
:109F40000446002836D11D4F3068242505FB0975CD
:109F50004FF49071C5F814A0C5F80880FFF756FEBD
:109F60004FF4AC713068FFF751FE33686A69A96835
:109F7000C3F84415C3F8482501229A606A68DAB923
:109F8000D3F82021D3F858011AB90028F8D00F20AF
:109F900007E00028FBD10122DA60D3F85821002A1B
:109FA000FBD0242303FB097700237B61BDE8F08706
:109FB0001020FBE71120F9E72046F7E7C83700201B
:109FC000F8B501F06043B3F1005F04460F465ED17F
:109FD0000379304D242101FB0351496821B1006808
:109FE0004FF40476C0F80863242000FB03539E69F5
:109FF00056B1D869002839D021B123684FF40472D2
:10A00000C3F80423112030E09A61DF60DE6120682C
:10A010004FF48871FFF7FAFD20684FF4A271FFF743
:10A02000F5FD2368C3F83475C3F8382516BB012243
:10A030001A602479242202FB045252680ABBD3F826
:10A040001011D3F84421D3F82401114302D1002880
:10A05000F5D00A46242303FB04550023984218BF79
:10A0600003209A42AB6118BF0F20F8BD1F61DA616F
:10A070000126CCE7D3F8002242F02002C3F80022E8
:10A08000D7E74FF40472C3F804230020EDE7102053
:10A09000EBE700BFC83700201F288ABF094B4FF0ED
:10A0A000A04300F01F0003EB8000D0F8003723F43A
:10A0B0004033C0F80037D0F8003743EA0141C0F818
:10A0C00000177047000300500220FEF7E3BE0000B7
:10A0D0002DE9F04780460D46FEF70AFF03280446A7
:10A0E00010D8012D10D0022D30D05DB91A48FDF7DF
:10A0F0008AFE1A4B04EB440213449D78184B1B5DF7
:10A10000AB4219D0BDE8F087144E00EB4003F218C3
:10A11000F55C5378470053B1DFF84C900E484A463F
:10A120004FF48041FDF757FE08B989F800802744B5
:10A130003E440B4BB2781A55002DE3D0094B1B68F7
:10A14000002BDFD02846BDE8F047184700EB40045D
:10A15000024804446578EFE71038002050380020AA
:10A160006938002064380020EC3700200078022194
:10A17000FFF7AEBF08B5094B1B7853B10020FEF7BF
:10A1800057FE0120FEF754FEBDE808400320FEF70D
:10A190004FBEBDE80840FEF75FBE00BFED370020B0
:10A1A000F8B57A4C237805461BB100232370FFF7DE
:10A1B000E1FF172D00F28780DFE805F00C1717424A
:10A1C0005364757F878C878C949999999999C3C8A2
:10A1D000D0D8E3E3FFF7CEFF6D48FDF714FE6D4BDB
:10A1E000002204461A702046F8BD0020FEF7F8FD54
:10A1F000F0B10020FEF71CFE022D0CBF4FF4E1640D
:10A200004FF4FA64634B1D7000254FF400464FF481
:10A210007A7029464FF4FA620023E4FB060102F04B
:10A2200007FA2A460146BDE8F8405948FDF7D3BD74
:10A23000FEF7EAFD022D0CBFC8244FF4C874E1E715
:10A240000020FEF7CDFD40B10020FEF7F1FD4FF4F8
:10A250004874504B03221A70D6E7FEF7D5FDC82488
:10A26000F7E70020FEF7BCFD38B10020FEF7E0FD67
:10A270004FF4FA64474B0422EDE7FEF7C5FD4FF4B7
:10A28000C874F7E70020FEF7ABFD48B10020FEF7E9
:10A29000CFFD404B05221A7040F6CD410022C2E7A7
:10A2A000FEF7B2FDF5E70020FEF7F4FD394B06227C
:10A2B0001A70002240F26661B5E70020FEF7A4FDA7
:10A2C000344B07221A7000248DE701202070FEF71E
:10A2D000E1FDEEE701202070FEF7DCFD00224FF4E7
:10A2E0000051A0E7FEF7C7FD2A4B0C22EAE72A48F7
:10A2F0002A4EFDF788FDD5F1110504461CD0D8B9CA
:10A30000012D13D0C820454321464FF400474FF498
:10A310007A704FF4FA620023C5FB070102F088F956
:10A32000224601461C48FDF756FD04460220FEF772
:10A330006BFD0123337056E70220FEF779FD002301
:10A34000F8E7FFF717FF134B1222BBE7FFF712FFE7
:10A350000020FEF759FD0F4B1322B3E7FFF70AFF6A
:10A360000120FEF751FD0B4B1422ABE7FFF702FF74
:10A370000020FEF749FD0120FEF746FD054B1522A2
:10A38000A0E7FEF778FD034B1D709CE760380020C6
:10A390003038002068380020F0370020ED370020EA
:10A3A000044B1B68DB0703D5034B1878FFF7F8BE97
:10A3B000704700BF5C38002068380020032801D8AF
:10A3C000FEF782BD00207047044B1B6813F00103A9
:10A3D00001D0FFF7E5BE1846704700BF5C3800208B
:10A3E00038B51C4B18601C4B10F002040546196070
:10A3F0001AD01A4B1A480E221A700F22DA70102245
:10A400009A7111225A72042140F23332FDF748FB4F
:10A41000044648B9FDF79CFB044628B90146114A99
:10A420001148FDF7CDFC0446EB0711D50120FEF7DE
:10A4300077FD6CB921460D4A0D48FDF7C1FC044675
:10A4400030B9BDE838400B4A0B480121FDF7B8BCD4
:10A45000204638BD5C380020643800205038002089
:10A460000CD002006DA1020030D00200A1A30200B6
:10A4700034D00200C9A002002CD00200032811D859
:10A48000012A0AD101290FD100F10E02D2B20D4BDF
:10A4900000EB40001A54002070470129F7D0022930
:10A4A00004D049B1072070470022F8E7054B00EBC4
:10A4B000400018444270EEE7024B00EB40001844A5
:10A4C0008270E8E750380020032808B506D8FEF768
:10A4D00021FD0321FFF7E0FD002008BD0620FCE779
:10A4E00008B5012202210020FFF7C8FF08B10728A4
:10A4F00010D1072202210120FFF7C0FF08B1072871
:10A5000008D100210A220846FFF7B8FF10B107283A
:10A5100008BF002008BD00000388102B10B502D032
:10A52000112B1ED010BD1A4C2168B1B9012208466A
:10A53000FFF7A4FF08B1072824D107220221012038
:10A54000FFF79CFF08B107281CD10422022100203C
:10A55000FFF794FF08B1072814D123680133236063
:10A56000E0E70B4A1368013B1360002BDAD1FFF7D9
:10A57000B7FF0028D6D0074B1B68002BD2D0BDE810
:10A5800010401847034B1B68002BE6D09847E4E7C0
:10A59000743800207038002008B50020FFF794FFC1
:10A5A00008B1062806D10120FFF78EFF10B106285A
:10A5B00008BF002008BD00000D4B10B518600C4608
:10A5C00029B10120FFF7FAFE40B102232370094BA5
:10A5D0001B6853B9BDE81040FFF782BFFFF7EEFEDE
:10A5E00008B10B23F2E72070F1E7002010BD00BF97
:10A5F000703800207438002075DF704776DF7047B0
:10A600007FDF70478FDF704770B50378012B0546F9
:10A6100046D0022B30D073BB274C284D20882844CD
:10A62000FDF796FD238801339BB21D44238015F866
:10A63000012C0A2A05D00D2A03D0214A12889A42F9
:10A6400019D8204B204821491C4D214EC01AC00862
:10A65000000440F00300FDF7D5F822882946304673
:10A6600001F080FD082804D01328F6D008B1FDF7CA
:10A6700085FA0023238070BD124B134C1549E41A50
:10A68000E408240444F00100FDF7BCF8114944F04B
:10A690000300FDF7B7F86868BDE87040FDF76EBAD3
:10A6A000084B094C0C49E41AE408240444F0010066
:10A6B000FDF7A8F80849EAE76C390020783800204F
:10A6C0006E2A0020E0C8020008C9020038D002004B
:10A6D000FC3A002058D002008AD00200FDF74EBAA2
:10A6E0000146014801F01EBCFC3A00200388212BE2
:10A6F00013B504460FD80F2B11D9103B112B0ED8D0
:10A70000DFE803F00F280D470D0D0D0D0D0D0D3772
:10A710000D0D0D4E0D543B2B60D0562B6DD002B05D
:10A7200010BD81883848002201F06AFD08B1FDF7AC
:10A7300025FA0720FFF748FE08B1FDF71FFAA188A8
:10A74000324800F0E7FC0028E9D002B0BDE8104034
:10A75000FDF714BA2E4B2F48A2882F49C01AC00803
:10A76000237A000440F0030002B0BDE81040FDF77A
:10A7700056B8037A022BD2D1254B26482749C01A56
:10A78000C008000440F0030002B0BDE81040FDF72F
:10A7900039B800231A4685218088FFF731FFD2E7B8
:10A7A00000F108018088FFF727FFCCE7184B194814
:10A7B0001B49C01AC008000440F00300FDF722F84E
:10A7C0000023A0888DF8043001A98DF80530FFF72B
:10A7D00019FF0028A3D0FDF7D1F9A0E70D480C4BD5
:10A7E0001049C01AC008000440F00300FDF70AF841
:10A7F000A0881321FFF702FFA5E70648044B0A498A
:10A80000C01AC0080004EFE7FC3A0020702A0020BC
:10A81000E0C8020008C90200B6D00200E4D002007D
:10A8200002D1020016D102002BD1020008B5074860
:10A8300001F048FA08B1FDF7A1F90120FFF7C4FDC6
:10A8400018B1BDE80840FDF799B908BD283B0020C4
:10A850002DE9F8433B4B3C4C0A78E41AE408240405
:10A860000D4644F00304394906462046FCF7CEFF66
:10A870002B78012B1CD0022B5AD0002B60D13449ED
:10A880002046FCF7BFFF698805F10E02304601F053
:10A89000B7FC08B1FDF772F9304601F02FFC08B1A2
:10A8A000FDF76CF920462B49BDE8F843FCF7AABF39
:10A8B0002949DFF8B8902046FCF7A4FF2749AF6884
:10A8C000B5F80C802046FCF79DFF002545450AD3CE
:10A8D00007EB080313F8013C0D2B15D10A20FDF7F7
:10A8E0004DFC1128F9E7785DFDF748FC064648B1B4
:10A8F0001128F8D020462A464946FCF787FF304603
:10A90000FDF73CF90135E1E7154E42463946304640
:10A9100001F028FC054698B11128F6D002461149ED
:10A920002046FCF773FF2846BDE8F843FDF726B93B
:10A9300020460D49FCF766FFBDE8F843FFF776BFF8
:10A94000BDE8F883E0C8020008C9020040D1020057
:10A9500070D1020084D10200B2D10200CBD102003A
:10A96000FC3A002001D202002AD20200DBD1020010
:10A970001FB50378052B12D0062B17D0042B2AD134
:10A98000164B17481749C01AC008000440F00300CE
:10A99000FCF738FF04B0BDE81040FFF747BF406840
:10A9A000C8B104B0BDE81040FDF7E8B841680B4CF1
:10A9B0000B488B784A78001B8C7903944C7902946D
:10A9C0000C790194C008C97800910004064940F050
:10A9D0000300FCF73AFF04B010BD00BFE0C802005E
:10A9E00008C9020066D2020038D2020010B504463F
:10A9F0000020FFF7E9FC08B1FDF7C0F824B9FFF724
:10AA0000CBFD08B1FDF7BAF8012010BD0A8840F669
:10AA100077239A4213B50C4617D10D4B0D480E49BA
:10AA2000C01AC008000440F003000190FCF7EAFEE1
:10AA3000A3880A4A0A490198033B9BB213801A462D
:10AA400002B0BDE81040FCF7EABE02B010BD00BF86
:10AA5000E0C8020008C9020076D202006E2A002077
:10AA600092D20200042808B506D00A2810D1BDE809
:10AA700008400020FDF732BF064B13215888FFF72E
:10AA8000BDFD30F0080303D0BDE80840FDF776B8FF
:10AA900008BD00BFFC3A002008B50849084800F08E
:10AAA00017FD08B1FDF76AF80548F72100F024FD0D
:10AAB00018B1BDE80840FDF761B808BD0DAA020055
:10AAC000143B002000B54FF480418BB00020FCF710
:10AAD00031FD08B1FDF752F8FCF77AFCFDF73EF9BD
:10AAE00008B1FDF74BF800230222CDE906330893A5
:10AAF0000723CDE90432434A43490992434A00926D
:10AB00004FF48072CDE9021201926946404A04A8CE
:10AB1000FDF7C6FA08B1FDF731F83E490120FFF70D
:10AB20005FFC08B1FDF72AF804A90020FFF744FDF7
:10AB300008B1FDF723F8384B384C049304A805946A
:10AB400000F0AAFA08B1FDF719F8FDF789FE08B17F
:10AB5000FDF714F801F0ACFB08B1FDF70FF8002386
:10AB600004A90120049301F035FC08B1FDF706F8B3
:10AB700004A801F0EFFC08B1FDF700F8FFF78CFF27
:10AB8000274B0493274B284804A9CDE9053401F04D
:10AB900053FA08B1FCF7F2FF102200210DEB02007E
:10ABA00001F00DFE0123214A21488DF8143004A93B
:10ABB0008DF81C3001F030F808B1FCF7DFFF1D4ABA
:10ABC0001B48002100F0CEFF08B1FCF7D7FF184862
:10ABD00000221F2101F001F808B1FCF7CFFF164B4E
:10ABE00016481749C01AC008000440F00300FCF7DB
:10ABF00009FEFFF71BFEFCF7BBFC0028FBD1FDF7AD
:10AC000045FEF8E700E0D701983C0020983B002083
:10AC100009A6020065AA0200E1A60200582A002047
:10AC200051A80200DDA60200FC3A002071A9020032
:10AC3000283B0020BAD20200E0C8020008C9020086
:10AC4000C3D2020064DF704730B5C8B1F2B100244E
:10AC5000651C8D4206DA1588A54212D805196D7853
:10AC60009D420ED1A14211D9005D48B1013880B298
:10AC700030B10234A3B210FA84F4A14206DB13808F
:10AC800030BD055D01352C44A4B2E1E70020F7E7B3
:10AC9000F7B500230646ADF80630144612B9002079
:10ACA00003B0F0BD09230DF10602FFF7CDFFBDF89B
:10ACB00006700546002FF2D00028F0D0204601F0A3
:10ACC000D8FDA8420246EAD1F119204601F017FD4D
:10ACD000B0FA80F04009E3E72DE9F04387B00023A4
:10ACE00006460C461046ADF8063002AA10230DF1B8
:10ACF00005018DF80530FFF7A5FF1EB9002007B04C
:10AD0000BDE8F0830028F9D19DF80550042D29D025
:10AD1000102D29D0022DF2D10323BDF806206AB9E7
:10AD20000DF1060221463046FFF78EFFBDF80630D2
:10AD30001BB92B463046FFF787FF0446BDF8067067
:10AD4000002FDBD09DF805800025C146AC42D5D947
:10AD5000E819424602A9304401F0D1FC38B14D4413
:10AD6000ADB2F3E70523D8E706250723D5E7012091
:10AD7000C5E7000030B50B4B19680B4B0022914220
:10AD800001D1002009E09D788478A54206D11D8874
:10AD90000488A54202D1054B186830BD0132043346
:10ADA000EDE700BFA03D0020A43D0020983D00201D
:10ADB0002DE9F84F90F8C6A24FF0760B04460AFB37
:10ADC0000B0088469146FFF7D5FF074668B3D4F8D5
:10ADD000CC52052D29D804EBC5165A46A6F8D292B6
:10ADE0000BFB0A4106F5357001F0C0FCB8F1000F0D
:10ADF000C6F84C730E4F14BF0023022386F8D032DE
:10AE00003B6801359D42C4F8CC520ED104F534752F
:10AE10000026EB6F284698473B6801369E4205F1B5
:10AE20008005F6D30023C4F8CC32BDE8F88F00BF0C
:10AE3000A03D002030B5A1B004460D467C22002183
:10AE400001A801F0BCFC03238DF80430044BADF8DD
:10AE500006501B6802940BB101A8984721B030BD81
:10AE6000983D00202DE9F041074691F8C60276236F
:10AE70004FF00008A0B081F8C88200FB03100C4618
:10AE80001546FFF777FF064660B17C22414601A8D0
:10AE900001F095FC01238DF80430ADF806500297BF
:10AEA00001A8B0472946204620B0BDE8F041FFF791
:10AEB000C1BF000030B504468BB00D4620220021F2
:10AEC00002A801F07CFC94F8C53294F8C61213B3C2
:10AED000013BDAB276234B43122000FB02332344BA
:10AEE0005B8A01339BB2ADF80430762303FB01414A
:10AEF0002A460B89ADF8063003238DF80830019BF4
:10AF0000CDE90543064B0493064B02A9186800F0EF
:10AF1000FBFC0BB030BD762303FB0143DB88E2E78B
:10AF200065AE0200BC3D0020F0B5044689B0202289
:10AF30000D466846002101F042FC94F8C7321E4AD3
:10AF400001331268DBB2934284F8C7324FF000023B
:10AF50002AD294F8C632194F84F8C5220133DBB2E5
:10AF6000762113FB01F057F8237084F8C6322618B7
:10AF700027504B433271E358CDF81230104B0293F7
:10AF80000222104B8DF800200122ADF81020186825
:10AF900003942A46694600F0B7FC18B12A462146B8
:10AFA000FFF760FF09B0F0BD84F8C82229462046AB
:10AFB000FFF740FFF6E700BFA03D0020A43D0020C2
:10AFC00065AE0200BC3D00202DE9F047044688B084
:10AFD0000D46164600212022684601F0F0FB94F849
:10AFE000C6C294F8C51276231CFB03F2A0184FF0DA
:10AFF000120E07791EFB012301F1010C0A33BC4537
:10B0000023441CD004F11C0C00F1220807F1FF3985
:10B010009444CAB2974216D989451B8919D00EFBB0
:10B0200001FA013338F80A2093422AD10CEB0A03C3
:10B0300094F8C522013284F8C5220131E9E71B8961
:10B040000289934208D101232B70002008B0BDE88B
:10B05000F0870289934218D001339BB2ADF81030CB
:10B060000B4B029300210B4B297004218DF800102B
:10B07000ADF81220186803943246694600F044FC8B
:10B08000E4E7013A9BB292B2E8E70023D0E700BFC1
:10B0900065AE0200BC3D002010B570B1026862B11F
:10B0A000436853B1064900200860064901240C702A
:10B0B00005490A60054A136010BD0E20FCE700BF79
:10B0C000A03D00209C3D0020983D0020BC3D00207C
:10B0D00010B5044680B10C4B1B787BB1FFF74AFEDC
:10B0E00070B90A4A1368052B0CD80949246841F83D
:10B0F00023400133136010BD0E20FCE70820FAE75F
:10B100000020F8E70420F6E79C3D0020A03D002049
:10B11000A43D0020F0B50D468BB0044600283BD07E
:10B12000204B1B78002B39D01F4B1B68002B35D0D0
:10B1300090F8C812002933D14FF4BA621B4F019125
:10B1400001F03DFB0199202202A801F038FB38688C
:10B15000294600F079FCE8B9154BC4F8CC0284F814
:10B16000C502A4F8C6021868206002238DF80830D2
:10B170000126104BCDF81A00A4F8CA523868ADF871
:10B1800018602A4602A90594049300F0BDFB08B993
:10B1900084F8C8620BB0F0BD0E20FBE70820F9E789
:10B1A0001120F7E79C3D0020A03D0020BC3D002081
:10B1B000A43D002065AE02002DE9FF410C46054686
:10B1C00060B159B1974B1B7843B10388322B67D0DC
:10B1D00007D8112B00F01881302B1FD004B0BDE828
:10B1E000F081332BFAD18288B1F8CA329342F5D17B
:10B1F000C08891F8C6C291F8C562002800F0C080EE
:10B20000762101FB0C41002309798DF80F30731C66
:10B210008B4200F0E68084F8C532A5E08388B1F85F
:10B22000CA229A42DAD1C3887BBB91F8C632762211
:10B2300002FB03130269C3F8062091F8C432827A34
:10B240001344062B0EDC81F8C432A9882046FFF790
:10B2500031FE0028C2D0AA88214604B0BDE8F041E2
:10B26000FFF700BE062381F8C4326F486F4B704968
:10B27000C01AC008000440F002000190FCF7C2FAB6
:10B280006C490198FCF7BEFADFE720460021FFF782
:10B290008FFDA988204604B0BDE8F041FFF744BE09
:10B2A0008288B1F8CA329A4298D1C388002B57D10C
:10B2B00091F8C672762317FB03F701EB0708837A30
:10B2C00098F804603344062B25DC88F804301222F9
:10B2D00012FB0672334605F10C012244002098F857
:10B2E0000460B34201F10A0102F1120227D31222D3
:10B2F000013B02FB034394F8C62276213B4401FB49
:10B300000242598A138999422AD2062E28D0A98846
:10B3100084F8C5629AE7062388F804304248434B14
:10B32000CA5B4549C01AC008000440F00200019001
:10B33000FCF76CFA41490198FCF764FAC7E751F849
:10B340000A6C42F8086C51F8066C42F8046C31F84B
:10B35000026C168050809080D08010810133BEE74F
:10B36000002384F8C532AA880DF10F012046FFF7AB
:10B370002BFE002842D0AA882146FFF773FD2DE757
:10B38000762303FB0CF3122707FB0633B5F80AE01C
:10B39000294623447045BFF433AFCF89A7F524571E
:10B3A000082F08D8DFE807F0141705070707070775
:10B3B0001A008F899F829F8A3FB1DF8A2FB11F8B2E
:10B3C0001FB15F8B002F7FF41BAF01300631E1E727
:10B3D0008F89DF82EFE78F891F83ECE78F895F8397
:10B3E000E9E701238DF80F302046AA880121FFF7F5
:10B3F000DFFCA9882046FFF797FDEFE69DF80F30A8
:10B40000002B3FF4EBAEEFE7B1F8CA3282889A42E4
:10B4100001BF002381F8C8324FF6FF73A1F8CA328A
:10B42000DCE600BF9C3D002020C90200E0C802000D
:10B43000FCD202001BD3020060D30200A6D302009C
:10B4400090DF7047A5DF7047B5DF70477FB50023F9
:10B45000ADF80810ADF80A106A4602A90646ADF824
:10B460000C30ADF80E300093ADF80430FFF7E8FF74
:10B47000054600B3114B124CE41AE408FDF7A0FB9B
:10B48000240444F0010403460E4932462046FCF7EA
:10B49000C6F9BDF80020BDF8023052EA030103D01E
:10B4A00009492046FCF7BBF9BDF804201AB1074949
:10B4B0002046FCF7ABF9284604B070BDE0C8020096
:10B4C00040C902000CD4020056D4020095D40200F8
:10B4D00080B14FF0F7130360FB230371F723C380A0
:10B4E0001723038141F6FB320023016143818281EE
:10B4F000184670470E20704730B1A1F11703E02BBA
:10B5000004D84180002070470E2070470720704704
:10B5100013B5034680880C46B8B91A88242A00F06F
:10B520009C8014D8112A74D0232A00F0A780102AF6
:10B530003ED0A37A4BB1E1880020FFF783FF0028BB
:10B5400040F0A2804FF48073638102B010BD3A2AAC
:10B5500068D0552AEDD1DB88C988A072172B38BF77
:10B5600017238B4228BF0B462381FFF76DFF60B185
:10B57000FDF726FB4E4B4F4902464F481B1ADB088E
:10B580001B0443F00100FCF741F9E27A002AD0D114
:10B590002369002BCDD040F67721ADF80220228917
:10B5A000ADF80010ADF80420694620469847C0E782
:10B5B000DB7B0A790A73012B13D0022B14D0E188AC
:10B5C00023898B4205D20020FFF73CFF70B901238D
:10B5D000E372217B637B8B42ABD20020FFF736FF07
:10B5E000A7E70B88E380EAE74B88FBE7112802D145
:10B5F0000123A372EDE7FDF7E3FA2D4B2F49024635
:10B600002D481B1ADB081B0443F00100FCF7FEF871
:10B61000DFE7F723CB8017230B8141F6FB3348810B
:10B620008B8186E75B89CA88934228BF1346172B14
:10B630000A6938BF17230B8162B1C97A51B140F64C
:10B640007721ADF80010ADF80200ADF8043069467E
:10B6500020469047002363816BE71A7A0B694A738F
:10B66000002B3FF466AF4DF67A218DF80500ADF85A
:10B670000010ADF802008DF8042095E7197A237BBD
:10B68000994228BF1946A9E711283FF45EAFFDF79C
:10B6900097FA074B0949024607481B1ADB081B04A7
:10B6A00043F0010002B0BDE81040FCF7AFB800BFA6
:10B6B00040C902001CD50200E0C80200EBD4020021
:10B6C0009BDF70479DDF70479EDF7047A1DF7047AB
:10B6D000A3DF7047AEDF704730B5048800239AB20D
:10B6E000944206D9456835F813508D4203F10103A1
:10B6F000F5D1104630BD8B6910B50C46198810295C
:10B7000013D8023189B2FDF752F8606078B1A169AF
:10B7100000230222FDF78CF8A26960681288E169B3
:10B720000223FDF785F8002010BD0920FCE7042066
:10B73000FAE710B50C46C98A10290AD8FDF737F880
:10B74000606040B1E28AA1690023FDF771F8002032
:10B7500010BD0920FCE70420FAE70000F0B58BB02B
:10B7600004460022C068124E0DF10601FDF780F973
:10B77000142508B10BB0F0BDBDF80630A76805FB75
:10B780000377002202A93846FDF772F930B1E0686C
:10B7900000220DF10601FDF76BF9EAE79DF808308C
:10B7A00056F82330002BECD00398FCF7EAFFE8E7CB
:10B7B000C8D50200F7B505460C4C0D480092241A76
:10B7C000E40824040B460F4616460A492A7844F03A
:10B7D0000100FCF72EF8AB6833B1E9683A46304611
:10B7E00003B0BDE8F040184703B0F0BD48C90200FF
:10B7F000E0C8020058D50200F0B58FB00D46012216
:10B8000006A90646FDF734F9044690B99DF81830AC
:10B81000052B65D8DFE803F0030F1C24292EBDF8A3
:10B820002A20BDF828102846FFF750FF0446112CA7
:10B8300040D10FB0F0BD02A90798BDF82E200C91A1
:10B840000023FCF7FFFF0AA92846FFF741FFEDE7B9
:10B85000BDF828100DF12A022846FFF731FFE5E771
:10B860000AA92846FFF72EFFE0E70AA92846FFF7B6
:10B870002BFFDBE70DF1060402AB214607980D9381
:10B8800002220023FCF7DEFFBDF806200D99079881
:10B890000C940223FCF7D6FF0AA92846BDF80670CF
:10B8A000FFF718FF04460028C1D1BDF80630BB429F
:10B8B00018BF0C249DF818200F4B53F8223013B1F9
:10B8C0000798FCF75EFF002206A93046FDF7D0F886
:10B8D000002CAED02246294606A8FFF76BFFA8E74A
:10B8E0000648074B07491B1ADB081B0443F00200FC
:10B8F000FBF788FFDEE700BFC8D50200E0C8020002
:10B9000048C90200A2D502002DE9F8430F461446AB
:10B91000054620B94FF00E084046BDE8F8830029DF
:10B92000F8D0FFF71BFF3B78052B6AD82146284645
:10B93000FFF7D2FE2B88834263D014264643A868C3
:10B940003044FDF78EF8002860D03B78052B3BD8BB
:10B95000DFE803F00311171E242A7A8A398A204669
:10B96000FFF7B4FE112851D058B30246214638469D
:10B97000FFF720FF25E007F110012046FFF7A8FEA2
:10B98000F0E7398A07F112022046FFF799FEE9E74E
:10B9900007F110012046FFF795FEE3E707F11001DC
:10B9A0002046FFF791FEDDE7BB6907F11001204655
:10B9B000B3F80080FFF78EFE30BBBB691B884345A0
:10B9C0000DD14FF00008A7E71B4B1C481C49C01ABB
:10B9D000C008000440F00200FBF714FFF1E70C2060
:10B9E000C3E72869002895D0394698478046A0B11A
:10B9F00092E73B7859F82330BBB17868FCF7C1FE79
:10BA000013E04FF0070887E71128AED1DFF8349034
:10BA10003B7859F82330002BE3D1A86839463044ED
:10BA2000FCF7CAFF80460028E3D1A86821463044CD
:10BA3000FFF7E2FE70E700BFE0C8020048C902005D
:10BA4000A2D50200C8D50200F8B50D46044678B369
:10BA5000FFF784FE29462046FFF73EFE22888242F9
:10BA600011D00020F8BD616831F81310814203F154
:10BA700001030BD0208800234FF6FF769AB2824252
:10BA80000BD30420EEE700234FF6FF7099B28A42F1
:10BA9000E9D82069FCF773FEECE761685A0001EB16
:10BAA00043078A5AB24203F10103E7D13D80D8E748
:10BAB0000E20D7E737B50C4608B301B30588112D22
:10BAC00015D181882046FFF707FE2388ADF80600D0
:10BAD000834214D0112D14D163684FF6FF7223F8FE
:10BAE00010200DF10601E068FCF766FF07E0A5F104
:10BAF00030031F2BE5D9A5F150031F2BE1D903B06B
:10BB000030BDA368142202FB0030FFF775FEF6E794
:10BB10008ADF70478BDF70478CDF704730B590F855
:10BB20002A3089B004460D46D3B190F834300193E1
:10BB3000FFF7F0FF1422002103A800F040FE019B54
:10BB400004F12C0204F13601A81CFFF7E5FF0523E0
:10BB50008DF80C30049018B1636C0BB103A89847B2
:10BB600009B030BD70B51546044680B37AB319B13B
:10BB700003291ED0072070BD104600F07AFE013860
:10BB8000C0B21F2825D894F8206026BB294620463D
:10BB900000F048FE0028EED0012384F8203028462B
:10BBA00000F067FE29460246204600F0DFFD3046E1
:10BBB000E1E790F8260070B9628C2B889A42DAD0BF
:10BBC000012384F826302B68C4F82230D3E70E20F6
:10BBD000D1E70C20CFE70420CDE7A0B1CB0614D0ED
:10BBE000002380F8213080F82730CB0744BF0123A1
:10BBF00080F821304B0744BF012380F8273080F8BC
:10BC00002820002070470E2070470720704790F8CA
:10BC10003600C0F3C000704738B50D460446002812
:10BC200049D0426400212A2200F0C9FD95B32B7946
:10BC300084F82A302B7B84F834302B68D3B104F19C
:10BC4000360203F10C0153F8040B42F8040B8B424B
:10BC5000F9D11B881380AA68B2B11068516804F149
:10BC60002C0303C304F14803A3661F23A4F86C301C
:10BC7000002038BDE28EA38702F0E30242F4827214
:10BC8000E2860E4AA263E6E70D494FF0C873C4E9A5
:10BC90000B13E7E7E38E0A4AA58703F0E30343F4B7
:10BCA0008273E386054BA3634FF0C873C4E90B238B
:10BCB00084F82A50D6E70E20DBE700BFA000500032
:10BCC0000600180010B5044686B048B314220021BF
:10BCD00001A800F074FDFFF71DFF2046FFF797FF56
:10BCE00030B1636C23B101228DF8042001A898477C
:10BCF00004F1680104F13600FFF70AFF044630F052
:10BD000008000BD00748084B08491B1ADB081B0426
:10BD100043F001002246FBF779FD204606B010BD36
:10BD20000E20FBE7E0C8020030C90200E0D50200A7
:10BD30002DE9F04F80468FB038F8082B1B2A0646B5
:10BD40000C4600F0BD801D2A15D0102A31D10021EB
:10BD500009A800F034FD06238DF82430B388ADF82F
:10BD60002C3004F136030D93636CCDF82880002B42
:10BD700040F0BA801DE01022002109A800F01FFD4C
:10BD800004F1360320460D93FFF741FF04F1680BE1
:10BD900090B102238DF8243009A8636CCDF8288077
:10BDA000984759460020FFF7B3FE41462046FFF76B
:10BDB000B5FE0FB0BDE8F08F94F8283094F821500C
:10BDC000019394F827300293002D3AD094F82090F4
:10BDD000B6F824A0274604EB49194F4520D1002589
:10BDE0002F464FF00109029B002B48D094F82620E3
:10BDF0000392039894F82830B18C04F1220209F1DF
:10BE0000010902EB80005FFA89F904904FF0000A03
:10BE10000498904218D133B3039B53452FD125E0AA
:10BE20003A46306A5146FEF733FF20370546002870
:10BE3000D3D09DF82C3043F001038DF82C3001272E
:10BE4000CFE72F46A946CEE7306A0591CDE9062314
:10BE5000FEF742FFDDE90512079B30B30AF1010A44
:10BE60005FFA8AFA1BBBBAF1000F08D09DF82C309C
:10BE7000029D013743F00403FFB28DF82C30019B83
:10BE8000CDF82880ABB1B94516D1002341462046F4
:10BE90008DF82430FFF742FE636C0BB109A8984778
:10BEA00059460020FFF734FE83E7002BB4D104325B
:10BEB000AEE70DB1019BE9E703238DF82430EBE7F2
:10BEC0001422002109A800F07AFC327A012A7FF4BA
:10BED00070AF636C002B3FF46CAF042136348DF8E7
:10BEE00024100D948DF8282009A8984761E70000D8
:10BEF00070B5094B044609481B1ADB081B040D46A4
:10BF000043F003000649FBF781FC2B691BB1204677
:10BF1000BDE87040184770BD28C90200E0C80200A3
:10BF20000DD602002DE9F04786B00D4606461422D4
:10BF3000002101A800F043FC354C3648F268364930
:10BF4000241AE408240444F003042046FBF75EFCB2
:10BF50002A7832492046FBF759FCAA883049204606
:10BF6000FBF754FCAA792F492046FBF74FFC2F78AA
:10BF7000002F39D16B682C4A23F07F43934233D191
:10BF80002A493A462046FBF741FC2A7A28492046AE
:10BF9000FBF73CFC2A7ABDF816E0BDF812C0BDF8EC
:10BFA0001400122111FB02512B463A464FF6F1794B
:10BFB0004FF6F37A99421AD10FB1ADF816E01AB1E3
:10BFC000ADF812C0ADF81400F3686BB11949204602
:10BFD000FBF718FC6B88ADF8063000238DF80430B1
:10BFE00001A9F3683046984706B0BDE8F087B3F87A
:10BFF0000E80C84506D0D04502D1B3F816E001271F
:10C000001233D7E7B3F816C0188B0122F8E700BF48
:10C0100028C90200E0C8020043D60200C4D60200CC
:10C0200061D6020090D60200F0FF0100BFD60200E8
:10C03000D9D602000AD7020007B5D0B1C9B18B68C2
:10C04000BBB101228DF806204FF6F072ADF8042046
:10C050004FF6FF7242800A68C2604A68026100229D
:10C0600082800281436101A8FFF732F803B05DF8D6
:10C0700004FB0E20FAE7000010B5034686B0084620
:10C0800049B343B349884FF6FF72914223D09C884D
:10C090008C4220D1198811291FD039291BD18288BF
:10C0A000CAB15989914216D1C268A2B101218DF855
:10C0B000041003F11001DB890391ADF8103001A9E0
:10C0C00090470B480B4B0C49C01AC008000440F0C5
:10C0D0000300FBF797FB06B010BDC368002BFAD036
:10C0E00002218DF80410428001A99847F3E700BFB0
:10C0F00028C90200E0C802002BD7020070B5044630
:10C100008AB040B345884FF6FF739D4225D0C6885C
:10C110001EB32022002102A800F051FB01238DF85C
:10C1200004308DF808300E4B6069ADF81A60CDE927
:10C13000043402230022ADF81E3001AB8DF8052037
:10C1400008932A4640F2011302A9ADF81830FFF710
:10C15000DBFB0AB070BD0E20FBE70820F9E700BF4B
:10C16000F1BE020070B50E4688B0154604460028A0
:10C1700039D020220021684600F021FBF42D0CD993
:10C180001A4B1B481B49C01AC008000440F00200AB
:10C19000FBF738FB072008B070BD62884FF6FF73CD
:10C1A0009A420BD1114B12481349C01AC00800041F
:10C1B00040F00200FBF726FB0820ECE701238DF896
:10C1C00000300E4B6069ADF81650CDE9023423897A
:10C1D000ADF8123069464FF481730696ADF8103011
:10C1E000FFF792FBD7E70E20D5E700BFE0C80200BB
:10C1F00028C9020040D7020052D70200F1BE020057
:10C2000050B141802AB15388C380138883809388BA
:10C2100003814069FFF718BC0E20704710DF70479C
:10C2200013B5044609496846FCF770FC019808B943
:10C2300002B010BDD0E900212046904718B16846F1
:10C24000FCF76EFCF2E71120F2E700BF84D7020092
:10C2500013B5044607496846FCF758FC019B0BB927
:10C2600002B010BD2046D3E9002190476846FCF794
:10C2700057FCF3E79CD702000B4991F816335A0993
:10C28000EC231341DB0706D5084B9A683AB94FF403
:10C2900080030B60704742F20200FBF76FBC1A6824
:10C2A00042F480021A60704700E100E0D0360020BE
:10C2B000F7B5194F3C7864BB184E01252046357000
:10C2C000FFF7AEFF112821D02046FFF7C1FF144B26
:10C2D0008DF80340186801900DF10300FBF776FF1D
:10C2E000104901A8FFF79AFF0446B0FA80F0400910
:10C2F00038709DF80300FBF78DFF3CB90A4B347092
:10C300001C70FFF7B9FF2846FFF7A2FF204603B0D5
:10C31000F0BD0824FAE700BFC13D0020C03D002069
:10C320007FD70200997B0200C23D0020014B1878A4
:10C33000704700BFC13D002007B508496846FCF7BB
:10C34000E5FB019B13B903B05DF804FBD3E90020C2
:10C3500090476846FCF7E4FBF3E700BF90D7020084
:10C36000FFF7EABF60DF704769DF704761DF704742
:10C3700030B5134DADF5017D4FF4FA740DF10201A6
:10C3800003A8ADF80240FFF7F1FF70B9294601A8F4
:10C39000FCF7BCFB029B002BF0D003A8D3E90021E3
:10C3A000904701A8FCF7BCFBF4E7052805D00DF584
:10C3B000017DBDE83040FBF7E1BB0DF5017D30BDEF
:10C3C00024DA0200024B1B780BB1FFF7D1BF704794
:10C3D000C33D002030B5054685B00C46002900F06D
:10C3E000A5800023CDE90133514A039301230A605C
:10C3F0008DF804008DF8063001A906232020ADF841
:10C400000830FFF7B1FF60B1FCF7DAFB494B4A494E
:10C4100002464A481B1ADB081B0443F00100FBF7E5
:10C42000F5F90023CDE901330393226840F20113AB
:10C4300001A94020ADF80630FFF796FF60B1FCF788
:10C44000BFFB3C4B3E4902463C481B1ADB081B0421
:10C4500043F00100FBF7DAF90023CDE90133039340
:10C4600022688DF80450F72301A92320ADF8063087
:10C47000FFF77AFF60B1FCF7A3FB2E4B3149024670
:10C480002E481B1ADB081B0443F00100FBF7BEF922
:10C49000002301202268039301A9CDE901338DF81F
:10C4A0000400FFF761FF60B1FCF78AFB214B2649CE
:10C4B000024622481B1ADB081B0443F00100FBF76D
:10C4C000A5F90023CDE9023322684FF4B06301A936
:10C4D000A1200193FFF748FF60B1FCF771FB154BFA
:10C4E0001A49024615481B1ADB081B0443F00100D9
:10C4F000FBF78CF900252268039501A9A020CDE95E
:10C500000155FFF731FF034668B1FCF759FB094BB2
:10C510000F49024609481B1ADB081B0443F00100BF
:10C52000FBF774F92B46184605B030BD0E23FAE729
:10C53000382A002058C90200A8D70200E0C802002B
:10C54000EED702003AD8020081D80200CDD802000E
:10C550001ED9020073B505460668FFF703FF2B6876
:10C56000B34204461DD91A481A4B1B491B1ADB0853
:10C570001B0443F002000190FBF744F92B681749B4
:10C5800001983246FBF74BF94FF080532A68D3F8F5
:10C590000C31134901989B0203F100539A1AFBF7DF
:10C5A00035F92CB90F4B01221A70204602B070BD2C
:10C5B0002046FCF705FB074B0B49024604481B1AB3
:10C5C000DB081B0443F00100FBF720F9EDE700BF97
:10C5D000E0C8020058C9020071D90200A0D90200C7
:10C5E000D1D90200C33D0020FBD902004BDF7047C8
:10C5F0001FB50E4C01A8FFF7F9FF70B9214602A83C
:10C60000FCF784FA039B002BF4D00198D3E90021B6
:10C61000904702A8FCF784FAF4E7052804D004B098
:10C62000BDE81040FBF7AABA04B010BD3CDA020026
:10C6300053EA020C61D02DE9F04BB3FA83F51E00EA
:10C6400007BFB2FA82F502FA05F403FA05F41646BA
:10C65000C5F120051EBF22FA05F73C43203556EAF6
:10C66000044C4FEA144418BF0134A3464FF00009AC
:10C67000C846904271EB030C39D3094207BFB0FAA8
:10C6800080F700FA07F6B1FA81F701FA07F6C7F169
:10C6900020071EBF20FA07FC46EA0C062037B6FB2F
:10C6A000FBFC7F1B103F07F01F04C4F120060CFAAF
:10C6B00004F42CFA06F644BF34460026202FA4BF0B
:10C6C0002646002454EA060C08BF012418EB04088F
:10C6D00049EB0609A4FB027CC01B06FB02CC04FB51
:10C6E00003CC71EB0C01904271EB030CC5D20B46ED
:10C6F000024649464046BDE8F08BB2FBF3F29AB3DE
:10C7000030B594460F2A18D902460B4640EA010478
:10C7100014F0030F02D00CF1FF3C11E01946104653
:10C72000043204330C680568A54206D11046194648
:10C73000ACF1040CBCF1040FF0D8BCF1010C0FD02B
:10C740000A460346844411461846013301320478F0
:10C7500091F800E0744503D1184611466345F2D1C3
:10C7600000780B78C01A30BD00207047844640EA3C
:10C77000010313F0030F18D18446202A0BD32DE9AF
:10C78000F007B1E8F807A0E8F807A2F12002202A94
:10C79000F7D2BDE8F007042A07D351F8043B40F86C
:10C7A000043BA2F10402042AF7D2002A05D011F8B2
:10C7B000013B00F8013B013AF9D1604670478446DD
:10C7C000002A2DD010F0030F04D000F8011B013A0D
:10C7D00026D0F7E7C9B241EA012141EA0141202A06
:10C7E00012D3A2F120022DE9F0030B460C460D46B0
:10C7F0000E460F4688468946A0E8FA03203AFBD247
:10C80000BDE8F00320320BD0042A05D340F8041B06
:10C81000043A05D0042AF9D200F8011B013AFBD1F1
:10C820006046704710F0030F19D111F0030F16D1B5
:10C830002DE970004FF001364FF0803350F8044B73
:10C8400051F8045BAC4205D1A4EB060525EA0405CA
:10C850001D40F3D0A0F10400A1F1040170BC10F858
:10C86000012B11F8013BD21A01D1002BF7D1104650
:10C87000704700F1010110F0030F11D010F8012BE7
:10C88000002A23D010F0030F0AD010F8012B002A41
:10C890001CD010F0030F03D010F8012B002A15D084
:10C8A0002DE970004FF001324FF0803350F8044B07
:10C8B000A4EB020525EA04051D4000D1F6E7A0F12E
:10C8C000040070BC10F8012B002AFBD1A0EB010082
:02C8D0007047AF
:08C8D400A18F0200000000002A
:04C8DC00EDA90200C0
:10C8E000EECF020000000000F4CF020000000000C4
:10C8F000FBCF020000000000FFCF0200000000009C
:10C9000004D002000000000015CA0200000003036A
:10C9100028CA02000000000051CA02000000000006
:10C9200000D40200000003036DD7020000000303DF
:10C9300004D6020000000303E8CF0200000000005C
:10C940004BD5020000000303BDD502000000030325
:10C9500077D702000000030318DA02000000030387
:10C9600030DA020000000303C6CA02000000000023
:08C97000DCCA02000000000017
:10C9780040300020083100201031002048300020CD
:10C988001800000070390020383A0020403A002092
:08C998007839002018000000AE
:10C9A000443A0020403A002001000000020000004C
:04C9B0000100000082
:08C9B4003D90020000000000AC
:10C9BC00C5C3020000000000F1C502000000000029
:10C9CC0019A5020000000000B5BA0200582A002088
:10C9DC0031BD0200283B0020B9B10200702A0020B2
:10C9EC0011B50200143B002079C00200FC3A002073
:08C9FC00EDA60200000000009E
:10CA04004261636B656E647320666C7573686564FC
:10CA14000061707000000000303500207F000000CD
:10CA2400B03500206170705F627574746F6E0000C1
:10CA3400D0350020466174616C206572726F72009B
:10CA440053797374656D20726573657400617070D9
:10CA54005F74696D6572000001000600000000004B
:10CA64001C360020697C0200FFFFFFFFFFFFFFFF71
:10CA7400FFFFFFFFFFFFFFFF0000000000000000BA
:10CA84000000D6010601000052544320696E7374FD
:10CA9400616E636520616C726561647920696E6999
:10CAA4007469616C697A65642E005254433A206952
:10CAB4006E697469616C697A65642E000338FDD807
