:020000040800F2
:100000000080002025200008491F00084F1F00081D
:10001000551F00085B1F0008611F0008000000005A
:1000200000000000000000000000000061970008D0
:10003000671F00080000000041990008731F0008B6
:100040006D2000086D2000086D2000086D2000085C
:100050006D2000086D2000086D2000086D2000084C
:100060006D2000086D2000086D2000088D1F00081D
:100070006D2000086D2000086D2000086D2000082C
:100080006D2000086D2000086D2000086D2000081C
:100090006D2000086D2000086D200008A11F0008D9
:1000A000000000006D2000086D2000086D20000891
:1000B0006D2000086D2000086D2000086D200008EC
:1000C0006D2000086D2000086D2000086D200008DC
:1000D0006D200008B11F0008C51F00086D20000832
:1000E0006D2000086D2000086D200008D91F000851
:1000F0006D2000080000000000000000000000006B
:1001000000000000000000000000000000000000EF
:1001100000000000000000000000000000000000DF
:1001200000000000000000000000000000000000CF
:0C01300000000000000000005FF808F173
:1001400010B5054C237833B9044B13B10448AFF311
:1001500000800123237010BDE80100200000000092
:10016000B0E7000808B5034B1BB103490348AFF3E0
:10017000008008BD00000000EC010020B0E700088E
:10018000034613F8012B002AFBD1181A01387047D7
:1001900081F0004102E000BF83F0004330B54FEA38
:1001A00041044FEA430594EA050F08BF90EA020FA5
:1001B0001FBF54EA000C55EA020C7FEA645C7FEA38
:1001C000655C00F0E2804FEA5454D4EB5555B8BF5B
:1001D0006D420CDD2C4480EA020281EA030382EACC
:1001E000000083EA010180EA020281EA0303362D5E
:1001F00088BF30BD11F0004F4FEA01314FF4801C31
:100200004CEA113102D0404261EB410113F0004F42
:100210004FEA03334CEA133302D0524263EB4303F9
:1002200094EA050F00F0A780A4F10104D5F1200E97
:100230000DDB02FA0EFC22FA05F2801841F10001F2
:1002400003FA0EF2801843FA05F359410EE0A5F1C6
:1002500020050EF1200E012A03FA0EFC28BF4CF0F7
:10026000020C43FA05F3C01851EBE37101F00045AD
:1002700007D54FF0000EDCF1000C7EEB00006EEBBA
:100280000101B1F5801F1BD3B1F5001F0CD3490844
:100290005FEA30004FEA3C0C04F101044FEA44529B
:1002A00012F5800F80F09A80BCF1004F08BF5FEA22
:1002B000500C50F1000041EB045141EA050130BD02
:1002C0005FEA4C0C404141EB0101013C28BFB1F514
:1002D000801FE9D291F0000F04BF01460020B1FA5F
:1002E00081F308BF2033A3F10B03B3F120020CDA32
:1002F0000C3208DD02F1140CC2F10C0201FA0CF010
:1003000021FA02F10CE002F11402D8BFC2F1200C74
:1003100001FA02F120FA0CFCDCBF41EA0C0190402A
:10032000E41AA2BF01EB0451294330BD6FEA040473
:100330001F3C1CDA0C340EDC04F11404C4F120025E
:1003400020FA04F001FA02F340EA030021FA04F370
:1003500045EA030130BDC4F10C04C4F1200220FAC7
:1003600002F001FA04F340EA0300294630BD21FA05
:1003700004F0294630BD94F0000F83F4801306BFCB
:1003800081F480110134013D4EE77FEA645C18BFBF
:100390007FEA655C29D094EA050F08BF90EA020F56
:1003A00005D054EA000C04BF1946104630BD91EA4E
:1003B000030F1EBF0021002030BD5FEA545C05D151
:1003C0004000494128BF41F0004130BD14F5800490
:1003D0003CBF01F5801130BD01F0004545F0FE4104
:1003E00041F470014FF0000030BD7FEA645C1ABF39
:1003F000194610467FEA655C1CBF0B46024650EA70
:10040000013406BF52EA033591EA030F41F400219B
:1004100030BD00BF90F0000F04BF0021704730B521
:100420004FF4806404F132044FF000054FF00001F6
:1004300050E700BF90F0000F04BF0021704730B5B7
:100440004FF4806404F1320410F0004548BF40428C
:100450004FF000013EE700BF42004FEAE2014FEAE1
:1004600031014FEA02701FBF12F07F4393F07F4FBC
:1004700081F06051704732F07F4208BF704793F0BF
:100480007F4F04BF41F40021704730B54FF46074D2
:1004900001F0004521F000411CE700BF50EA0102D5
:1004A00008BF704730B54FF000050AE050EA01027E
:1004B00008BF704730B511F0004502D5404261EBEE
:1004C00041014FF4806404F132045FEA915C3FF42F
:1004D000D8AE4FF003025FEADC0C18BF03325FEACC
:1004E000DC0C18BF033202EBDC02C2F1200300FA7D
:1004F00003FC20FA02F001FA03FE40EA0E0021FAA2
:1005000002F11444BDE600BF70B54FF0FF0C4CF48F
:10051000E06C1CEA11541DBF1CEA135594EA0C0F41
:1005200095EA0C0F00F0DEF82C4481EA030621EA7C
:100530004C5123EA4C5350EA013518BF52EA0335B7
:1005400041F4801143F4801338D0A0FB02CE4FF069
:100550000005E1FB02E506F00042E0FB03E54FF099
:100560000006E1FB03569CF0000F18BF4EF0010E91
:10057000A4F1FF04B6F5007F64F5407404D25FEA8D
:100580004E0E6D4146EB060642EAC62141EA555140
:100590004FEAC52040EA5E504FEACE2EB4F1FD0C82
:1005A00088BFBCF5E06F1ED8BEF1004F08BF5FEA00
:1005B000500E50F1000041EB045170BD06F00046B2
:1005C00046EA010140EA020081EA0301B4EB5C045F
:1005D000C2BFD4EB0C0541EA045170BD41F4801157
:1005E0004FF0000E013C00F3AB8014F1360FDEBF7C
:1005F000002001F0004170BDC4F10004203C35DA58
:100600000C341BDC04F11404C4F1200500FA05F3DA
:1006100020FA04F001FA05F240EA020001F000427B
:1006200021F0004110EBD37021FA04F642EB0601F1
:100630005EEA430E08BF20EAD37070BDC4F10C041B
:10064000C4F1200500FA04F320FA05F001FA04F2DF
:1006500040EA020001F0004110EBD37041F10001CB
:100660005EEA430E08BF20EAD37070BDC4F12005D6
:1006700000FA05F24EEA020E20FA04F301FA05F23E
:1006800043EA020321FA04F001F0004121FA04F2E6
:1006900020EA020000EBD3705EEA430E08BF20EAB6
:1006A000D37070BD94F0000F0FD101F000464000F0
:1006B00041EB010111F4801F08BF013CF7D041EA72
:1006C000060195F0000F18BF704703F00046520076
:1006D00043EB030313F4801F08BF013DF7D043EA47
:1006E0000603704794EA0C0F0CEA135518BF95EAFD
:1006F0000C0F0CD050EA410618BF52EA4306D1D184
:1007000081EA030101F000414FF0000070BD50EAA2
:10071000410606BF1046194652EA430619D094EA2C
:100720000C0F02D150EA013613D195EA0C0F05D116
:1007300052EA03361CBF104619460AD181EA03016A
:1007400001F0004141F0FE4141F470014FF0000022
:1007500070BD41F0FE4141F4780170BD70B54FF0BD
:10076000FF0C4CF4E06C1CEA11541DBF1CEA13553D
:1007700094EA0C0F95EA0C0F00F0A7F8A4EB05041F
:1007800081EA030E52EA03354FEA013100F0888016
:100790004FEA03334FF0805545EA131343EA1263DF
:1007A0004FEA022245EA111545EA10654FEA002694
:1007B0000EF000419D4208BF964244F1FD0404F54D
:1007C000407402D25B084FEA3202B61A65EB0305A9
:1007D0005B084FEA32024FF480104FF4002CB6EB66
:1007E000020E75EB030E22BFB61A754640EA0C00E6
:1007F0005B084FEA3202B6EB020E75EB030E22BF26
:10080000B61A754640EA5C005B084FEA3202B6EB66
:10081000020E75EB030E22BFB61A754640EA9C0025
:100820005B084FEA3202B6EB020E75EB030E22BFF5
:10083000B61A754640EADC0055EA060E18D04FEAB3
:10084000051545EA16754FEA06164FEAC30343EA53
:1008500052734FEAC2025FEA1C1CC0D111F4801F20
:100860000BD141EA00014FF000004FF0004CB6E719
:1008700011F4801F04BF01430020B4F1FD0C88BFB8
:10088000BCF5E06F3FF6AFAEB5EB030C04BFB6EBC3
:10089000020C5FEA500C50F1000041EB045170BDB6
:1008A0000EF0004E4EEA113114EB5C04C2BFD4EBE3
:1008B0000C0541EA045170BD41F480114FF0000E67
:1008C000013C90E645EA060E8DE60CEA135594EAE3
:1008D0000C0F08BF95EA0C0F3FF43BAF94EA0C0FE6
:1008E0000AD150EA01347FF434AF95EA0C0F7FF45B
:1008F00025AF104619462CE795EA0C0F06D152EAAF
:1009000003353FF4FDAE1046194622E750EA410692
:1009100018BF52EA43067FF4C5AE50EA41047FF4A3
:100920000DAF52EA43057FF4EBAE12E74FF0FF3C08
:1009300006E000BF4FF0010C02E000BF4FF0010CD9
:100940004DF804CD4FEA410C7FEA6C5C4FEA430C52
:1009500018BF7FEA6C5C1BD001B050EA410C0CBFA1
:1009600052EA430C91EA030F02BF90EA020F002003
:10097000704710F1000F91EA030F58BF994208BF6A
:1009800090422CBFD8176FEAE37040F00100704727
:100990004FEA410C7FEA6C5C02D150EA013C07D17E
:1009A0004FEA430C7FEA6C5CD6D152EA033CD3D0C9
:1009B0005DF8040B704700BF8446104662468C46C3
:1009C0001946634600E000BF01B5FFF7B7FF0028F6
:1009D00048BF10F1000F01BD4DF808EDFFF7F4FF1F
:1009E0000CBF012000205DF808FB00BF4DF808EDAA
:1009F000FFF7EAFF34BF012000205DF808FB00BFCD
:100A00004DF808EDFFF7E0FF94BF012000205DF8EE
:100A100008FB00BF4DF808EDFFF7CEFF94BF0120A3
:100A200000205DF808FB00BF4DF808EDFFF7C4FF9C
:100A300034BF012000205DF808FB00BF4FEA410CE5
:100A40007FEA6C5C02D150EA013C0AD14FEA430CC8
:100A50007FEA6C5C02D152EA033C02D14FF0000005
:100A600070474FF0010070474FEA410212F5001243
:100A700015D211D56FF47873B3EB625212D94FEAE5
:100A8000C12343F0004343EA505311F0004F23FACF
:100A900002F018BF404270474FF00000704750EA24
:100AA000013005D111F0004008BF6FF000407047E1
:100AB0004FF00000704700BF4A0011D212F500123B
:100AC00011D20DD56FF47873B3EB62520ED44FEAA6
:100AD000C12343F0004343EA505323FA02F0704726
:100AE0004FF00000704750EA013002D14FF0FF3064
:100AF00070474FF0000070474FEA4102B2F1E04307
:100B000024BFB3F5001CDCF1FE5C0DD901F0004CF4
:100B10004FEAC0024CEA5070B2F1004F40EB830044
:100B200008BF20F00100704711F0804F21D113F170
:100B30003872BCBF01F00040704741F480114FEAA9
:100B40005252C2F11802C2F1200C10FA0CF320FA32
:100B500002F018BF40F001004FEAC1234FEAD3234F
:100B600003FA0CFC40EA0C0023FA02F34FEA4303B9
:100B7000CCE77FEA625307D150EA01331EBF4FF042
:100B8000FE4040F44000704701F0004040F0FE405D
:100B900040F40000704700BF80F0004002E000BF5A
:100BA00081F0004142001FBF5FEA410392EA030F58
:100BB0007FEA226C7FEA236C6AD04FEA1262D2EBA2
:100BC0001363C1BFD218414048404140B8BF5B42A7
:100BD000192B88BF704710F0004F40F4000020F040
:100BE0007F4018BF404211F0004F41F4000121F056
:100BF0007F4118BF494292EA030F3FD0A2F10102A0
:100C000041FA03FC10EB0C00C3F1200301FA03F1DD
:100C100000F0004302D5494260EB4000B0F5000F00
:100C200013D3B0F1807F06D340084FEA310102F1BF
:100C30000102FE2A51D2B1F1004F40EBC25008BF71
:100C400020F0010040EA03007047490040EB00003B
:100C5000013A28BFB0F5000FEDD2B0FA80FCACF13C
:100C6000080CB2EB0C0200FA0CF0AABF00EBC25069
:100C700052421843BCBFD0401843704792F0000F57
:100C800081F4000106BF80F400000132013BB5E7AA
:100C90004FEA41037FEA226C18BF7FEA236C21D020
:100CA00092EA030F04D092F0000F08BF0846704785
:100CB00090EA010F1CBF0020704712F07F4F04D153
:100CC000400028BF40F00040704712F100723CBF66
:100CD00000F50000704700F0004343F0FE4040F490
:100CE000000070477FEA226216BF08467FEA23634E
:100CF0000146420206BF5FEA412390EA010F40F439
:100D0000800070474FF0000304E000BF10F0004384
:100D100048BF40425FEA000C08BF704743F096436B
:100D200001464FF000001CE050EA010208BF704786
:100D30004FF000030AE000BF50EA010208BF70470D
:100D400011F0004302D5404261EB41015FEA010C22
:100D500002BF84460146002043F0B64308BFA3F11A
:100D60008053A3F50003BCFA8CF2083AA3EBC253FC
:100D700010DB01FA02FC634400FA02FCC2F120021B
:100D8000BCF1004F20FA02F243EB020008BF20F052
:100D90000100704702F1200201FA02FCC2F12002B8
:100DA00050EA4C0021FA02F243EB020008BF20EAAD
:100DB000DC7070474FF0FF0C1CEAD0521EBF1CEADB
:100DC000D15392EA0C0F93EA0C0F6FD01A4480EAC9
:100DD000010C400218BF5FEA41211ED04FF00063B2
:100DE00043EA501043EA5111A0FB01310CF00040DE
:100DF000B1F5000F3EBF490041EAD3715B0040EA04
:100E0000010062F17F02FD2A1DD8B3F1004F40EBD3
:100E1000C25008BF20F00100704790F0000F0CF0A6
:100E2000004C08BF49024CEA502040EA51207F3A6A
:100E3000C2BFD2F1FF0340EAC250704740F4000045
:100E40004FF00003013A5DDC12F1190FDCBF00F036
:100E500000407047C2F10002410021FA02F1C2F1E4
:100E6000200200FA02FC5FEA310040F1000053EA80
:100E70004C0308BF20EADC70704792F0000F00F0CE
:100E8000004C02BF400010F4000F013AF9D040EAD4
:100E90000C0093F0000F01F0004C02BF490011F468
:100EA000000F013BF9D041EA0C018FE70CEAD15366
:100EB00092EA0C0F18BF93EA0C0F0AD030F0004CE6
:100EC00018BF31F0004CD8D180EA010000F000409A
:100ED000704790F0000F17BF90F0004F084691F058
:100EE000000F91F0004F14D092EA0C0F01D1420292
:100EF0000FD193EA0C0F03D14B0218BF084608D15B
:100F000080EA010000F0004040F0FE4040F40000A4
:100F1000704740F0FE4040F4400070474FF0FF0C37
:100F20001CEAD0521EBF1CEAD15392EA0C0F93EA7E
:100F30000C0F69D0A2EB030280EA010C49024FEAD0
:100F4000402037D04FF0805343EA111143EA101389
:100F50000CF000408B4238BF5B0042F17D024FF441
:100F6000000C8B4224BF5B1A40EA0C00B3EB510F1C
:100F700024BFA3EB510340EA5C00B3EB910F24BF05
:100F8000A3EB910340EA9C00B3EBD10F24BFA3EB8A
:100F9000D10340EADC001B0118BF5FEA1C1CE0D152
:100FA000FD2A3FF650AF8B4240EBC25008BF20F005
:100FB000010070470CF0004C4CEA50207F32C2BF59
:100FC000D2F1FF0340EAC250704740F400004FF0F6
:100FD0000003013A37E792F0000F00F0004C02BF27
:100FE000400010F4000F013AF9D040EA0C0093F0F1
:100FF000000F01F0004C02BF490011F4000F013B4B
:10100000F9D041EA0C0195E70CEAD15392EA0C0FB2
:1010100008D142027FF47DAF93EA0C0F7FF470AFEA
:10102000084676E793EA0C0F04D14B023FF44CAF2D
:1010300008466EE730F0004C18BF31F0004CCAD1C2
:1010400030F000427FF45CAF31F000437FF43CAFFE
:101050005FE700BF4FF0FF3C06E000BF4FF0010C20
:1010600002E000BF4FF0010C4DF804CD4FEA400202
:101070004FEA41037FEA226C18BF7FEA236C11D04C
:1010800001B052EA530C18BF90EA010F58BFB2EBFF
:10109000030088BFC81738BF6FEAE17018BF40F07F
:1010A000010070477FEA226C02D15FEA402C05D133
:1010B0007FEA236CE4D15FEA412CE1D05DF8040BB8
:1010C000704700BF844608466146FFE70FB5FFF74B
:1010D000C9FF002848BF10F1000F0FBD4DF808ED03
:1010E000FFF7F4FF0CBF012000205DF808FB00BFF4
:1010F0004DF808EDFFF7EAFF34BF012000205DF84E
:1011000008FB00BF4DF808EDFFF7E0FF94BF01209A
:1011100000205DF808FB00BF4DF808EDFFF7D2FF97
:1011200094BF012000205DF808FB00BF4DF808EDDA
:10113000FFF7C8FF34BF012000205DF808FB00BFA7
:101140004FEA4002B2F1FE4F0FD34FF09E03B3EBD4
:1011500012620DD94FEA002343F0004310F0004F14
:1011600023FA02F018BF404270474FF0000070476A
:1011700012F1610F01D1420205D110F0004008BF09
:101180006FF0004070474FF00000704742000ED2F1
:10119000B2F1FE4F0BD34FF09E03B3EB126209D4B2
:1011A0004FEA002343F0004323FA02F070474FF068
:1011B0000000704712F1610F01D1420202D14FF0DD
:1011C000FF3070474FF00000704700BF53B94AB975
:1011D000002908BF00281CBF4FF0FF314FF0FF303F
:1011E00000F0A6B9ADF1080C6DE904CE00F03EF8B0
:1011F000DDF804E0DDE9022304B0704738B50C46A1
:1012000005462146284600220023FFF7EFFB28B9B8
:1012100028462146BDE8384000F00AB8284604F1C7
:10122000004100F005F8404261EB410138BD00BFCC
:10123000D0B500220B4B06460F46FFF765F9FFF7C6
:101240003BFC0446FFF7E6F80022074BFFF75CF98A
:1012500002460B4630463946FEF79EFFFFF72CFC50
:101260002146D0BD0000F03D0000F0412DE9F047DF
:10127000089E0D4604468E46002B40F083808A422D
:10128000174647D9B2FA82F34BB1C3F1200105FAF0
:1012900003FE20FA01F19F4041EA0E0E9C404FEA06
:1012A0001748BEFBF8FC1FFA87F908FB1CE20CFB91
:1012B00009F0210C41EA024290420AD9BA180CF115
:1012C000FF3180F01881904240F21581ACF1020CA0
:1012D0003A44121AB2FBF8F008FB102200FB09F1A5
:1012E000A4B244EA0244A14209D93C1900F1FF32F8
:1012F00080F00381A14240F2008102383C44641A2C
:10130000002140EA0C401EB10022DC40C6E9004248
:10131000BDE8F08702B9FFDEB2FA82F3002B4FD1AD
:101320008D1A01214FEA124E1FFA82F8B5FBFEFC1E
:101330000EFB1C5508FB0CF0220C42EA0545A842A6
:1013400007D97D190CF1FF3202D2A84200F2E980E0
:1013500094462D1AB5FBFEF00EFB105508FB00F865
:10136000A4B244EA0544A04507D93C1900F1FF3274
:1013700002D2A04500F2D9801046A4EB080440EA4E
:101380000C40C0E78B4208D9002E00F0B18000214C
:10139000C6E900050846BDE8F087B3FA83F10029E5
:1013A0004BD1AB4202D3824200F2B980841A65EB82
:1013B000030301209E46002EAAD0C6E9004EA7E7EF
:1013C0009F40C3F12002D1404FEA174EB1FBFEF01F
:1013D0001FFA87F80EFB101124FA02F29D4000FB61
:1013E00008FC2A43150C45EA0145AC4504FA03F410
:1013F00009D97D1900F1FF3180F08F80AC4540F2B2
:101400008C8002383D44A5EB0C05B5FBFEF10EFBCC
:10141000115C01FB08F995B245EA0C45A94507D9CD
:101420007D1901F1FF3274D2A94572D902393D44C8
:10143000A5EB090541EA004178E7C1F120078B409F
:1014400022FA07FC4CEA030C25FA07F44FEA1C4E7B
:10145000B4FBFEF91FFA8CF80EFB194420FA07F3CF
:1014600009FB08FA8D401D432B0C43EA0444A245B6
:1014700002FA01F200FA01F309D91CEB040409F1A4
:10148000FF3048D2A24546D9A9F102096444A4EB31
:101490000A04B4FBFEF00EFB104400FB08FAADB2E8
:1014A00045EA0444A24508D91CEB040400F1FF35C9
:1014B0002DD2A2452BD90238644440EA0940A0FB52
:1014C0000289A4EB0A044C45C6464D4619D316D0F2
:1014D0005EB1B3EB0E0264EB050404FA07F722FADF
:1014E00001F31F43CC40C6E900740021BDE8F0873A
:1014F000314630460CE78C46EBE61046FFE64345A6
:10150000E6D2B8EB020E69EB0C050138E0E728469D
:10151000D3E711468CE78146B9E7084673E70846EA
:1015200049E7ACF1020C3D4413E702383C4424E7A0
:10153000704700BF80B500AF02F0EFFC00F032F85A
:1015400000F06EFA00F04EFA00F0F8F900F020FA20
:1015500000F078F800F0FCF800F030F900F064F9E1
:1015600000F0B6F900F083FD0A4801F0E5FD01F056
:10157000DFFB00F05DFF01F0D3F905F089FF064ABB
:101580000021064805F0EAFF0346054A136005F00E
:10159000B1FFFEE7701F0020ECEA0008291B0008DD
:1015A000D41E002080B592B000AF07F1140334229E
:1015B0000021184608F092FC3B4600221A605A604F
:1015C0009A60DA601A611E4B1B6823F4C0531C4AF0
:1015D00043F40063136003237B610123BB61012398
:1015E0003B6210237B620223BB634FF48033FB63B7
:1015F0004FF480233B644FF480037B6407F11403B2
:10160000184603F0AFFD0346002B01D000F09FFA0F
:101610000F233B6003237B600023BB600023FB6040
:1016200000233B613B460121184604F0CBF80346FA
:10163000002B01D000F08BFA00BF4837BD4680BDBB
:101640000070004080B584B000AF3B1D00221A60DE
:101650005A609A603C4B3D4A1A603B4B4FF4003253
:101660005A60394B00229A60374B0022DA60364BC1
:101670004FF480721A61344B00225A61324B0022BF
:101680009A61314B0022DA612F4B00221A622E4BF5
:10169000002283F824202C4B04229A622A4B002239
:1016A00083F82C20284B4FF080625A63264B4FF072
:1016B00080529A63244B012283F83C20224802F096
:1016C0009BFC0346002B01D000F041FA00237B6015
:1016D0000123BB600023FB603B1D19461A4802F042
:1016E00071FE0346002B01D000F031FA01237B602C
:1016F0000223BB603B1D1946134802F063FE0346FC
:10170000002B01D000F023FA08237B600323BB6089
:101710003B1D19460C4802F055FE0346002B01D034
:1017200000F015FA09237B600423BB603B1D1946BA
:10173000054802F047FE0346002B01D000F007FAEF
:1017400000BF1037BD4680BDCC20002000240140E2
:1017500080B500AF174B184A1A60164B4FF48272CF
:101760005A60144B00229A60124B0022DA60114B2F
:1017700000221A610F4B00225A610E4B4FF4007287
:101780009A610C4B0022DA610A4B00221A62094B63
:1017900000225A62074B00229A62064B0A22DA6242
:1017A000044804F0A1FA0346002B01D000F0CFF961
:1017B00000BF80BDF01F00200030014080B500AFA9
:1017C000174B184A1A60164B4FF482725A60144B2A
:1017D00000229A60124B0022DA60114B00221A613B
:1017E0000F4B00225A610E4B4FF400729A610C4B62
:1017F0000022DA610A4B00221A62094B00225A6267
:10180000074B00229A62064B0A22DA62044804F06F
:101810006BFA0346002B01D000F099F900BF80BDA0
:10182000D81E00200038004080B586B000AF07F118
:10183000100300221A605A603B4600221A605A6068
:101840009A60DA60204B214A1A601F4B40F67F42B3
:101850005A601D4B00229A601B4B6322DA601A4BC0
:1018600000221A61184B00225A61174804F01EFE2C
:101870000346002B01D000F06AF920233B610023CE
:101880007B6107F1100319460F4805F009F903467B
:10189000002B01D000F05BF900233B6000237B604C
:1018A0000023BB600023FB603B460022194606482C
:1018B00004F018FF0346002B01D000F048F900BFE8
:1018C0001837BD4680BD00BF301F00200004004017
:1018D00080B582B000AF3B4600221A605A60154BBB
:1018E000154A1A60134B40F23F125A60114B002206
:1018F0009A60104B6322DA600E4B00225A610D4849
:1019000004F0DAFC0346002B01D000F020F900239C
:101910003B6000237B603B461946064805F0C0F853
:101920000346002B01D000F012F900BF0837BD4676
:1019300080BD00BFB01F00200010004080B500AF88
:10194000114B124A1A60104B4FF4E1325A600E4BA1
:1019500000229A600C4B0022DA600B4B00221A61C5
:10196000094B0C225A61084B00229A61064B002257
:10197000DA61054805F0F2F80346002B01D000F0CB
:10198000E6F800BF80BD00BF701F00200038014096
:1019900080B500AF114B124A1A60104B4FF4E13280
:1019A0005A600E4B00229A600C4B0022DA600B4BFF
:1019B00000221A61094B0C225A61084B00229A61DD
:1019C000064B0022DA61054805F0C8F80346002BF3
:1019D00001D000F0BCF800BF80BD00BF482000204F
:1019E0000044004080B582B000AF0C4BDB690B4A6D
:1019F00043F08073D361094BDB6903F080737B6034
:101A00007B68002205210B2002F0D5FF0B2002F09D
:101A1000EEFF00BF0837BD4680BD00BF0038024062
:101A200080B588B000AF07F10C0300221A605A603D
:101A30009A60DA601A61394BDB69384A43F0200357
:101A4000D361364BDB6903F02003BB60BB68334BCB
:101A5000DB69324A43F00103D361304BDB6903F0A9
:101A600001037B607B682D4BDB692C4A43F002034A
:101A7000D3612A4BDB6903F002033B603B68002221
:101A80004FF48271264803F03CFB01224FF4905141
:101A9000234803F036FB4FF48273FB6001233B6164
:101AA00000237B610023BB6107F10C0319461C482E
:101AB00003F090F94FF49053FB6001233B61012345
:101AC0007B610023BB6107F10C031946144803F046
:101AD00081F94023FB60134B3B6101237B6107F1DC
:101AE0000C0319460E4803F075F98023FB600023B0
:101AF0003B6100237B6107F10C031946084803F0A2
:101B000069F900220521172002F055FF172002F085
:101B10006EFF00BF2037BD4680BD00BF00380240C9
:101B2000000402400000111080B582B000AF786060
:101B300000F062FC00F0EAFC002001F025F900F062
:101B4000D7FA00F09BFA012005F0B2FDF2E780B46D
:101B500000AF72B600BFFEE780B584B000AF174B90
:101B60005B6A164A43F000435362144B5B6A03F00E
:101B70000043FB60FB68114B1B6A104A43F00103F2
:101B800013620E4B1B6A03F00103BB60BB680B4B77
:101B90005B6A0A4A43F080535362084B5B6A03F066
:101BA00080537B607B6800220F216FF0010002F000
:101BB00002FF00BF1037BD4680BD00BF00380240A5
:101BC00080B58AB000AF786007F1140300221A6074
:101BD0005A609A60DA601A617B681B68354A9342E2
:101BE00063D1354B1B6A344A43F400731362324BA2
:101BF0001B6A03F400733B613B692F4BDB692E4A80
:101C000043F00103D3612C4BDB6903F00103FB605C
:101C1000FB68294BDB69284A43F00203D361264B5A
:101C2000DB6903F00203BB60BB6803237B61032312
:101C3000BB610023FB6107F1140319461F4803F041
:101C4000C9F803237B610323BB610023FB6107F118
:101C5000140319461A4803F0BDF81A4B1A4A1A60C1
:101C6000184B00225A60174B00229A60154B8022B5
:101C7000DA60144B4FF480721A61124B4FF4806299
:101C80005A61104B00229A610E4B0022DA610D4816
:101C900002F0C8FE0346002B01D0FFF758FF7B6817
:101CA000084A5A64074A7B68536200BF2837BD461A
:101CB00080BD00BF00240140003802400000024007
:101CC00000040240882000200860024080B58CB0EB
:101CD00000AF786007F11C0300221A605A609A6016
:101CE000DA601A617B681B682E4A934228D12E4B1A
:101CF0001B6A2D4A43F4805313622B4B1B6A03F477
:101D00008053BB61BB69284BDB69274A43F0010361
:101D1000D361254BDB6903F001037B617B69E02321
:101D2000FB6102233B6200237B620323BB6205232A
:101D3000FB6207F11C0319461C4803F04BF82DE029
:101D40007B681B681A4A934228D1174B5B6A164A74
:101D500043F480435362144B5B6A03F480433B615A
:101D60003B69114BDB69104A43F00203D3610E4B10
:101D7000DB6903F00203FB60FB684FF46043FB6127
:101D800002233B6200237B620323BB620523FB62C9
:101D900007F11C031946074803F01CF800BF303751
:101DA000BD4680BD003001400038024000000240C6
:101DB000003800400004024080B485B000AF786075
:101DC0007B681B68094A93420BD1094B5B6A084A3E
:101DD00043F002035362064B5B6A03F00203FB60AD
:101DE000FB6800BF1437BD4680BC7047000400404C
:101DF0000038024080B584B000AF78607B681B6813
:101E00000D4A934213D10D4B5B6A0C4A43F0100309
:101E100053620A4B5B6A03F01003FB60FB6800220D
:101E200005212B2002F0C7FD2B2002F0E0FD00BFB2
:101E30001037BD4680BD00BF001000400038024092
:101E400080B58CB000AF786007F11C0300221A60E7
:101E50005A609A60DA601A617B681B68364A93425E
:101E600031D1364B1B6A354A43F480431362334BFE
:101E70001B6A03F48043BB61BB69304BDB692F4AAB
:101E800043F00103D3612D4BDB6903F001037B6158
:101E90007B694FF4C063FB6102233B6200237B62DA
:101EA0000323BB620723FB6207F11C031946244886
:101EB00002F090FF00220521252002F07CFD252064
:101EC00002F095FD34E07B681B681E4A93422FD1D7
:101ED0001A4B5B6A194A43F400335362174B5B6A2F
:101EE00003F400333B613B69144BDB69134A43F055
:101EF0000103D361114BDB6903F00103FB60FB6855
:101F00000C23FB6102233B6200237B620323BB6241
:101F10000723FB6207F11C031946094802F05AFF28
:101F200000220521262002F046FD262002F05FFD5A
:101F300000BF3037BD4680BD003801400038024048
:101F4000000002400044004080B400AFFEE780B4CF
:101F500000AFFEE780B400AFFEE780B400AFFEE75D
:101F600080B400AFFEE780B400AF00BFBD4680BCC8
:101F7000704780B500AF02F023F806F0A5FF0346D6
:101F8000012B01D007F000FD00BF80BD80B500AF80
:101F9000024802F040FE00BF80BD00BF8820002044
:101FA00080B500AF402003F0C5F800BF80BD000041
:101FB00080B500AF024804F00BFF00BF80BD00BF3A
:101FC000701F002080B500AF024804F001FF00BF81
:101FD00080BD00BF4820002080B500AF044804F059
:101FE000A4FA044B1B680133024A136000BF80BD92
:101FF000B01F00200402002080B400AF024B1B6819
:102000001846BD4680BC70470402002080B400AF73
:10201000034B4FF000629A6000BFBD4680BC704722
:1020200000ED00E0002103E00B4B5B58435004310E
:102030000A480B4B42189A42F6D30A4A02E00023A0
:1020400042F8043B084B9A42F9D3FFF7DFFF07F051
:10205000F9FEFFF76FFA704794F0000800000020C7
:10206000E8010020E8010020E8220020FEE780B51A
:1020700000AF00F0E7F900BF80BD000080B500AF01
:102080008021174803F026F803461A46154B1A74A8
:10209000144B1B7C002B1ED0134B1B78002B02D043
:1020A000012B09D019E0FFF7A7FF03460F4A136081
:1020B0000D4B01221A7011E0FFF79EFF02460B4BF9
:1020C0001B68D31AB3F57A7F07D9074B00221A7021
:1020D00000F0B4F801E000BF00E000BF00BF80BD29
:1020E00000040240C01E0020940200209002002044
:1020F00080B500AF454800F0C1FF034683F00103FF
:10210000DBB2002B60D04249404800F085FF034617
:10211000002B59D03F4B1B7883F00103DBB2002B1F
:1021200013D052233C4A3D493D4801F053F83D4805
:1021300001F050F83C4801F04DF8FFF75DFF034611
:102140003A4A1360334B01221A70314B1B780A2B29
:102150000CBF01230023DAB22D4B1B780D2B0CBFD3
:1021600001230023DBB21343DBB2002B15D058232D
:10217000294A2A492A4801F02DF82D492D4801F015
:1021800029F8294801F026F82B4B00221A708022EA
:102190000021274807F0A2FE16E0274B1B785BB210
:1021A000002B04DA80220021214807F097FE224B01
:1021B0001B781A46164B19781D4B99541E4B1B78E9
:1021C0000133DAB21C4B1A70124B1B78002B1AD059
:1021D000FFF712FF0246154B1B68D31AC82B12D902
:1021E0000C4B00221A706C230B4A0C490C4800F06F
:1021F000F1FF0F490F4800F0EDFF0B4800F0EAFF38
:102200000D4B00221A7000BF80BD00BF20210020AE
:10221000890200208A02002034EB0008D4E700087D
:10222000D8E70008E8E70008F4E700088C0200207F
:1022300008020020F8E700088802002080B584B07A
:1022400000AF00233B711A4B1B881B0A9BB2DBB209
:102250007B71174B1B88DBB2BB71154B9B891B0A2B
:102260009BB2DBB2FB71124B9B89DBB23B72104B12
:102270009B881B0A9BB2DBB27B720D4B9B88DBB247
:10228000BB720B4B9B681B0CDBB2FB72084B9B6851
:102290001B0ADBB23B73064B9B68DBB27B733B1DB7
:1022A0000A21184600F006F800BF1037BD4680BD71
:1022B000C01E002080B588B000AF78600B46FB7070
:1022C00000233B770023FB770023BB7700237B773A
:1022D000AA233B7355237B73FB78BB73FA7FFB7890
:1022E0001344FB77BA7FFB7F1344BB7700237B77D4
:1022F00018E07B7F7A681A447B7F0333127807F1FA
:1023000020010B4403F8142C7B7F7A6813441A785D
:10231000FB7F1344FB77BA7FFB7F1344BB777B7F44
:1023200001337B777A7FFB789A42E2D37B7F03335A
:1023300007F120021344FA7F03F8142C7B7F043347
:1023400007F120021344BA7F03F8142CFB789BB2E8
:1023500005339AB207F10C031146184600F090F8C5
:102360003B7F18462037BD4680BD000080B584B055
:1023700000AF78600023FB810023BB810023BB609A
:10238000194804F023F80023BB8123E00023BB603D
:102390000023FB810EE0FB899A00BB891344134A9A
:1023A00032F813309BB21A46BB681344BB60FB89FA
:1023B0000133FB81FB89042BEDD9BB680C4AA2FBDE
:1023C00003239A08BB8991B20A4A22F81310BB89E9
:1023D0000133BB81BB89032BD8D900F00DF800BFB6
:1023E0001037BD4680BD00BF301F00203C210020BB
:1023F000CDCCCCCC3421002080B500AF14220449D0
:10240000044801F03FFF044803F096FF00BF80BD81
:102410003C210020CC200020301F002080B400AFE1
:10242000024B1846BD4680BC704700BF34210020D7
:1024300080B500AF024803F0E7FF00BF80BD00BFDA
:10244000B01F002080B500AF00F002F800BF80BDD3
:1024500080B500AF012380220549064800F08EFDBB
:1024600001220549054804F05FFC00BF80BD00BFA4
:102470000802002020210020950200204820002092
:1024800080B584B000AF78600B467B807A88C82323
:102490007968054804F0AFFB0346FB730023184638
:1024A0001037BD4680BD00BF482000200FB480B566
:1024B000ADF5027D00AF3B1D00221A60043340F2EF
:1024C000FD120021184607F009FD07F505723B468D
:1024D0001A603B46381D1A68D7F8101209F062FAE4
:1024E0000346A7F80632B7F80622391D64230648CA
:1024F00004F081FB4FF0FF33184607F50277BD4625
:10250000BDE8804004B070474820002080B500AF8F
:1025100000F00AF800F03AF800F06AF800F09EFBCC
:1025200000F06EFA00BF80BD80B582B000AF00231E
:10253000FB80FFF773FF03461B88FB80FB88184670
:10254000FEF7E4FB03460D491846FEF733FC03464D
:102550000B491846FEF72EFC03460A491846FEF7BB
:10256000DDFC03461846FEF711FE03469AB2064B01
:102570001A8000BF0837BD4680BD00BFE54C4E3F06
:102580000080B54300003C42C01E002080B582B0F0
:1025900000AF0023FB80FFF741FF03465B88FB8011
:1025A000FB881846FEF7B2FB03460D491846FEF7B6
:1025B00001FC03460B491846FEF7FCFB03460A499B
:1025C0001846FEF7ABFC03461846FEF7DFFD034650
:1025D0009AB2064B5A8000BF0837BD4680BD00BF87
:1025E000E54C4E3F0000DC4200002041C01E0020B0
:1025F000B0B582B000AF0023FB80FFF70FFF0346AA
:102600009B88FB80FB881846FEF780FB0346264923
:102610001846FEF7CFFB034624491846FEF77EFC1A
:1026200003461A46224B1A60214B1B682149184663
:10263000FEF7C0FB03461846FDF70EFF04460D46A5
:102640001B4B1B681846FDF707FF02460B4614A1FB
:10265000D1E90001FDF7A0FD02460B4620462946C0
:10266000FEF77CF802460B4610461946FEF744FA80
:102670000346114A1360104B1B6810491846FEF7B9
:1026800099FB0346184600F01DF803469AB20C4B1E
:102690009A8000BF0837BD46B0BD00BFAFF30080D1
:1026A0006666666666264240E54C4E3F00007A4408
:1026B00098020020000016459C02002000002041E6
:1026C000C01E002080B586B002AF78600023FB609A
:1026D00089497868FEF70CFD0346002B02D00023E1
:1026E000FB6003E184497868FEF716FD0346002B82
:1026F00013D082497868FEF7FBFC0346002B0CD010
:102700007868FEF71DFD0A2300934FF49B730022A7
:10271000642101F0B1FBF860E8E078497868FEF7E1
:10272000FBFC0346002B14D075497868FEF7E0FCEB
:102730000346002B0DD07868FEF702FD14230093AA
:102740004FF402730A224FF49B7101F095FBF8607D
:10275000CCE06B497868FEF7DFFC0346002B14D011
:1027600068497868FEF7C4FC0346002B0DD07868F2
:10277000FEF7E6FC1E23009340F2C62314224FF41A
:10278000027101F079FBF860B0E05E497868FEF70D
:10279000C3FC0346002B14D05B497868FEF7A8FC05
:1027A0000346002B0DD07868FEF7CAFC282300935F
:1027B0004FF45C731E2240F2C62101F05DFBF8600D
:1027C00094E051497868FEF7A7FC0346002B14D02B
:1027D0004E497868FEF78CFC0346002B0DD07868D4
:1027E000FEF7AEFC3223009340F2244328224FF43C
:1027F0005C7101F041FBF86078E044497868FEF7CD
:102800008BFC0346002B14D041497868FEF770FC1E
:102810000346002B0DD07868FEF792FC3C23009312
:102820004FF49B63322240F2244101F025FBF86013
:102830005CE037497868FEF76FFC0346002B14D044
:1028400034497868FEF754FC0346002B0DD07868B5
:10285000FEF776FC4623009340F20E633C224FF4D1
:102860009B6101F009FBF86040E02A497868FEF7B7
:1028700053FC0346002B14D027497868FEF738FC38
:102880000346002B0DD07868FEF75AFC50230093C6
:1028900040F2A463462240F20E6101F0EDFAF860C6
:1028A00024E01D497868FEF737FC0346002B14D05E
:1028B0001A497868FEF71CFC0346002B0DD0786897
:1028C000FEF73EFC5A2300934FF4E663502240F299
:1028D000A46101F0D1FAF86008E010497868FEF7C9
:1028E00011FC0346002B01D06423FB60FB681846F3
:1028F0001037BD4680BD00BF0000C84200009B43AA
:10290000000002440080314400005C4400808444A4
:1029100000009B4400C0C1440080D4440000E64451
:1029200080B582B000AF0023FB7100F05BF9034675
:10293000FB710A2004F0BCFE39232A4A2A492B489D
:1029400000F048FC442000F013F9034619462848DB
:1029500000F040FC274800F03DFC3A23214A224980
:10296000224800F037FC2A2000F002F903461946FD
:10297000214800F02FFC1F4800F02CFC3B23194A93
:1029800019491A4800F026FCA22000F0F1F803468D
:102990001946194800F01EFC164800F01BFC3C23A9
:1029A000104A1149114800F015FCCA2000F0E0F867
:1029B00003461946104800F00DFC0E4800F00AFCD2
:1029C0003D23084A0849094800F004FC0B4800F080
:1029D00001FC084800F0FEFBFB7918460837BD46AD
:1029E00080BD00BF48EB000808E800080CE80008BC
:1029F0001CE8000834E8000838E8000840E800084F
:102A000080B500AF214B1B78022B24D0022B35DC84
:102A1000002B02D0012B0BD030E01C4B01221A708E
:102A2000FFF7EAFA03461A4A136000F033F82AE087
:102A3000FFF7E2FA0246164B1B68D31A032B1FD985
:102A4000124B00221A70FFF7D7FA0346104A1360A0
:102A500000F02AF814E0FFF7CFFA02460C4B1B688F
:102A6000D31A032B0ED9094B00221A70FFF7C4FAB0
:102A70000346074A136000F04FF803E000BF02E08E
:102A800000BF00E000BF00BF80BD00BFA402002067
:102A9000A002002080B500AFE02000F069F801201E
:102AA00000F0A8F800BF80BD80B582B000AF002064
:102AB00000F0A0F8FFF7B2FC0346DB88FB80FB8840
:102AC0001846FEF71FF903460F491846FEF726FA87
:102AD00003460E491846FEF76DF903461946184697
:102AE000FEF760F803460A491846FEF717FA034650
:102AF0003B603868FEF74AFB03469AB2054B9A8161
:102B000000BF0837BD4680BD00F07F450000C842C9
:102B100000004040C01E002080B582B000AF002001
:102B200000F068F8FFF77AFC0346DB88FB80FB883F
:102B30001846FEF7E7F803460A491846FEF7EEF98D
:102B4000034609491846FEF735F903463B603868E5
:102B5000FEF71CFB03469AB2044BDA8100BF08372C
:102B6000BD4680BD00F07F450000C842C01E002069
:102B700080B586B002AF0346FB710023BB73002310
:102B8000FB7300F05FF807F10E02F91D6423009358
:102B900001230E4803F024F90346FB73FB7B002B53
:102BA0000DD0B3230A4A0B490B4800F013FBFB7B03
:102BB00019460A4800F00EFB094800F00BFB00F034
:102BC00035F8BB7B18461037BD4680BDD81E0020A7
:102BD0005CEB000808E800080CE8000844E800087E
:102BE00034E8000880B400AF01231846BD4680BC1D
:102BF0007047000080B582B000AF0346FB71FB79DF
:102C0000012B05D101220421074802F07AFA07E0DE
:102C1000FB79002B04D100220421034802F071FA51
:102C200000BF0837BD4680BD0004024080B500AF3C
:102C300001224FF48051024802F063FA00BF80BDC8
:102C40000004024080B500AF00224FF480510248DA
:102C500002F057FA00BF80BD0004024080B500AF0B
:102C6000154B1B78002B02D0012B09D020E0FFF779
:102C7000C3F90346114A13600F4B01221A7018E082
:102C8000FFF7BAF902460D4B1B68D31AB3F57A7FEA
:102C90000ED9094B00221A70094B1A6813461B0102
:102CA0009B1A9B001A46074B9A60054B00221A603C
:102CB00000BF00BF80BD00BFAC020020B0020020FA
:102CC000A8020020C01E002080B483B000AF0346DD
:102CD000FB80FB88402B04D1044B1B680133034A63
:102CE000136000BF0C37BD4680BC7047A8020020AF
:102CF00080B582B000AF786039607B681B78184679
:102D000000F09AFA034618460837BD4680BD80B5E4
:102D100084B000AF7860396000F0A0FA0346FB731E
:102D20007B68FA7B1A70FB7B18461037BD4680BD66
:102D300080B584B002AF0E4B00930E4B0E4A0F4984
:102D40000F4800F0D3FA00237B6009E07B681B0189
:102D50000C4A1344184601F05BF87B6801337B6032
:102D60007B68032BF2D900BF00BF0837BD4680BD8A
:102D7000F8E80008D53100080F2D0008F12C0008F4
:102D80006421002064EB000880B582B000AF786059
:102D9000034800F0CDFA00BF0837BD4680BD00BF34
:102DA0006421002080B485B000AFF860B9607A601B
:102DB000002318461437BD4680BC704780B586B0E6
:102DC00000AFF860B9607A607B685B687B617969A5
:102DD0000348FFF76BFB002318461837BD4680BD3C
:102DE000FCE8000880B584B000AFF860B9607A6094
:102DF0006223394A39493A4800F0ECF9394B1B7CD7
:102E0000012B01D1384B00E0384B1946384800F00F
:102E1000E1F9384800F0DEF963232F4A2F493048A2
:102E200000F0D8F92F4B9B881946334800F0D2F9AF
:102E3000304800F0CFF96423274A2849284800F099
:102E4000C9F9284B5B8819462C4800F0C3F929487A
:102E500000F0C0F96523204A2049214800F0BAF962
:102E6000204B1B881946264800F0B4F9214800F091
:102E7000B1F96623184A1949194800F0ABF9194B02
:102E80009B8919461F4800F0A5F91A4800F0A2F9DD
:102E90006723114A1149124800F09CF9114BDB8954
:102EA0001946194800F096F9124800F093F9682382
:102EB000094A0A490A4800F08DF90A4B9B681946ED
:102EC000124800F087F90B4800F084F900231846F7
:102ED0001037BD4680BD00BFA4EB000804E9000820
:102EE00008E90008C01E002018E9000820E90008D1
:102EF0002CE900083CE9000840E9000854E9000812
:102F00006CE9000884E9000898E90008ACE90008C9
:102F100080B586B000AFF860B9607A607B68043332
:102F20001B68184606F08AFF0346FB8200233B61BC
:102F3000FB8A1846FDF7E6FE03461846FFF7C2FB7C
:102F400038617123084A0949094800F043F9396991
:102F5000084800F03FF9084800F03CF900BF184667
:102F60001837BD4680BD00BFB0EB0008BCE90008C3
:102F700008E90008C0E900083CE9000880B485B011
:102F800000AFF860B9603B601346FB80BB68002B64
:102F90001CD0FB68002B19D0FB88002B16D0FB68D7
:102FA000BA681A60FB683A685A60FB883A6802FBA4
:102FB00003F2FB689A60FB6800229A81FB6800229A
:102FC000DA81FB6800221A61012300E00023184621
:102FD0001437BD4680BC704780B582B000AF7860C2
:102FE0003960786800F038F8034683F00103DBB2FB
:102FF000002B0CD03968786800F077F87B681A6984
:103000007B685B681A447B681A61012300E0002337
:1030100018460837BD4680BD80B582B000AF7860E5
:103020003960786800F02AF8034683F00103DBB2C8
:10303000002B0CD03968786800F030F87B681A698A
:103040007B685B68D21A7B681A61012300E0002369
:1030500018460837BD4680BD80B483B000AF7860A5
:103060007B681A697B689B689A4201D3012300E060
:10307000002318460C37BD4680BC704780B483B02F
:1030800000AF78607B681B69002B01D1012300E051
:10309000002318460C37BD4680BC704780B582B00F
:1030A00000AF786039607B681B687A6892899918EC
:1030B0007B685B681A46386806F0E8FE7B689A8988
:1030C0007B685B689BB213449AB27B689A817B6889
:1030D0009B891A467B689B689A4202D37B680022D0
:1030E0009A8100BF0837BD4680BD80B582B000AF71
:1030F000786039607B681B687A68D28998187B6829
:103100005B681A46396806F0C1FE7B68DA897B681D
:103110005B689BB213449AB27B68DA817B68DB8977
:103120001A467B689B689A4202D37B680022DA8148
:1031300000BF0837BD4680BD80B582B000AF786063
:10314000044A7B68136000F007F800BF0837BD46EB
:1031500080BD00BFB402002080B500AF01234FF452
:10316000007206490648FFF709FF01220549064893
:1031700003F0DAFD0023184680BD00BFB80200202E
:1031800080220020B8040020701F002080B584B089
:1031900000AF78600E48FFF771FF0346002B01D0A7
:1031A000002310E00023FB7307F10F0319460848C2
:1031B000FFF732FF0346002B04D0FA7B7B681A70BE
:1031C000012300E0002318461037BD4680BD00BF34
:1031D000802200200FB480B5ADF5027D00AF3B1D0D
:1031E00000221A60043340F2FD120021184606F056
:1031F00075FE07F505723B461A603B46381D1A6896
:10320000D7F8101208F0CEFB0346A7F80632094B98
:103210001868B7F80622391D4FF4C87303F0EBFCA9
:103220004FF0FF33184607F50277BD46BDE88040F2
:1032300004B07047B402002080B582B000AF78605F
:10324000054B186864230122796803F0D4FC00233D
:1032500018460837BD4680BDB402002080B582B054
:1032600000AF00237B603B1D1846FFF78FFF03462E
:10327000012B01D17B6800E0002318460837BD46CA
:1032800080BD000080B582B000AF78607B68104AD6
:1032900093420BD10F491048FFF79EFE0F4B1B685E
:1032A00001220C49184603F03FFD0CE07B680C4AF4
:1032B000934208D10B490C48FFF78EFE01220949C1
:1032C000074803F031FD00BF0837BD4680BD00BF91
:1032D000701F0020B804002080220020B4020020CB
:1032E00048200020950200202021002080B584B0D5
:1032F00000AFF860B9607A603B604FF48E720021D5
:10330000F86806F0EBFDFB68BA689A64FB687A68B7
:10331000DA64FB683A681A65FB68BA691A600348A0
:1033200000F076FD00BF1037BD4680BDC0EB000841
:1033300080B584B000AF78607B68002B00F02782F6
:10334000AD4B1B78012B15D17B68002283F8182127
:103350007B681B6DA949AA4898477B681B6DA948E3
:1033600098477B681B6D7A68126810469847A24B95
:1033700000221A7005F06EFA03461A46A24B1B682B
:10338000D31A132B40F2058205F064FA03461A465D
:103390009D4B1A607B6893F81831002B40F0FB813D
:1033A000786800F059FD0346FB72FB7A002B00F0B1
:1033B000F481FB7A1B2B03D17B6801221A71EFE1A8
:1033C0007B681B79012B0AD1FB7A5B2B03D17B68CD
:1033D00002221A71E4E17B6800221A7138E17B68ED
:1033E0001B79022B7CD17B6800221A71FB7A413B4E
:1033F000032B6BD801A252F823F000BF0D34000854
:1034000043340008933400086F3400087B68B3F835
:103410005430DBB21946786800F032FB7B68B3F8B1
:1034200054301A467B68B3F85630013B9A424FDA63
:103430007B68B3F8543001339AB27B68A3F8542008
:1034400046E07B68B3F85430DBB21946786800F088
:1034500017FB7B68B3F85430002B3BD07B68B3F884
:103460005430013B9AB27B68A3F8542032E07B6869
:1034700093F84730002B2FD07B681B6D634898472B
:103480007B6893F84730013BDAB27B6883F84720CA
:1034900022E07B6893F847207B6893F846309A4295
:1034A0001CD27B681B6D7A6892F8472011467A68B7
:1034B0000A4452791146564898477B6893F847303A
:1034C0000133DAB27B6883F8472007E000BF67E189
:1034D00000BF65E100BF63E100BF61E100BF5FE1E4
:1034E000FB7A092B24D10023FB6006E07B681B6D6F
:1034F00046489847FB680133FB607B6893F8473088
:103500001A46FB689342F1DB786800F01BFB7B688E
:103510000533184600F0C2FB0346DAB27B6883F835
:1035200046207B6893F846207B6883F8472037E184
:10353000FB7A602B09D17B6893F84630002B04D1CD
:103540007B685B79002B00F08380FB7A7F2B02D0B5
:10355000FB7A082B7CD17B6893F84730002B00F076
:103560001E817B6893F84630013BDAB27B6883F8B2
:1035700046207B6893F84730013BDAB27B6883F8DA
:1035800047207B6893F846207B6893F847309A423F
:1035900051D97B6893F847301A467B681344581D0D
:1035A0007B6893F8473001337A681344591D7B6870
:1035B00093F846301A467B6893F84730D31A1A4678
:1035C00006F072FC7B6893F846301A467B68134419
:1035D00000225A717B681B6D7A6892F84720114669
:1035E0007A680A44053211460A4898477B6893F87E
:1035F0004730FB6017E000BF0400002004EA000829
:1036000010EA000828EA0008A00500204CEA00089B
:1036100050EA000854EA00087B681B6D624898472E
:10362000FB680133FB607B6893F846301A46FB6801
:103630009342F1DDB4E07B681B6D5C4898477B6882
:1036400093F846301A467B68134400225A71A7E06B
:103650007B6893F846303E2B03D97B68002283F8C1
:103660004620FB7A0D2B02D0FB7A0A2B25D17B68F2
:103670001B6D4F4898477B6805331946786800F002
:10368000C1F87B68002283F846207B6893F84620C7
:103690007B6883F847207B680022A3F854207B686E
:1036A0001B6D7A681268104698477B680533402284
:1036B0000021184606F012FC72E07B6893F8472060
:1036C0007B6893F846309A4240D27B6893F8473043
:1036D00001337A681344581D7B6893F847301A46C3
:1036E0007B681344591D7B6893F846301A467B6803
:1036F00093F84730D31A1A4606F0D6FB7B6893F846
:1037000047301A467B681344FA7A5A717B681B6DFE
:103710007A6892F8472011467A680A4405321146C1
:10372000244898477B6893F84730FB6006E07B6845
:103730001B6D1D489847FB680133FB607B6893F85D
:1037400046301A46FB689342F1DB0DE07B6893F844
:1037500046301A467B681344FA7A5A717B681B6DAF
:10376000FA7A1146144898470023FB727B6893F855
:1037700046300133DAB27B6883F846207B6893F8E1
:1037800047300133DAB27B6883F8472008E000BF96
:1037900006E000BF04E000BF02E000BF00E000BFA1
:1037A0001037BD4680BD00BF4CEA00085CEA000847
:1037B00060EA000864EA000850EA000880B586B0B4
:1037C00000AFF860B9607A600023FB750023FB75D9
:1037D0000BE0FB681B6DFA7D094951F82220526805
:1037E00010469847FB7D0133FB75054B93F8A030DD
:1037F000FA7D9A42EDD3002318461837BD4680BDA6
:10380000BC040020B0B5C6B000AF3B1D18603B46FD
:103810001960012387F81731002387F816313B46DA
:10382000186800F03BFA034687F8153197F8151130
:1038300007F10C023B46186800F06CFAC7F810015B
:103840008B4B1B68002B68D1D7F81031002B64DD3F
:10385000002387F8163157E097F81631854A52F859
:103860002330834A1360824B1B681B68824A1360B3
:10387000814B1B68184600F011FA034687F80F3198
:1038800097F80F313A46126813441B78202B07D063
:1038900097F80F313A46126813441B78002B2ED14B
:1038A000754B186807F10C031B6897F80F21194630
:1038B00000F00BFA0346002B21D16D4B1B681B7BDC
:1038C000002B07D1D7F81031012B03D1002387F843
:1038D000173121E0664B1B681B7B002B0BD0D7F800
:1038E0001031013B624A1268127B934214D10023CB
:1038F00087F8173110E0012387F817310CE097F8AB
:103900001631013387F816315A4B93F8A03097F8E7
:1039100016219A42A0D300E000BF554B1B68002B34
:103920000CD097F81731012B08D13B1D1B681B6D7C
:10393000524898474E4B00221A6093E04C4B1B684C
:10394000002B00F08C803B46186800F0A7F9034676
:1039500087F8153197F815413B1D1B6803F1580591
:103960003B46186800F09AF902463B46294618681B
:1039700000F0ABF903469C4263D0022387F816316E
:1039800032E097F816313A1D9B0158331268134400
:1039900040220021184606F0A1FA97F81631013BA3
:1039A0003A1D9B01583312681344184600F076F90B
:1039B000034687F8153197F816313A1D9B015833A5
:1039C0001268D01897F81631013B3A1D9B01583305
:1039D0001268134497F81521194600F03DF997F83D
:1039E0001631013B87F8163197F81631002BC8D1F4
:1039F0003B1D1B68583340220021184606F06EFA22
:103A00003B46186800F04AF9034687F815313B1D1C
:103A10001B6803F1580097F815213B46196800F020
:103A20001BF93B1D1B68B3F85630022B09D83B1D10
:103A30001B68B3F8563001339AB23B1D1B68A3F8DC
:103A400056200B4B1B689B6807F10C02381DD7F8FA
:103A5000101100689847064B00221A6002E0044BE0
:103A600000221A6000BF07F58C77BD46B0BD00BFCD
:103A7000A4050020BC040020A805002068EA000876
:103A800080B584B000AF78600B46FB707B6893F81C
:103A90005830002B04D17B680022A3F854204CE05E
:103AA000FB78032B01D90223FB707B680533184692
:103AB00000F0F4F80346BB60BB68002B14D07B68B1
:103AC0000533BA680021184606F008FA0023FB7394
:103AD00006E07B681B6D1A489847FB7B0133FB733C
:103AE000FB7BBA689A42F4D8FB789B0158337A681A
:103AF0001344184600F0D2F80346DAB27B6883F824
:103B000046207B6893F846207B6883F847207B68D3
:103B1000581DFB789B0158337A68D1187B6893F85D
:103B200046301A4600F098F87B681B6DFA789201CF
:103B3000583279680A44104698471037BD4680BD10
:103B40005CEA000890B589B000AF78600023FB758F
:103B50000023FB600023BB6100233B617B680533CE
:103B6000184600F09BF80346002B69D07B681B6D5C
:103B7000354898477B685B79002B05D100220021EE
:103B80007868FFF71BFE5CE00023FB753FE0FB7DE0
:103B90002E4A52F82330FB60FB681B68BB607B68D1
:103BA0005C1D7B680533184600F078F803461A461A
:103BB000B968204600F089F80346002B24D1BB6980
:103BC000002B0BD1BB683B61386900F067F8B86126
:103BD0007B681B6DB9681E48984715E0386900F08E
:103BE0005DF803461A46B968386900F06EF8F86166
:103BF000FB69002B02DAFB695B42FB61FA69BB6976
:103C00009A4201DAFB69BB61FB7D0133FB750F4B07
:103C100093F8A030FA7D9A42B9D33B69002B06D0C5
:103C20007B680533BA693969184600F015F87B6876
:103C30001B6D7A6811687A6805320648984700E07B
:103C400000BF2437BD4690BD60EA0008BC040020D8
:103C5000C4EA0008CCEA000880B487B000AFF8607E
:103C6000B9607A60FB683B6100237B6100237B6164
:103C70000AE07B69BA681A447B69F9680B441278D8
:103C80001A707B6901337B617A697B689A42F0DB49
:103C90003B6918461C37BD4680BC704780B485B070
:103CA00000AF78600023FB6005E07B6801337B6038
:103CB000FB680133FB607B681B78002BF5D1FB6848
:103CC00018461437BD4680BC704780B485B000AF3D
:103CD000F860B9607A6012E0FB685A1CFA601A78E2
:103CE000BB68591CB9601B789A4208D0FB68013B3D
:103CF0001B781A46BB68013B1B78D31A05E07B682A
:103D00005A1E7A60002BE7D1002318461437BD46AF
:103D100080BC704780B588B000AFF860B9607A6049
:103D2000BB6801331A460021384806F0D7F8BB6853
:103D30001A46F9683548FFF78FFF344BBB61002303
:103D40007B610023FB6158E0BB6900221A70BB69EC
:103D50000133BB617B6901337B61BB691B78202B1D
:103D600003D17A69BB689A42EED3BB691B78222BD8
:103D700027D1BB690133BB617B6901337B61FB697F
:103D80009B007A681344BA691A60FB690133FB61CE
:103D900005E0BB690133BB617B6901337B61BB69B2
:103DA0001B78222B03D07A69BB689A42F1D3BB6996
:103DB00000221A70BB690133BB617B6901337B61EF
:103DC0001BE0FB699B007A681344BA691A60FB69BF
:103DD0000133FB6105E0BB690133BB617B690133E2
:103DE0007B61BB691B78202B07D0BB691B78092B33
:103DF00003D07A69BB689A42EDD37A69BB689A426C
:103E0000ABD3FB6918462037BD4680BD6005002056
:103E100080B485B000AF78600023FB600D4B93F851
:103E2000A030272B0DD80B4B93F8A0305A1CD1B2E1
:103E3000084A82F8A0101946064A7B6842F82130E9
:103E400002E04FF0FF33FB60FB6818461437BD46B5
:103E500080BC7047BC04002080B584B000AF78609F
:103E60007B68DB6C07F10F02012110469847FB7B52
:103E700018461037BD4680BD80B586B000AFF860EB
:103E8000B9607A603B6000237B61FA68BB68D31A33
:103E9000396A7A688A1A02FB03F37B613A68BB6865
:103EA000D31A7A6992FBF3F37B617A697B681344D6
:103EB0007B613A6A7B689A4206DA7A68396A78697D
:103EC00000F00DF8786105E03A6A7968786900F0E9
:103ED00006F878617B6918461837BD4680BD80B406
:103EE00087B000AFF860B9607A6000237B61FA6840
:103EF0007B689A4202DD7B687B6108E0FA68BB68F8
:103F00009A4202DABB687B6101E0FB687B617B69F6
:103F100018461C37BD4680BC704780B582B000AFE4
:103F20000023FB71032000F03BFD0F2000F00EF892
:103F30000346002B02D00123FB7101E0FDF70CFECC
:103F4000FB7918460837BD4680BD000080B584B0B7
:103F500000AF78600023FB73164B1B68002B22D048
:103F6000154B1A68134B1B684FF47A71B1FBF3F3CE
:103F7000B2FBF3F3184600F048FD0346002B0FD1C7
:103F80007B680F2B09D8002279684FF0FF3000F0D2
:103F900012FD0A4A7B68136007E00123FB7304E00B
:103FA0000123FB7301E00123FB73FB7B18461037F1
:103FB000BD4680BD0C00002000000020080000204D
:103FC00080B400AF054B1A68054B1B681344034AC5
:103FD000136000BFBD4680BC704700BF9422002024
:103FE0000C00002080B400AF024B1B681846BD4691
:103FF00080BC70479422002080B58EB000AF7860FE
:10400000002387F8373000233B630023FB627B6883
:10401000002B01D1012327E17B681B69002B7B6802
:10402000DB6C002B15D17B6800221A657B680022AF
:1040300083F848208E4B1B6A8D4A43F001031362BC
:104040008B4B1B6A03F00103BB60BB687868FDF70C
:10405000B7FD7B68DB6C03F01003002B40F0FF80A2
:104060007B68DB6C23F4885323F0020343F00202E5
:104070007B68DA647F4B5B6823F440327B685B6863
:104080007C4913434B607B68DA687B685B691A4341
:104090007B6893F83C3019464FF400733B623B6AEF
:1040A00093FAA3F3FB61FB69B3FA83F3DBB201FA82
:1040B00003F31A437B681B6A1A437B6893F8243026
:1040C00019460223BB62BB6A93FAA3F37B627B6A45
:1040D000B3FA83F3DBB201FA03F31343FA6A13432F
:1040E000FB627B685B6B102B07D07B685A6B7B682D
:1040F0009B6B1343FA6A1343FB627B681B681B6864
:1041000003F04003402B4FD07B689B69FA6A13434E
:10411000FB627B689A687B68DB6913437A68126983
:10412000B2F5807F03D07A681269012A02D14FF478
:10413000807200E0002213433A6B13433B637B68B9
:1041400093F82C30012B25D17B6893F82430002B79
:1041500014D17B681B6B013B4FF46042BA61BA69B2
:1041600092FAA2F27A617A69B2FA82F2D2B29340FA
:1041700043F400633A6B13433B630BE07B68DB6CF7
:1041800043F020027B68DA647B681B6D43F0010218
:104190007B681A657B681B685A68374B13407A68DE
:1041A0001268396B0B4353607B681B689A68334B0A
:1041B00013407A681268F96A0B4393607B681B6945
:1041C000B3F5807F03D07B681B69012B19D17B6815
:1041D0001B681B6B23F0F8717B689B6A013B4FF0F7
:1041E000F8723A613A6992FAA2F2FA60FA68B2FA9F
:1041F00082F2D2B203FA02F27B681B680A431A63A6
:1042000007E07B681B681A6B7B681B6822F0F872FA
:104210001A637B681B689A68194B1340FA6A9A42C2
:104220000BD17B6800221A657B68DB6C23F00303EB
:1042300043F001027B68DA6414E07B68DB6C23F0F6
:10424000120343F010027B68DA647B681B6D43F055
:1042500001027B681A65012387F8373002E00123E9
:1042600087F8373097F8373018463837BD4680BD65
:104270000038024000270140FF16FCFC8DF1FFC012
:10428000FEFF80BF80B586B000AFF860B9607A608D
:104290000023FB75FB6893F84830012B01D1022302
:1042A00074E0FB68012283F84820F86800F0DAF92E
:1042B0000346FB75FB7D002B67D1FB68DB6C23F4A9
:1042C000E06323F0010343F48072FB68DA64FB6867
:1042D0001B685B6803F48063002B07D0FB68DB6C12
:1042E00023F4405343F48052FB68DA64FB68DB6CD0
:1042F00003F48053B3F5805F06D1FB681B6D23F098
:104300000602FB681A6502E0FB6800221A65FB687A
:10431000002283F84820FB685B6C1E4A9A62FB68A7
:104320005B6C1D4ADA62FB685B6C1C4A1A63FB68B3
:104330001B686FF022021A60FB681B685A68FB68F2
:104340001B6842F080625A60FB681B689A68FB68D1
:104350001B6842F480729A60FB68586CFB681B68AB
:1043600058331946BA687B6800F0B4FBFB681B68D9
:104370009B6803F04053002B07D1FB681B689A68C9
:10438000FB681B6842F080429A60FB7D1846183734
:10439000BD4680BD11470008B9470008D547000851
:1043A00080B483B000AF786000BF0C37BD4680BCDE
:1043B000704780B483B000AF786000BF0C37BD4653
:1043C00080BC704780B485B000AF7860396000234E
:1043D000FB730023BB607B6893F84830012B01D14D
:1043E000022334E17B68012283F848203B685B6844
:1043F000062B1CD87B681B68196C3B685A681346EF
:104400009B001344053B1F2202FA03F3DB431940D0
:104410003B6818683B685A6813469B001344053B89
:1044200000FA03F27B681B680A431A647EE03B686B
:104430005B680C2B1CD87B681B68D96B3B685A687F
:1044400013469B001344233B1F2202FA03F3DB4372
:1044500019403B6818683B685A6813469B00134430
:10446000233B00FA03F27B681B680A43DA635DE0D2
:104470003B685B68122B1CD87B681B68996B3B6898
:104480005A6813469B001344413B1F2202FA03F370
:10449000DB4319403B6818683B685A6813469B0029
:1044A0001344413B00FA03F27B681B680A439A639A
:1044B0003CE03B685B68182B1CD87B681B68596B19
:1044C0003B685A6813469B0013445F3B1F2202FA65
:1044D00003F3DB4319403B6818683B685A6813468E
:1044E0009B0013445F3B00FA03F27B681B680A439E
:1044F0005A631BE07B681B68196B3B685A6813465C
:104500009B0013447D3B1F2202FA03F3DB43194057
:104510003B6818683B685A6813469B0013447D3B10
:1045200000FA03F27B681B680A431A633B681B6846
:10453000092B1AD87B681B6859693B681A681346AF
:104540005B001344072202FA03F3DB4319403B6884
:1045500098683B681A6813465B00134400FA03F23C
:104560007B681B680A435A6142E03B681B68132B57
:104570001CD87B681B6819693B681A6813465B0086
:1045800013441E3B072202FA03F3DB4319403B6846
:1045900098683B681A6813465B0013441E3B00FA98
:1045A00003F27B681B680A431A6121E03B681B68C1
:1045B0001A2B1CD87B681B68D9683B681A6813469D
:1045C0005B0013443C3B072202FA03F3DB43194030
:1045D0003B6898683B681A6813465B0013443C3B91
:1045E00000FA03F27B681B680A43DA6000E000BF50
:1045F0003B681B68102B03D03B681B68112B21D133
:10460000154B5B6803F40003002B1BD1124B5B6856
:10461000114A43F4000353603B681B68102B11D10F
:104620000E4B1B680E4AA2FB03239A0C13469B00F9
:1046300013445B00BB6002E0BB68013BBB60BB682E
:10464000002BF9D17B68002283F84820FB7B1846B9
:104650001437BD4680BC7047002701400000002091
:1046600083DE1B4380B584B000AF78600023FB601D
:104670000023BB607B681B681B6803F04003402B72
:104680003CD07B681B689A687B681B6842F001021B
:104690009A601D4B1B681D4AA2FB03239A0C13460C
:1046A0005B001344BB6002E0BB68013BBB60BB68BE
:1046B000002BF9D1FFF796FCF86018E0FFF792FCA9
:1046C0000246FB68D31A022B11D97B68DB6C43F0DE
:1046D00010027B68DA647B681B6D43F001027B6823
:1046E0001A657B68002283F84820012307E07B6875
:1046F0001B681B6803F04003402BDFD100231846E2
:104700001037BD4680BD00BF0000002083DE1B4384
:1047100080B584B000AF78607B685B6AFB60FB6843
:10472000DB6C03F05003002B3DD1FB68DB6C43F4E2
:104730000072FB68DA64FB681B689B6803F04053F7
:10474000002B2CD1FB6893F82430002B27D1FB6879
:104750001B681B6B03F0F873002B06D0FB681B680B
:104760009B6803F48063002B19D1FB681B685A68AF
:10477000FB681B6822F020025A60FB68DB6C23F4A4
:104780008072FB68DA64FB68DB6C03F48053002BF7
:1047900005D1FB68DB6C43F00102FB68DA64F86862
:1047A000FDF7E4FD04E0FB685B6C1B6B78689847E1
:1047B00000BF1037BD4680BD80B584B000AF7860C3
:1047C0007B685B6AFB60F868FFF7EAFD00BF1037A3
:1047D000BD4680BD80B584B000AF78607B685B6A01
:1047E000FB60FB68DB6C43F04002FB68DA64FB684B
:1047F0001B6D43F00402FB681A65F868FFF7D9FDEA
:1048000000BF1037BD4680BD80B485B000AF786072
:104810007B6803F00703FB600C4BDB68BB60BA6886
:104820004FF6FF031340BB60FB681A02BB681343DB
:1048300043F0BF6343F40033BB60044ABB68D360FA
:1048400000BF1437BD4680BC704700BF00ED00E0DC
:1048500080B400AF044BDB681B0A03F00703184663
:10486000BD4680BC704700BF00ED00E080B483B05F
:1048700000AF0346FB7197F90730002B0BDBFB7988
:1048800003F01F02064997F907305B09012000FA7F
:1048900002F241F8232000BF0C37BD4680BC7047B0
:1048A00000E100E080B483B000AF03463960FB71E3
:1048B00097F90730002B0ADB3B68DAB20C4997F90D
:1048C00007301201D2B20B4483F800230AE03B68A0
:1048D000DAB20849FB7903F00F03043B1201D2B2AC
:1048E0000B441A7600BF0C37BD4680BC704700BF32
:1048F00000E100E000ED00E080B489B000AFF860B6
:10490000B9607A60FB6803F00703FB61FB69C3F1E0
:104910000703042B28BF0423BB61FB690433062B68
:1049200002D9FB69033B00E000237B614FF0FF32BB
:10493000BB6902FA03F3DA43BB681A407B699A4009
:104940004FF0FF317B6901FA03F3D9437B680B40D9
:10495000134318462437BD4680BC704780B582B0EB
:1049600000AF78607B68013BB3F1807F01D3012306
:104970000FE00A4A7B68013B53600F214FF0FF3084
:10498000FFF790FF054B00229A60044B07221A6044
:10499000002318460837BD4680BD00BF10E000E088
:1049A00080B582B000AF78607868FFF72DFF00BF58
:1049B0000837BD4680BD80B586B000AF0346B960FC
:1049C0007A60FB7300237B61FFF742FF78617A68AE
:1049D000B9687869FFF790FF024697F90F301146E2
:1049E0001846FFF75FFF00BF1837BD4680BD80B592
:1049F00082B000AF0346FB7197F907301846FFF706
:104A000035FF00BF0837BD4680BD80B582B000AF1E
:104A100078607868FFF7A2FF034618460837BD465E
:104A200080BD000080B485B000AF78607B68002B4B
:104A300001D1012343E07B681B681A46224B1344D3
:104A4000224AA2FB03231B099A007B681A647B6835
:104A50001F4ADA637B68022283F821207B681B6887
:104A60001B68FB60FB6823F4FF4323F07003FB60CB
:104A70007B685A687B689B681A437B68DB681A43CB
:104A80007B681B691A437B685B691A437B689B6977
:104A90001A437B68DB691343FA681343FB607B6846
:104AA0001B68FA681A607B6800229A637B6801229F
:104AB00083F821207B68002283F8202000231846F9
:104AC0001437BD4680BC7047F89FFDBFCDCCCCCC21
:104AD0000060024080B586B000AFF860B9607A60CF
:104AE0003B600023FB75FB6893F82030012B01D15C
:104AF00002234BE0FB68012283F82020FB6893F837
:104B00002130DBB2012B3AD1FB68022283F821204D
:104B1000FB6800229A63FB681B681A68FB681B68C5
:104B200022F001021A603B687A68B968F86800F000
:104B300021F9FB68DB6A002B08D0FB681B681A6848
:104B4000FB681B6842F00E021A600FE0FB681B68EE
:104B50001A68FB681B6822F004021A60FB681B6875
:104B60001A68FB681B6842F00A021A60FB681B683F
:104B70001A68FB681B6842F001021A6005E0FB68D6
:104B8000002283F820200223FB75FB7D184618378E
:104B9000BD4680BD80B584B000AF78600023FB7354
:104BA0007B6893F82130DBB2022B05D07B680422AE
:104BB0009A630123FB7329E07B681B681A687B6892
:104BC0001B6822F00E021A607B681B681A687B68FB
:104BD0001B6822F001021A607B681B6C03F01C0248
:104BE0007B68DB6B012101FA02F25A607B680122CB
:104BF00083F821207B68002283F820207B685B6B90
:104C0000002B03D07B685B6B78689847FB7B18466A
:104C10001037BD4680BD80B584B000AF78607B683A
:104C2000DB6B1B68FB607B681B681B68BB607B6879
:104C30001B6C03F01C0304229A40FB681340002BFA
:104C400026D0BB6803F00403002B21D07B681B68CF
:104C50001B6803F02003002B07D17B681B681A68D0
:104C60007B681B6822F004021A607B681B6C03F0EF
:104C70001C027B68DB6B042101FA02F25A607B683C
:104C8000DB6A002B71D07B68DB6A786898476CE040
:104C90007B681B6C03F01C0302229A40FB681340E4
:104CA000002B2ED0BB6803F00203002B29D07B68B9
:104CB0001B681B6803F02003002B0BD17B681B686B
:104CC0001A687B681B6822F00A021A607B6801225E
:104CD00083F821207B681B6C03F01C027B68DB6B74
:104CE000022101FA02F25A607B68002283F8202038
:104CF0007B689B6A002B38D07B689B6A78689847F2
:104D000033E07B681B6C03F01C0308229A40FB68AD
:104D10001340002B2AD0BB6803F00803002B25D0DA
:104D20007B681B681A687B681B6822F00E021A6099
:104D30007B681B6C03F01C027B68DB6B012101FAB2
:104D400002F25A607B6801229A637B68012283F831
:104D500021207B68002283F820207B681B6B002BBE
:104D600004D07B681B6B7868984700BF00BF103782
:104D7000BD4680BD80B485B000AFF860B9607A6090
:104D80003B60FB681B6C03F01C02FB68DB6B0121C2
:104D900001FA02F25A60FB681B683A685A60FB68C5
:104DA0005B68102B08D1FB681B687A689A60FB6807
:104DB0001B68BA68DA6007E0FB681B68BA689A602B
:104DC000FB681B687A68DA6000BF1437BD4680BC98
:104DD0007047000080B487B000AF7860396000236E
:104DE0007B610023FB6000233B6154E13B681A6850
:104DF00001217B6901FA03F31340FB60FB68002B80
:104E000000F046813B685B68012B0BD03B685B6818
:104E1000022B07D03B685B68112B03D03B685B68B3
:104E2000122B30D17B689B683B617B695B0003225E
:104E300002FA03F3DB433A6913403B613B68DA68EB
:104E40007B695B0002FA03F33A6913433B617B68B9
:104E50003A699A607B685B683B6101227B6902FA70
:104E600003F3DB433A6913403B613B685B681B0912
:104E700003F001027B6902FA03F33A6913433B61D1
:104E80007B683A695A607B68DB683B617B695B00E1
:104E9000032202FA03F3DB433A6913403B613B68A8
:104EA0009A687B695B0002FA03F33A6913433B613A
:104EB0007B683A69DA603B685B68022B03D03B6829
:104EC0005B68122B23D17B69DA087B68083253F8C0
:104ED00022303B617B6903F007039B000F2202FA3B
:104EE00003F3DB433A6913403B613B681A697B6912
:104EF00003F007039B0002FA03F33A6913433B6193
:104F00007B69DA087B680832396943F822107B68CC
:104F10001B683B617B695B00032202FA03F3DB43FE
:104F20003A6913403B613B685B6803F003027B69AD
:104F30005B0002FA03F33A6913433B617B683A6909
:104F40001A603B685B6803F08053002B00F0A08080
:104F5000584B1B6A574A43F001031362554B1B6AB7
:104F600003F00103BB60BB68534A7B699B080233B3
:104F700052F823303B617B6903F003039B000F224F
:104F800002FA03F3DB433A6913403B617B684B4A07
:104F9000934219D07B684A4A934213D07B68494AAE
:104FA00093420DD07B68484A934207D07B68474ABA
:104FB000934201D1042308E0052306E0032304E023
:104FC000022302E0012300E000237A6902F00302D9
:104FD000920093403A6913433B6137497B699B08D0
:104FE00002333A6941F82320394B1B683B61FB6867
:104FF000DB433A6913403B613B685B6803F48033F1
:10500000002B03D03A69FB6813433B61304A3B698C
:1050100013602F4B5B683B61FB68DB433A691340CD
:105020003B613B685B6803F40033002B03D03A69B3
:10503000FB6813433B61264A3B695360244B9B68E2
:105040003B61FB68DB433A6913403B613B685B684B
:1050500003F48013002B03D03A69FB6813433B61D0
:105060001B4A3B6993601A4BDB683B61FB68DB437F
:105070003A6913403B613B685B6803F40013002B03
:1050800003D03A69FB6813433B61114A3B69D36023
:105090007B6901337B613B681A687B6922FA03F301
:1050A000002B7FF4A3AE00BF00BF1C37BD4680BC01
:1050B000704700BF0038024000000140000002407D
:1050C0000004024000080240000C024000100240B0
:1050D0000004014080B485B000AF78600B467B804F
:1050E0007B681A697B881340002B02D00123FB7375
:1050F00001E00023FB73FB7B18461437BD4680BCE0
:10510000704780B483B000AF78600B467B80134655
:105110007B707B78002B03D07A887B689A6103E0F0
:105120007B881A047B689A6100BF0C37BD4680BC3F
:105130007047000080B582B000AF0346FB80084B8B
:105140005A69FB881340002B06D0054AFB8853613F
:10515000FB881846FDF7B8FD00BF0837BD4680BD87
:105160000004014080B588B000AF78607B68002BF8
:1051700001D101231DE3944B9B6803F00C03BB6139
:10518000914B9B6803F480337B617B681B6803F061
:105190000103002B7BD0BB69082B06D0BB690C2B0D
:1051A0000FD17B69B3F5803F0BD1874B1B6803F4AC
:1051B0000033002B6AD07B685B68002B66D101232B
:1051C000F7E27B685B68012B06D17F4B1B687E4A48
:1051D00043F4803313602DE07B685B68002B0CD1B7
:1051E000794B1B68784A23F480331360764B1B6835
:1051F000754A23F4802313601CE07B685B68052BF1
:105200000CD1714B1B68704A43F4802313606E4BC2
:105210001B686D4A43F4803313600BE06A4B1B68D4
:10522000694A23F480331360674B1B68664A23F492
:10523000802313607B685B68002B13D0FEF7D2FEDF
:10524000386108E0FEF7CEFE02463B69D31A642BB4
:1052500001D90323ADE25C4B1B6803F40033002B40
:10526000F0D014E0FEF7BEFE386108E0FEF7BAFEAB
:1052700002463B69D31A642B01D9032399E2524BAE
:105280001B6803F40033002BF0D100E000BF7B6803
:105290001B6803F00203002B5AD0BB69042B05D016
:1052A000BB690C2B19D17B69002B16D1464B1B68AF
:1052B00003F00203002B05D07B68DB68012B01D0D3
:1052C000012376E2404B5B6823F4F8527B681B694C
:1052D0001B023D4913434B603AE07B68DB68002BBF
:1052E00020D03A4B01221A60FEF77CFE386108E0BC
:1052F000FEF778FE02463B69D31A022B01D903233D
:1053000057E2314B1B6803F00203002BF0D02E4B09
:105310005B6823F4F8527B681B691B022A4913431C
:105320004B6015E0294B00221A60FEF75BFE3861E6
:1053300008E0FEF757FE02463B69D31A022B01D95B
:10534000032336E2204B1B6803F00203002BF0D14D
:105350007B681B6803F01003002B00F0B880BB696A
:10536000002B70D1184B1B6803F40073002B05D081
:105370007B689B69002B01D101231AE27B681A6AC2
:10538000114B5B6803F460439A4221D97B681B6A26
:10539000184600F049FC0346002B01D0012308E227
:1053A000094B5B6823F460427B681B6A0649134320
:1053B0004B60054B5B6823F07F427B68DB691B0613
:1053C000014913434B6020E000380240000047428F
:1053D000A44B5B6823F460427B681B6AA1491343BA
:1053E0004B60A04B5B6823F07F427B68DB691B0648
:1053F0009C4913434B607B681B6A184600F014FC01
:105400000346002B01D00123D3E17B681B6A5B0BB1
:1054100001334FF4004202FA03F3924A92681209F0
:1054200002F00F0290498A5CD340904A1360904B7F
:105430001B681846FEF78AFD0346FB73FB7B002BB7
:1054400045D0FB7BB5E17B689B69002B29D0894B5C
:1054500001221A60FEF7C6FD386108E0FEF7C2FDC2
:1054600002463B69D31A022B01D90323A1E17D4BEC
:105470001B6803F40073002BF0D07A4B5B6823F4B5
:1054800060427B681B6A774913434B60754B5B68CE
:1054900023F07F427B68DB691B06724913434B6034
:1054A00015E0744B00221A60FEF79CFD386108E09D
:1054B000FEF798FD02463B69D31A022B01D903235C
:1054C00077E1684B1B6803F40073002BF0D17B6815
:1054D0001B6803F00803002B30D07B685B69002B4E
:1054E00016D0654B01221A60FEF77CFD386108E09A
:1054F000FEF778FD02463B69D31A022B01D903233C
:1055000057E1584B5B6B03F00203002BF0D015E022
:10551000594B00221A60FEF765FD386108E0FEF77E
:1055200061FD02463B69D31A022B01D9032340E1F6
:105530004C4B5B6B03F00203002BF0D17B681B68C4
:1055400003F00403002B00F0B5800023FB77454BEC
:105550005B6A03F08053002B0DD1424B5B6A414ADA
:1055600043F0805353623F4B5B6A03F08053BB6050
:10557000BB680123FB77414B1B6803F48073002B4E
:1055800018D13E4B1B683D4A43F480731360FEF70D
:1055900029FD386108E0FEF725FD02463B69D31A74
:1055A000642B01D9032304E1344B1B6803F480739B
:1055B000002BF0D07B689B68012B06D1294B5B6BDD
:1055C000284A43F4807353632DE07B689B68002B6B
:1055D0000CD1244B5B6B234A23F480735363214B20
:1055E0005B6B204A23F4806353631CE07B689B68F9
:1055F000052B0CD11B4B5B6B1A4A43F4806353633E
:10560000184B5B6B174A43F4807353630BE0154BE5
:105610005B6B144A23F480735363124B5B6B114A28
:1056200023F4806353637B689B68002B15D0FEF7DF
:10563000D9FC38610AE0FEF7D5FC02463B69D31A73
:1056400041F28832934201D90323B2E0054B5B6BF0
:1056500003F40073002BEED023E0FEF7C3FC3861A7
:1056600019E000BF003802401CEB000800000020D9
:10567000080000202000474280064742007000409A
:10568000FEF7B0FC02463B69D31A41F288329342DE
:1056900001D903238DE0494B5B6B03F40073002BAE
:1056A000EED1FB7F012B05D1444B5B6A434A23F0CB
:1056B000805353627B685B6A002B79D0BB690C2BEB
:1056C00056D07B685B6A022B3BD13D4B00221A60AF
:1056D000FEF788FC386108E0FEF784FC02463B696F
:1056E000D31A022B01D9032363E0344B1B6803F068
:1056F0000073002BF0D1314B9B6823F47D027B6853
:10570000996A7B68DB6A19437B681B6B0B432B49E7
:1057100013438B602A4B01221A60FEF763FC386149
:1057200008E0FEF75FFC02463B69D31A022B01D961
:1057300003233EE0214B1B6803F00073002BF0D0E5
:1057400036E01F4B00221A60FEF74CFC386108E07F
:10575000FEF748FC02463B69D31A022B01D903230A
:1057600027E0164B1B6803F00073002BF0D11FE0FD
:105770007B685B6A012B01D101231AE00F4B9B6808
:105780007B617B6903F480327B689B6A9A420DD10E
:105790007B6903F470127B68DB6A9A4206D17B69ED
:1057A00003F440027B681B6B9A4201D0012300E0A6
:1057B000002318462037BD4680BD00BF0038024098
:1057C0006000474280B584B000AF786039607B6884
:1057D000002B01D101231AE18F4B1B6803F0010359
:1057E0003A689A4219D93B68012B05D18A4B1B684C
:1057F000894A43F004031360874B1B6823F00102BE
:1058000085493B6813430B60834B1B6803F001031E
:105810003A689A4201D00123F9E07B681B6803F0E3
:105820000203002B08D07D4B9B6823F0F0027B68BD
:105830009B687A4913438B607B681B6803F0010304
:10584000002B00F08E807B685B68022B07D1734BC6
:105850001B6803F40033002B21D10123D7E07B68C0
:105860005B68032B07D16D4B1B6803F00073002BA3
:1058700015D10123CBE07B685B68012B07D1674B17
:105880001B6803F00203002B09D10123BFE0634B27
:105890001B6803F40073002B01D10123B7E05F4BB9
:1058A0009B6823F003027B685B685C4913438B6051
:1058B000FEF798FBF8607B685B68022B12D10AE068
:1058C000FEF790FB0246FB68D31A41F288329342FE
:1058D00001D903239BE0514B9B6803F00C03082B79
:1058E000EED13EE07B685B68032B12D10AE0FEF745
:1058F00079FB0246FB68D31A41F28832934201D900
:10590000032384E0454B9B6803F00C030C2BEED182
:1059100027E07B685B68012B1DD10AE0FEF762FB84
:105920000246FB68D31A41F28832934201D903231D
:105930006DE03A4B9B6803F00C03042BEED110E0B2
:10594000FEF750FB0246FB68D31A41F288329342BD
:1059500001D903235BE0314B9B6803F00C03002B60
:10596000EED12D4B1B6803F001033A689A4219D21D
:105970003B68012B05D1284B1B68274A43F00403E1
:105980001360254B1B6823F0010223493B68134336
:105990000B60214B1B6803F001033A689A4201D067
:1059A000012334E07B681B6803F00403002B08D05C
:1059B0001A4B9B6823F4E0627B68DB68174913434A
:1059C0008B607B681B6803F00803002B09D0134B26
:1059D0009B6823F460527B681B69DB000F4913430B
:1059E0008B6000F023F802460C4B9B681B0903F008
:1059F0000F030B49CB5C22FA03F30A4A13600A4BEC
:105A00001B681846FEF7A2FA0346FB72FB7A18469B
:105A10001037BD4680BD00BF003C02400038024048
:105A20001CEB00080000002008000020B0B586B084
:105A300000AF614B9B68FB60FB6803F00C030C2B11
:105A40000DD00C2B00F2A480042B02D0082B03D025
:105A50009EE05A4B3B61A9E0584B3B61A6E0FB68D6
:105A60009B0C03F00F03564AD35CBB60FB689B0D95
:105A700003F0030301337B604F4B9B6803F48033D7
:105A8000002B41D0BB681C464FF00005204629463C
:105A90004FF000024FF000034B0143EAD063420194
:105AA00010461946001B61EB05014FF000024FF054
:105AB00000038B0143EA90638201121A63EB010336
:105AC0004FF000004FF00001D90041EA5271D000C0
:105AD00002460B46121945EB03034FF000004FF04E
